:020000040800F2
:10000000C0040020450100084D2D0008DD23000834
:10001000492D0008510800086D320008000000005A
:100020000000000000000000000000008D2E00080D
:1000300055080008000000004D2E0008E52E0008BD
:100040005F0100085F0100085F0100085F01000810
:100050005F0100085F0100085F0100085F01000800
:100060005F0100085F0100085F0100085F010008F0
:100070005F0100085F0100085F0100085F010008E0
:100080005F0100085F0100085F0100085F010008D0
:100090005F0100085F0100085F0100085F010008C0
:1000A0005F0100085F0100085F0100085F010008B0
:1000B0005F0100085F0100085F0100085F010008A0
:1000C0005F0100085F0100085F0100085F01000890
:1000D0005F0100085F0100085F0100085F01000880
:1000E0005F0100085F0100085F0100085F01000870
:1000F0005F0100085F0100085F0100085F01000860
:100100005F0100085F0100085F0100085F0100084F
:100110005F0100085F0100085F0100085F0100083F
:100120005F0100085F0100085F0100085F0100082F
:10013000DFF80CD000F028FB0048004769340008C5
:10014000C00400200648804706480047FEE7FEE757
:10015000FEE7FEE7FEE7FEE7FEE7FEE7FEE7FEE777
:10016000592F000831010008D2B201E000F8012B3C
:10017000491EFBD270470022F6E710B513460A4627
:1001800004461946FFF7F0FF204610BD421E12F844
:10019000013F002BFBD111F8013B02F8013B002B82
:1001A000F9D17047421C10F8011B0029FBD1801ABD
:1001B0007047034611F8012B00F8012B002AF9D1F2
:1001C000184670472DE9FE4F804681EA0300C00FB4
:1001D0000C46009021F0004123F00045B8EB0200EE
:1001E000A94105D24046214690461C460B46024690
:1001F00023F00040104347D0270DC7F30A00C3F394
:100200000A510290401A019040286BDAC3F31300A0
:1002100040F4801B0098924620B10023D2EB030AE1
:1002200063EB0B0B01985946C0F14002504600F0B9
:10023000F4F806460D4650465946019A00F00CF96E
:1002400010EB08006141002487EA115284EAE77349
:100250001A4340D0009A62B3019A012A4FEA07522A
:1002600015DC001B61EB02014FF0004202EA07526D
:10027000CDE90042001C41F5801132462B4600F0CA
:100280000CF903B0BDE8F08F40462146F9E7001BAA
:1002900061EB0201001C41F5801300185B4120183E
:1002A000A2F5001747EB030140EAD570B6196D417E
:1002B00011E06D084FEA360645EAC0754FEA07526D
:1002C000001B61EB0201001C41F5801149084FEA57
:1002D00030000019514132462B4603B0BDE8F04FC3
:1002E00000F0CCB80098012240000023D0EB0202BD
:1002F00063EBE073009821464FEAE074B8EB00002E
:1003000061EB0401E9E783F000435BE781F0004122
:1003100058E70EB5C10F80EAE0700844CA07002113
:1003200040F233438DE80E000A460B4600F0B5F864
:1003300003B000BD0EB540F2334102910021CDE97A
:1003400000110A460B4600F0A8F803B000BD70B5D6
:10035000C1F30A5201F000450024C1F3130140F239
:10036000FF3341F480119A4201DA002070BD40F25F
:1003700033439A42A2F2334203DC524200F05CF86B
:1003800000E090402C43F1D0404270BD30B50B46A8
:10039000014600202022012409E021FA02F59D42B5
:1003A00005D303FA02F5491B04FA02F52844151E89
:1003B000A2F10102F1DC30BD2DE9F05F054600201D
:1003C00092469B4688460646814640241BE02846C6
:1003D00041464746224600F02FF853465A46C01A77
:1003E000914110D311461846224600F016F82D1AF6
:1003F00067EB01084F4622460120002100F00DF86E
:1004000017EB00094E41201EA4F10104DFDC484631
:1004100031462A464346BDE8F09F202A04DB203AB5
:1004200000FA02F1002070479140C2F1200320FA47
:1004300003F3194390407047202A04DB203A21FA45
:1004400002F00021704721FA02F3D040C2F12002ED
:100450009140084319467047202A06DBCB17203A03
:1004600041FA02F043EAE07306E041FA02F3D040B9
:10047000C2F12002914008431946704710B5141E7E
:1004800073F1000408DA401C41F1000192185B414D
:100490001A4301D120F0010010BD2DE9F04D924624
:1004A0009B4611B1B1FA81F202E0B0FA80F220323B
:1004B0009046FFF7B2FF04460F4640EA0A0041EAC1
:1004C0000B0153465A46084313D0114653EA010024
:1004D00019D0C8F140025046FFF7AEFF05460E4660
:1004E000504659464246FFF798FF084305D0012081
:1004F00004E020463946BDE8F08D0020054346EA79
:10050000E0762C4337430A986305E40AA0EB080021
:100510000022FD0A44EA47540A3002D50020014671
:10052000E9E7010510196941DDE90845001969414C
:10053000BDE8F04DA2E72DE9FE4F81EA030404F087
:10054000004421F0004100944FF0000B23F00043E1
:1005500050EA01045ED052EA03045BD0C3F30A54AC
:10056000C1F30A552C44A4F2F3340194A0FB0254C5
:10057000C1F3130141F48011C3F3130343F4801357
:1005800001FB024400FB034E840A970A44EA8154AB
:1005900047EA8357A4FB076802958D0A05FB078588
:1005A0004FEA932C04FB0C542705029D4FEA065892
:1005B00047EA1637B5EB08056EEB070C870E920E6F
:1005C00047EA811742EA8312A7FB0201B6EB0B014F
:1005D00064EB00042B0D43EA0C335E1844EB1C5013
:1005E000DA465146E7FB0201C5F313044FEA0B3329
:1005F00043EA14534FEA0432019C43EA0603A4F190
:100600000C040294009CCDE900B4FFF746FF03B050
:10061000BDE8F08F00200146F9E72DE9F04D81EAB1
:10062000030404F0004B21F0004514464FF0000A8B
:1006300023F0004150EA050220D054EA01021DD007
:10064000C5F30A570246C5F31303C1F31300C1F300
:100650000A5640F4801543F48013A7EB0608101BDC
:10066000D64608F2FD3873EB050002D308F1010805
:1006700001E092185B41B8F1000F03DA0020014657
:10068000BDE8F08D00204FF48011064684460EE050
:10069000171B73EB050705D3121B63EB050306431A
:1006A0004CEA010C49084FEA300092185B4150EACD
:1006B0000107EDD152EA030012D082EA040083EA76
:1006C0000501084305D0101BAB4106D201220023CF
:1006D00006E000224FF0004302E06FF001025310E9
:1006E0001AEB06004CEB085110EB0A0041EB0B0132
:1006F000BDE8F04DFFF7C2BE70B521F000430343E3
:100700000CD0C1F30A550024D5EB040564EB0403B7
:10071000D617AD1AB34102DB0020014670BD201888
:1007200041EB025170BDC1F30A52C1F3130140F213
:10073000FF3341F480119A4202DA002001467047EB
:1007400040F233439A42A2F2334202DC5242FFF7B4
:1007500073BEFFF762BE000030B5041E71F10004E5
:1007600004DB4FF00044404264EB0101141E73F1BE
:10077000000405DB1C464FF00043524263EB0403C8
:10078000994208BF904230BD064C074D06E0E06834
:1007900040F0010394E8070098471034AC42F6D3C8
:1007A000FFF7CAFCEC4B00080C4C00082DE9F04D9B
:1007B00000231A461B1A8A4103DB00200146BDE8CC
:1007C000F08DC1F30A52C1F3130141F480154FF0CB
:1007D000000BD10702D100186D41521E00270446BC
:1007E00040F2FF11384601EB620A3E46804602465F
:1007F00000204FF48011FFF71FFEC2197141BB1892
:1008000046EB0100B4EB030C75EB000C04D3E41AC7
:1008100065EB000517460E46241908F101006D41ED
:1008200080463428E3DDF91946EB0600091BA84190
:1008300003D24FF0FF32134601E0002213461BEBB8
:10084000070046EB0A51BDE8F04DFFF717BE000068
:10085000FFE7FEE7704700007047000080B584B0F6
:10086000039000F0E3F902900398019001980130A1
:1008700048B1FFE740F20A00C2F200000178019897
:1008800008440190FFE7FFE700F0D0F90299401A11
:100890000199884201D2FFE7F6E704B080BD00006D
:1008A00092B01190109100200E900D900C900B9032
:1008B00009900F90FFE70F980F2800F29C81FFE747
:1008C0000F99012088400E90109800680E990840FA
:1008D0000D900D980E99884240F08881FFE710989E
:1008E00040680790002851D0FFE7079801283AD0C8
:1008F000FFE7079802283FD0FFE7079803285FD05B
:10090000FFE70798112832D0FFE70798122838D060
:10091000FFE707980021C1F21101884236D0FFE7B6
:1009200007980021C1F2120188422FD0FFE70798F3
:100930000021C1F22101884228D0FFE70798002159
:10094000C1F22201884221D0FFE707980021C1F2BD
:10095000310188421AD0FFE707980021C1F2320125
:10096000884213D02FE01098C0680B902CE01098AC
:10097000C06804300B9027E01098C06808300B90D6
:1009800022E01098C0680C300B901DE01098806831
:1009900018B9FFE704200B9011E010988068012837
:1009A00006D1FFE708200B900E981199086105E029
:1009B00008200B900E9811994861FFE7FFE703E0CC
:1009C00000200B9000E0FFE70D98FF2803D8FFE719
:1009D0001198069003E0119804300690FFE70698FE
:1009E0000A900D98FF2804D8FFE70F988000059023
:1009F00006E00F996FF01F0000EB81000590FFE704
:100A0000059809900A980068099A0F219140884337
:100A10000B99914008430A9908601098C079C00664
:100A2000002840F1E280FFE7FFE741F21800C4F23E
:100A30000200016841F001010160006800F001005E
:100A400008900898FFE70F9820F003000821C4F2EF
:100A5000010140580C900F9800F0030081000F2016
:100A600000FA01F10C9888430C90119840F60001AF
:100A7000C4F20101884203D1FFE70020049042E064
:100A8000119840F60041C4F20101884203D1FFE70A
:100A90000120039034E0119841F20001C4F20101F9
:100AA000884203D1FFE70220029026E0119841F22C
:100AB0000041C4F20101884203D1FFE70320019005
:100AC00018E0119841F60001C4F20101884203D1F7
:100AD000FFE7042000900AE0119941F60042C4F2B9
:100AE00001020620914208BF05200090FFE7009810
:100AF0000190FFE701980290FFE702980390FFE75B
:100B000003980490FFE704980F9901F0030189000E
:100B100000FA01F10C9808430C900C980F9921F001
:100B200003010822C4F20102885010988079C0079E
:100B300048B1FFE70D9A40F20041C4F20101086894
:100B40001043086008E00D9A40F20041C4F2010130
:100B5000086890430860FFE71098807980070028B4
:100B600009D5FFE70D9A40F20441C4F2010108687B
:100B70001043086008E00D9A40F20441C4F20101FC
:100B8000086890430860FFE710988079C006002845
:100B900009D5FFE70D9A40F20841C4F20101086847
:100BA0001043086008E00D9A40F20841C4F20101C8
:100BB000086890430860FFE7109880798006002855
:100BC00009D5FFE70D9A40F20C41C4F20101086813
:100BD0001043086008E00D9A40F20C41C4F2010194
:100BE000086890430860FFE7FFE7FFE7FFE70F981B
:100BF00001300F905FE612B07047000082B00190A4
:100C0000ADF802108DF801209DF8010028B1FFE732
:100C1000BDF802000199086105E0BDF8020000047A
:100C200001990861FFE702B07047000040F2B80088
:100C3000C2F200000068704780B58CB00A900020B6
:100C4000099008900A9820B9FFE701208DF82F003D
:100C50000DE10A9890F83D0040B9FFE70A9900209D
:100C600081F83C000A9800F053FCFFE70A99242021
:100C700081F83D000A980168086820F001000860CA
:100C800000F0ACFE08900A98406848F2A061C0F2FB
:100C9000010188420BD8FFE7089948F28042C0F270
:100CA0001E020020914238BF012007900AE00899F7
:100CB00040F60012C0F23D020020914238BF0120F0
:100CC0000790FFE70798012804D1FFE701208DF87E
:100CD0002F00CCE008984DF68361C4F21B31A0FBD5
:100CE0000110800C099009980A99096848600A98CF
:100CF000406848F2A061C0F20101884204D8FFE7D1
:100D00000998013006900EE009984FF49671484317
:100D100044F6D351C1F26201A0FB0101012000EBB6
:100D200091100690FFE706980A99096808620A98E8
:100D3000406848F2A061C0F2010188421FD8FFE775
:100D4000089801380A9949684900B0FBF1F0013070
:100D50006FF31F30032803D8FFE7042005900BE052
:100D6000089801380A9949684900B0FBF1F0013050
:100D70006FF31F300590FFE7059804904CE00A9848
:100D8000806868B9FFE7089801380A99496801EB5B
:100D90004101B0FBF1F001306FF31F3003900DE023
:100DA000089801380A99496819225143B0FBF1F0BB
:100DB0000130042161F31F300390FFE70398000521
:100DC00018B9FFE70120029023E00A98806868B90B
:100DD000FFE7089801380A99496801EB4101B0FB27
:100DE000F1F001306FF31F3001900DE008980138E9
:100DF0000A99496819225143B0FBF1F001300421EE
:100E000061F31F300190FFE7019840F40040029029
:100E1000FFE702980490FFE704980A990968C861FF
:100E20000A9A1168D069126A104308600A9801682A
:100E3000C2680069104388600A9A11685069926913
:100E40001043C8600A980168086840F00100086013
:100E50000A99002008640A9A202182F83D100A9914
:100E600008630A9981F83E008DF82F00FFE79DF88E
:100E70002F000CB080BD000080B58CB0DDF838C00C
:100E80000A90ADF826100892ADF81E3000200690AA
:100E9000FFF7CCFE06900A9890F83D00202840F01D
:100EA0000F82FFE70A9806996A4611600221C0F294
:100EB00010010122192301F039FD20B1FFE70220C2
:100EC0008DF82F0000E2FFE70A9890F83C00012817
:100ED00004D1FFE702208DF82F00F5E10A990120E7
:100EE00081F83C00FFE7FFE70A9800680068C00748
:100EF00038B9FFE70A980168086840F00100086007
:100F0000FFE70A980168086820F4006008600A9901
:100F1000222081F83D000A99102081F83E000A99AC
:100F20000020086408980A994862BDF81E000A99D2
:100F300048850A990020CFF6FF70C8620A98408D54
:100F40000A9908850A98BDF826100E9A069B01F0AA
:100F50003FFBC8B1FFE70A98006C04280AD1FFE7FD
:100F6000FFE70A99002081F83C00FFE701208DF897
:100F70002F00A9E1FFE70A99002081F83C00FFE774
:100F800003208DF82F009FE10A98008DA0B9FFE79C
:100F9000FFE7002005900A980068406905900A98CC
:100FA0000068806905900598FFE70A98016808685D
:100FB00040F40070086057E00A98008D01281CD1A9
:100FC000FFE70A980168086820F48060086072B63C
:100FD000FFE7002004900A980068406904900A988E
:100FE0000068806904900498FFE70A98016808681F
:100FF00040F40070086062B635E00A98008D02285F
:101000001CD1FFE70A980168086840F40060086096
:1010100072B6FFE7002003900A98006840690390C9
:101020000A980068806903900398FFE70A980168AE
:10103000086820F48060086062B613E00A980168CE
:10104000086840F480600860FFE7002002900A987A
:101050000068406902900A980068806902900298CE
:10106000FFE7FFE7FFE7FFE7FFE70A98008D0028AB
:1010700000F01481FFE70A98008D032800F2CD806C
:10108000FFE70A98008D012825D1FFE70A980E99FD
:10109000069A01F025FD68B1FFE70A98006C202848
:1010A00004D1FFE703208DF82F000DE101208DF81A
:1010B0002F0009E10A98006800690A9B596A4A1CD6
:1010C0005A6208700A99088D013808850A99488D76
:1010D00001384885A0E00A98008D02283AD1FFE740
:1010E0000A980E9B06996A4611600421C0F201011C
:1010F000002201F01BFC20B1FFE703208DF82F0038
:10110000E2E072B60A980168086840F4007008606E
:101110000A98006800690A9B596A4A1C5A6208705A
:101120000A99088D013808850A99488D0138488543
:1011300062B60A98006800690A9B596A4A1C5A629A
:1011400008700A99088D013808850A99488D013878
:10115000488560E00A980E9B06996A461160042152
:10116000C0F20101002201F0E1FB20B1FFE7032002
:101170008DF82F00A8E00A980168086820F48060C4
:10118000086072B60A98006800690A9B596A4A1C8E
:101190005A6208700A99088D013808850A99488DA5
:1011A000013848850A980E9B06996A461160042109
:1011B000C0F20101002201F0B9FB20B1FFE70320DA
:1011C0008DF82F0080E00A980168086840F40070EC
:1011D00008600A98006800690A9B596A4A1C5A62AA
:1011E00008700A99088D013808850A99488D0138D8
:1011F000488562B60A98006800690A9B596A4A1CC9
:101200005A6208700A99088D013808850A99488D34
:1012100001384885FFE7FFE73FE00A980E99069AF4
:1012200001F05EFC68B1FFE70A98006C202804D149
:10123000FFE703208DF82F0046E001208DF82F00F6
:1012400042E00A98006800690A9B596A4A1C5A627F
:1012500008700A99088D013808850A99488D013867
:1012600048850A980068406900F004010120B0EB4D
:10127000910F11D1FFE70A98006800690A9B596A2B
:101280004A1C5A6208700A99088D013808850A9923
:10129000488D01384885FFE7FFE7E6E60A992020F8
:1012A00081F83D000A99002081F83E00FFE70A9985
:1012B000002081F83C00FFE700208DF82F0003E0BC
:1012C00002208DF82F00FFE79DF82F000CB080BDA5
:1012D00080B588B0DDF828C00690ADF816100492ED
:1012E000ADF80E3000200290FFF7A0FC02900698A7
:1012F00090F83D00202840F00281FFE7069802990F
:101300006A4611600221C0F210010122192301F086
:101310000DFB20B1FFE702208DF81F00F3E0FFE78F
:10132000069890F83C00012804D1FFE702208DF8D0
:101330001F00E8E00699012081F83C00FFE7FFE785
:10134000069800680068C00738B9FFE7069801688A
:10135000086840F001000860FFE706980168086827
:1013600020F4006008600699212081F83D0006996C
:10137000102081F83E000699002008640498069920
:101380004862BDF80E000699488506990020CFF600
:10139000FF70C8620698408D069908850698BDF8CA
:1013A00016100A9A029B01F0EBF9C8B1FFE7069804
:1013B000006C04280AD1FFE7FFE70699002081F8B6
:1013C0003C00FFE701208DF81F009CE0FFE7069935
:1013D000002081F83C00FFE703208DF81F0092E019
:1013E000FFE7002001900698006840690190069888
:1013F0000068806901900198FFE7FFE70698008D7B
:10140000002864D0FFE706980A99029A01F0C2FB0F
:1014100098B1FFE70698006C04280AD1FFE7069808
:101420000168086840F40070086001208DF81F0012
:1014300069E003208DF81F0065E0069A506A411CA0
:10144000516200780699096808610699488D01384B
:1014500048850699088D0138088506980068406916
:1014600000F004010120B0EB910F15D1FFE70698C1
:10147000008D88B1FFE7069A506A411C51620078DE
:101480000699096808610699488D013848850699CA
:10149000088D01380885FFE706980A99029A01F03D
:1014A000FDF998B1FFE70698006C04280AD1FFE720
:1014B00006980168086840F40070086001208DF803
:1014C0001F0020E003208DF81F001CE096E706981F
:1014D0000168086840F4007008600699202081F8CF
:1014E0003D000699002081F83E00FFE706990020A4
:1014F00081F83C00FFE700208DF81F0003E0022088
:101500008DF81F00FFE79DF81F0008B080BD0000A8
:1015100080B588B007900020069005900490039055
:101520000798006845F20041C4F2000188423DD1AD
:10153000FFE7FFE741F21800C4F20200016841F042
:1015400008010160006800F0080002900298FFE7BF
:10155000C0200390122004900320069040F6004023
:10156000C4F2010003A9FFF79BF9FFE741F21C0059
:10157000C4F20200016841F400110160006800F447
:10158000001001900198FFE741F21001C4F202013E
:101590000091086840F4001008606420FFF75EF9CD
:1015A0000099086820F400100860FFE708B080BDCB
:1015B00040F20A00C2F20000027840F2B801C2F222
:1015C00000010868104408607047000080B582B0D0
:1015D00042F20001C4F20201086840F01000086005
:1015E000032000F08DF80020019000F005F800F0D5
:1015F0003BF8019802B080BD80B582B0009040F207
:101600000400C2F20000006840F20A01C2F20001C8
:101610000A784FF47A71B1FBF2F1B0FBF1F000F00F
:101620008BFD20B1FFE701208DF8070018E000983E
:101630000F280DD8FFE700994FF0FF30002200F08F
:1016400045F8009840F20C01C2F20001086003E086
:1016500001208DF8070003E000208DF80700FFE768
:101660009DF8070002B080BD83B0FFE741F218008B
:10167000C4F20200016841F001010160006800F05D
:10168000010002900298FFE7FFE741F21C00C4F25C
:101690000200016841F080510160006800F0805054
:1016A00001900198FFE7FFE70421C4F201010868F7
:1016B0000090009820F0E0600090009840F00070EA
:1016C000009000980860FFE703B0704780B586B0CF
:1016D0008DF81700049103920020029001F06EFB38
:1016E00002909DF91700019002980499039A01F065
:1016F0002FFB0146019801F069FB06B080BD000098
:1017000080B582B00190019801F082FB02B080BDEB
:1017100080B586B00490039100200290039842F2B5
:101720000001C4F20201096801F00701884216D9DC
:10173000FFE742F20000C4F20200016821F0070155
:10174000039A11430160006800F007000399884282
:1017500004D0FFE701208DF8170035E1FFE704987A
:101760000078800700282AD5FFE704980078400712
:10177000002809D5FFE741F20401C4F2020108681C
:1017800040F4E0600860FFE7049800780007002854
:1017900009D5FFE741F20401C4F20201086840F4F0
:1017A00060500860FFE741F20401C4F202010868DA
:1017B00020F0F000049A926810430860FFE7049854
:1017C0000078C007002800F09D80FFE7049840687B
:1017D00001280ED1FFE741F20000C4F202000068C8
:1017E0008003002804D4FFE701208DF81700EBE008
:1017F00021E00498406802280ED1FFE741F2000082
:10180000C4F2020000688001002804D4FFE7012030
:101810008DF81700D8E00DE041F20000C4F202009C
:1018200000688007002804D4FFE701208DF8170026
:10183000CAE0FFE7FFE741F20401C4F202010868D1
:1018400020F00300049A526810430860FFF7EEF995
:1018500002900498406801281AD1FFE7FFE741F29F
:101860000400C4F20200006800F00C0004280ED04E
:10187000FFE7FFF7DBF90299401A41F2893188420C
:1018800004D3FFE703208DF817009DE0E7E738E079
:101890000498406802281AD1FFE7FFE741F20400EC
:1018A000C4F20200006800F00C0008280ED0FFE728
:1018B000FFF7BCF90299401A41F28931884204D3FA
:1018C000FFE703208DF817007EE0E7E718E0FFE769
:1018D00041F20400C4F20200006810F00C0F0ED0B8
:1018E000FFE7FFF7A3F90299401A41F289318842D4
:1018F00004D3FFE703208DF8170065E0E8E7FFE772
:10190000FFE7FFE7039842F20001C4F20201096811
:1019100001F00701884216D2FFE742F20000C4F24C
:101920000200016821F00701039A11430160006879
:1019300000F007000399884204D0FFE701208DF8EA
:10194000170041E0FFE704980078400700280CD515
:10195000FFE741F20401C4F20201086820F4E060EC
:10196000049AD26810430860FFE7049800780007E3
:1019700000280DD5FFE741F20401C4F20201086816
:1019800020F46050049A126940EAC2000860FFE740
:1019900000F048F841F20401C4F202010968C9B23A
:1019A0000A0944F66031C0F60001895CC84040F283
:1019B0000401C2F20001086000200190FFF71CFE44
:1019C00001988DF81700FFE79DF8170006B080BD5D
:1019D00040F20400C2F200000068704780B5FFF7D3
:1019E000F7FF41F20401C4F202010968C1F30222C7
:1019F00044F67031C0F60001895CC84080BD00002B
:101A000080B5FFF7E5FF41F20401C4F20201096865
:101A1000C1F3C22244F67031C0F60001895CC840AF
:101A200080BD00008BB040F60E70C1F210000A902D
:101A300040F60A30C0F60C50099040F20670C0F62D
:101A40000810089040F20230C0F20450079040F2B3
:101A50000120ADF81A000020059004900390029038
:101A6000019041F20400C4F202000068059005985C
:101A700000F00C0001460091E0B3FFE70098042855
:101A800004D0FFE70098082806D034E041F2002097
:101A9000C0F27A00019034E00598C0F3834107A8B2
:101AA000405C02909DF81600C007C0B1FFE741F20C
:101AB0000400C4F20200006800F400310DF11A00C5
:101AC00040EA514000780490029841F20021C0F2AF
:101AD0007A0148430499B0FBF1F0039007E00298C3
:101AE00040F60011C0F23D0148430390FFE7039820
:101AF000019006E0FFE741F20020C0F27A00019079
:101B0000FFE701980BB0704780B586B004900020C5
:101B1000039004980078C007002800F0AE80FFE72B
:101B200041F20400C4F20200006800F00C00042836
:101B300013D0FFE741F20400C4F20200006800F095
:101B40000C0008281BD1FFE741F20400C4F2020098
:101B50000068C003002812D5FFE741F20000C4F27C
:101B6000020000688003002808D5FFE70498406859
:101B700020B9FFE701208DF81700D8E27CE0FFE7ED
:101B800004984068B0F5803F09D1FFE741F20001B9
:101B9000C4F20201086840F48030086032E0049822
:101BA000406868B9FFE741F20001C4F20201086829
:101BB00020F480300860086820F48020086020E06D
:101BC00004984068B0F5A02F0DD1FFE741F2000165
:101BD000C4F20201086840F480200860086840F4FC
:101BE000803008600CE041F20001C4F20201086894
:101BF00020F480300860086820F480200860FFE747
:101C0000FFE7FFE7FFE704984068D0B1FFE7FFF781
:101C10000DF80390FFE741F20000C4F202000068F3
:101C2000800300280CD4FFE7FFF700F80399401A5F
:101C3000652804D3FFE703208DF8170077E2EAE771
:101C400019E0FEF7F3FF0390FFE741F20000C4F252
:101C500002000068800300280CD5FFE7FEF7E6FFCE
:101C60000399401A652804D3FFE703208DF8170075
:101C70005DE2EAE7FFE7FFE7FFE704980078800707
:101C8000002840F18D80FFE741F20400C4F2020019
:101C9000006810F00C0F13D0FFE741F20400C4F20B
:101CA0000200006800F00C00082829D1FFE741F28B
:101CB0000400C4F202000068C003002820D4FFE73B
:101CC00041F20000C4F2020000688007002809D534
:101CD000FFE704980069012804D0FFE701208DF890
:101CE000170024E241F20001C4F20201086820F06A
:101CF000F800049A526940EAC2000860FFE74EE02B
:101D00000498006958B3FFE70021C4F24221012082
:101D10000860FEF78BFF0390FFE741F20000C4F27A
:101D200002000068800700280CD4FFE7FEF77EFF62
:101D30000399401A032804D3FFE703208DF8170006
:101D4000F5E1EAE741F20001C4F20201086820F07F
:101D5000F800049A526940EAC20008601EE00021BF
:101D6000C4F2422100200860FEF760FF0390FFE705
:101D700041F20000C4F202000068800700280CD580
:101D8000FFE7FEF753FF0399401A032804D3FFE748
:101D900003208DF81700CAE1EAE7FFE7FFE7FFE756
:101DA000049800780007002848D5FFE70498806968
:101DB00018B3FFE740F28041C4F2422101200860DD
:101DC000FEF734FF0390FFE741F22400C4F2020063
:101DD0000068800700280CD4FFE7FEF727FF03996F
:101DE000401A032804D3FFE703208DF817009EE173
:101DF000EAE7012001F02CF81FE040F28041C4F234
:101E0000422100200860FEF711FF0390FFE741F236
:101E10002400C4F202000068800700280CD5FFE708
:101E2000FEF704FF0399401A032804D3FFE70320B9
:101E30008DF817007BE1EAE7FFE7FFE704980078F9
:101E40004007002840F1D880FFE700208DF80B0004
:101E500041F21C00C4F202000068C000002813D444
:101E6000FFE7FFE741F21C00C4F20200016841F005
:101E700080510160006800F0805001900198FFE7F8
:101E800001208DF80B00FFE747F20000C4F20000CC
:101E90000068C005002822D4FFE747F20001C4F221
:101EA0000001086840F480700860FEF7BFFE0390F0
:101EB000FFE747F20000C4F200000068C0050028F8
:101EC0000CD4FFE7FEF7B2FE0399401A652804D34D
:101ED000FFE703208DF8170029E1EAE7FFE7FFE7B6
:101EE0000498C068012809D1FFE741F22001C4F23B
:101EF0000201086840F00100086031E00498C06801
:101F000068B9FFE741F22001C4F20201086820F03D
:101F100001000860086820F0040008601FE00498D1
:101F2000C06805280DD1FFE741F22001C4F202018B
:101F3000086840F004000860086840F0010008608C
:101F40000CE041F22001C4F20201086820F0010017
:101F50000860086820F004000860FFE7FFE7FFE77B
:101F6000FFE70498C068E0B1FFE7FEF75FFE03906B
:101F7000FFE741F22000C4F2020000688007002859
:101F80000ED4FFE7FEF752FE0399401A41F2893161
:101F9000884204D3FFE703208DF81700C7E0E8E785
:101FA0001BE0FEF743FE0390FFE741F22000C4F27E
:101FB00002000068800700280ED5FFE7FEF736FE16
:101FC0000399401A41F28931884204D3FFE7032084
:101FD0008DF81700ABE0E8E7FFE79DF80B0001285C
:101FE00009D1FFE741F21C01C4F20201086820F0A8
:101FF00080500860FFE7FFE70498C069002800F000
:102000009280FFE741F20400C4F20200006800F091
:102010000C00082800F08280FFE70498C0690228BD
:102020005CD1FFE76021C4F2422100200860FEF786
:10203000FDFD0390FFE741F20000C4F202000068DA
:10204000800100280CD5FFE7FEF7F0FD0399401A48
:10205000032804D3FFE703208DF8170067E0EAE7C1
:102060000498006AB0F5803F0CD1FFE741F204010B
:10207000C4F20201086820F40030049A9268104308
:102080000860FFE741F20401C4F20201086820F48D
:102090007410049B1A6A5B6A1A431043086060213B
:1020A000C4F2422101200860FEF7C0FD0390FFE763
:1020B00041F20000C4F202000068800100280CD444
:1020C000FFE7FEF7B3FD0399401A032804D3FFE7A7
:1020D00003208DF817002AE0EAE71EE06021C4F231
:1020E000422100200860FEF7A1FD0390FFE741F2C6
:1020F0000000C4F202000068800100280CD5FFE750
:10210000FEF794FD0399401A032804D3FFE7032048
:102110008DF817000BE0EAE7FFE703E001208DF8F8
:10212000170004E0FFE700208DF81700FFE79DF897
:10213000170006B080BD000080B582B00190019804
:1021400000F0A6FE02B080BD80B582B0009000987D
:1021500020B9FFE701208DF807003EE00098806974
:1021600008B1FFE700E0FFE7009890F8390040B9B8
:10217000FFE70099002081F83800009800F032F85D
:10218000FFE70099242081F8390000980168C868A9
:1021900020F40050C860009800F00EFF009801681D
:1021A000086920F49040086100980168486920F0AF
:1021B0002A00486100980168C86840F40050C8606F
:1021C00000990020C863009A202182F83910009AF3
:1021D00082F83A108DF80700FFE79DF8070002B07B
:1021E00080BD000080B58AB009900020089007905B
:1021F000069005900998006843F60001C4F20101B9
:10220000884239D1FFE7FFE741F21800C4F202002B
:10221000016841F480410160006800F4804004904E
:102220000498FFE7FFE741F21800C4F202000168DA
:1022300041F004010160006800F00400039003987D
:10224000FFE74FF4007005900220069003200890ED
:1022500040F60000C4F20100019005A90291FEF7CA
:102260001FFB019802994FF48062059200220692AA
:102270000792FEF715FBFFE70AB080BD80B588B076
:1022800006900591ADF81220039300200190069866
:1022900090F83900202840F09980FFE7059820B198
:1022A000FFE7BDF8120020B9FFE701208DF81F00FD
:1022B00090E0FFE7069890F83800012804D1FFE786
:1022C00002208DF81F0085E00699012081F8380072
:1022D000FFE7FFE706990020C8630699212081F8EF
:1022E0003900FEF7A3FC0190BDF81200069988841E
:1022F000BDF812000699C884FFE70698C08C002834
:1023000047D0FFE70699C88C0138C88406988068D2
:10231000B0F5805F25D1FFE70698019B03996A46D7
:1023200011608021002200F053FF20B1FFE703205D
:102330008DF81F004EE005980290029800886FF318
:102340005F200699096848600698006920B9FFE790
:1023500005980230059003E0059801300590FFE7ED
:1023600016E00698019B03996A46116080210022BD
:1023700000F02EFF20B1FFE703208DF81F0029E0B9
:102380000598411C05910078069909684860FFE7A7
:10239000B3E70698019B03996A4611604021002229
:1023A00000F016FF20B1FFE703208DF81F0011E0B9
:1023B0000699202081F83900FFE70699002081F86E
:1023C0003800FFE700208DF81F0003E002208DF8A1
:1023D0001F00FFE79DF81F0008B080BDFFE7FEE784
:1023E00080B584B00390029100208DF80700FFE7CC
:1023F00003989DF80710405C002800F0B880FFE7C4
:1024000003989DF80710405C30380146009136284B
:1024100000F29F800099DFE801F01C242C343C443A
:102420004C545C649C9C9C9C9C9C9C6C747C848C9C
:10243000949C9C9C9C9C9C9C9C9C9C9C9C9C9C9CE4
:102440009C9C9C9C9C9C9C9C9C9C9C6C747C848C6C
:102450009400029844F69931C0F60001FDF796FE0B
:102460007FE0029844F6C131C0F60001FDF78EFE10
:1024700077E0029844F6AD31C0F60001FDF786FE24
:102480006FE0029844F6D531C0F60001FDF77EFEFC
:1024900067E0029844F6A331C0F60001FDF776FE2E
:1024A0005FE0029844F6CB31C0F60001FDF76EFE06
:1024B00057E0029844F6B731C0F60001FDF766FE1A
:1024C0004FE0029844F6DF31C0F60001FDF75EFEF2
:1024D00047E0029844F69E31C0F60001FDF756FE33
:1024E0003FE0029844F6C631C0F60001FDF74EFE0B
:1024F00037E0029844F6B231C0F60001FDF746FE1F
:102500002FE0029844F6DA31C0F60001FDF73EFEF6
:1025100027E0029844F6A831C0F60001FDF736FE28
:102520001FE0029844F6D031C0F60001FDF72EFE00
:1025300017E0029844F6BC31C0F60001FDF726FE14
:102540000FE0029844F6E431C0F60001FDF71EFEEC
:1025500007E0029844F68931C0F60001FDF729FE34
:10256000FFE79DF8070001308DF8070040E704B051
:1025700080BD000082B0009000980068406900F4BF
:1025800080610120B0EB912F19D1FFE7009801681D
:102590006FF480604861009904200864009900206D
:1025A00008630099202081F83D00FFE70099002092
:1025B00081F83C00FFE701208DF8070003E00020D0
:1025C0008DF80700FFE79DF8070002B07047000094
:1025D00080B588B00690ADF8161004920393069863
:1025E000C06A029006980168086840F4806008603C
:1025F0000298042809D0FFE70298012805D0FFE7D8
:10260000029810F5803F07D1FFE706980168086837
:1026100040F4807008600CE00698006B112807D128
:10262000FFE706980168086840F480700860FFE7DB
:10263000FFE70698049B03996A4611604FF0011169
:10264000002200F073F920B1FFE703208DF81F008E
:1026500091E006980069B0F5804F08D1FFE79DF83A
:10266000160040F0010006990968086168E0BDF8AD
:10267000160000F44070C009F0300699096808613E
:102680000698049A039B0821C0F2010100F0ACF9FE
:1026900068B1FFE70698006C042804D1FFE7012029
:1026A0008DF81F0067E003208DF81F0063E09DF8A0
:1026B00016000699096808610698049A039B02218E
:1026C000C0F2010100F090F968B1FFE70698006CD4
:1026D000042804D1FFE701208DF81F004BE0032000
:1026E0008DF81F0047E0FFE7002001900698006882
:1026F0004069019006980068806901900198FFE7A1
:1027000006980168086840F4807008600698049B89
:1027100003996A4611604FF00111002200F006F99A
:1027200020B1FFE703208DF81F0024E0BDF816005C
:1027300000F44070C009F130069909680861FFE7AC
:102740000698049A039B0221C0F2010100F04CF9A3
:1027500068B1FFE70698006C042804D1FFE7012068
:102760008DF81F0007E003208DF81F0003E0002014
:102770008DF81F00FFE79DF81F0008B080BD000026
:1027800080B588B00690ADF81610049203930698B1
:10279000C06A02900298042809D0FFE70298012835
:1027A00005D0FFE7029810F5803F07D1FFE70698B4
:1027B0000168086840F4807008600CE00698006BBF
:1027C000122807D1FFE706980168086840F4807076
:1027D0000860FFE7FFE70698049B03996A461160CB
:1027E0004FF00111002200F0A1F820B1FFE7032013
:1027F0008DF81F004EE006980069B0F5804F08D1B3
:10280000FFE7BDF8160000F0FE00069909680861B0
:1028100025E0BDF8160000F44070C009F0300699BC
:10282000096808610698049A039B0821C0F2010117
:1028300000F0DAF868B1FFE70698006C042804D1CC
:10284000FFE701208DF81F0024E003208DF81F0012
:1028500020E09DF81600069909680861FFE70698D0
:10286000049A039B0221C0F2010100F0BDF868B197
:10287000FFE70698006C042804D1FFE701208DF8DB
:102880001F0007E003208DF81F0003E000208DF8F3
:102890001F00FFE79DF81F0008B080BD80B584B021
:1028A000029001910092FFE702980068406900F0F1
:1028B00004010020B0EB910F30D1FFE70298FFF741
:1028C00059FE20B1FFE701208DF80F002AE00198A2
:1028D000013010B3FFE7019840B1FFE7FEF7A6F91A
:1028E0000099401A0199884216D9FFE70299086CAD
:1028F00040F020000864029900200863029920201B
:1029000081F83D00FFE70299002081F83C00FFE7D5
:1029100003208DF80F0005E0FFE7C5E700208DF8E4
:102920000F00FFE79DF80F0004B080BD80B586B0B2
:10293000DDF820C0049003918DF80B200193FFE790
:102940009DF80E0001280CD1FFE70498006840694B
:10295000BDF80C100840401AB0FA80F04009009011
:102960000BE0049800688069BDF80C100840401A1C
:10297000B0FA80F040090090FFE70098002818BFE7
:1029800001209DF80B10884225D1FFE70198013006
:1029900000B3FFE7019840B1FFE7FEF747F9089958
:1029A000401A0199884214D9FFE70499002008636E
:1029B000049A202182F83D10049981F83E00FFE737
:1029C0000499002081F83C00FFE703208DF81700F0
:1029D00005E0FFE7B4E700208DF81700FFE79DF85A
:1029E000170006B080BD000080B586B0049003914A
:1029F00002920193FFE79DF80E0001280CD1FFE73A
:102A0000049800684069BDF80C100840401AB0FAFC
:102A100080F0400900900BE0049800688069BDF8E0
:102A20000C100840401AB0FA80F040090090FFE70F
:102A3000009800284BD1FFE704980068406900F433
:102A400080610120B0EB912F1FD1FFE7049801684E
:102A5000086840F400700860049801686FF48060B2
:102A600048610499042008640499002008630499CB
:102A7000202081F83D00FFE70499002081F83C0008
:102A8000FFE701208DF8170025E002980130E8B13A
:102A9000FFE7029840B1FFE7FEF7C8F80199401A36
:102AA0000299884211D9FFE704990020086304992C
:102AB000202081F83D00FFE70499002081F83C00C8
:102AC000FFE703208DF8170005E0FFE793E70020FC
:102AD0008DF81700FFE79DF8170006B080BD0000D5
:102AE00080B584B0029001910092FFE702980068DF
:102AF000406900F040010020B0EB911F41D1FFE799
:102B000002980068406900F010010120B0EB111F2D
:102B100018D1FFE7029801686FF010004861029930
:102B200000200864029908630299202081F83D0082
:102B3000FFE70299002081F83C00FFE701208DF8B3
:102B40000F0022E0019840B1FFE7FEF76FF800990F
:102B5000401A0199884213D9FFE70299086C40F0A6
:102B6000200008640299202081F83D00FFE70299C7
:102B7000002081F83C00FFE703208DF80F0004E0FF
:102B8000B4E700208DF80F00FFE79DF80F0004B0B8
:102B900080BD000080B584B0029001910092FFE7F3
:102BA000029800684069C1B20020B0EBD11F30D15B
:102BB000FFE70298FFF7DEFC20B1FFE701208DF868
:102BC0000F002AE00198013010B3FFE7019840B1EF
:102BD000FFE7FEF72BF80099401A0199884216D9B1
:102BE000FFE70299086C40F0200008640299002079
:102BF00008630299202081F83D00FFE70299002038
:102C000081F83C00FFE703208DF80F0005E0FFE7A7
:102C1000C6E700208DF80F00FFE79DF80F0004B015
:102C200080BD000080B58AB0002009900890079010
:102C30000690FFE741F21800C4F20200016841F07B
:102C400010010160006800F0100005900598FFE792
:102C5000FFE741F21800C4F20200016841F00401EC
:102C60000160006800F0040004900498FFE7FFE7AB
:102C700041F21800C4F20200016841F0080101604D
:102C8000006800F0080003900398FFE740F600405A
:102C9000C4F2010002902021009101220192FDF76F
:102CA000ADFF009A019902980692079100210891C0
:102CB0000321099106A9FDF7F3FD0AB080BD0000CC
:102CC00080B582B040F21000C2F20000019045F2DF
:102CD0000041C4F20001016048F2A061C0F20101AC
:102CE000416000218160C1604FF480420261416116
:102CF0008161C1610162FDF79FFF18B1FFE7FDF738
:102D0000ABFDFFE702B080BD80B582B040F2640049
:102D1000C2F20000019043F60001C4F2010101601B
:102D20004FF4E131416000218160C16001610C22FA
:102D300042618161C161FFF707FA18B1FFE7FDF752
:102D40008BFDFFE702B080BDFFE7FEE770470000A4
:102D500088B0079006910592079800F0070004904C
:102D60000498C0F10700052803D3FFE70420019071
:102D700004E00498C0F107000190FFE70198039078
:102D800004980430062803D8FFE70020009003E0F1
:102D9000049803380090FFE7009802900698039982
:102DA000012202FA01F101390840029B984005997D
:102DB0009A40013A1140084308B070474EF60C5053
:102DC000CEF200000068C0F30220704782B08DF898
:102DD000070000919DF90700B0F1FF3F0CDCFFE711
:102DE000009800019DF8071001F00F014EF61452F3
:102DF000CEF20002885409E0009800019DF9071006
:102E00004EF20042CEF200028854FFE702B0704753
:102E100083B00290029800F0070000904EF60C512B
:102E2000CEF200010868019001984FF6FF021040B1
:102E300001900198009A40EA02200022C0F2FA5262
:102E4000104301900198086003B07047704700007C
:102E500082B00190019840F20401C2F200010968B9
:102E6000C90844F6D352C1F26202A1FB02218909CA
:102E700048430090FFE700BFFFE70098411E009124
:102E80000028F8D1FFE702B070470000704700004B
:102E900080B582B0009000980138B0F1807F03D3F4
:102EA000FFE70120019019E0009801384EF214016B
:102EB000CEF2000108604FF0FF300F21FFF786FFD0
:102EC0004EF21801CEF20001002008604EF210020E
:102ED000CEF20002072111600190FFE7019802B0D5
:102EE00080BD000080B5FEF763FB80BD80B590B06B
:102EF00006A800902821FDF73EF9009800230593CD
:102F00000493039302930193012206924FF48031BC
:102F1000079108930A9202220D920E914FF4E0114C
:102F20000F91FEF7F1FD18B1FFE7FDF795FCFFE704
:102F30000F20019002210291002003904FF4806243
:102F40000492059001A8FEF7E3FB18B1FFE7FDF737
:102F500083FCFFE710B080BD41F20002C4F2020220
:102F6000106840F00100106041F20401C4F2020157
:102F700008680023CFF6FF031840086010684FF67A
:102F8000FF73CFF6F66318401060106820F48020BD
:102F90001060086820F4FE00086041F20801C4F2E5
:102FA00002014FF41F0008604EF60851CEF20001F6
:102FB0004FF0006008607047B0B590B00F900020EF
:102FC0000E900F980068006920F440500F9A116825
:102FD000D268104308610F9988680A6949691043EB
:102FE00001430E9808430E900F980068C06841F2A4
:102FF0000C6188430E9908430F990968C8600F98BF
:103000000068406920F440700F9A1168926910437B
:1030100048610F98006843F60001C4F2010188423C
:103020006AD1FFE7FEF7ECFC1921099148430F999B
:1030300049688900B0FBF1F048F21F51C5F2EB116D
:103040000B91A0FB01016FF00F0000EA5100089006
:10305000FEF7D6FC099948430F9949688900B0FBEF
:10306000F1F00790FEF7CCFCDDF81CC0099B0B9A31
:103070000146089859430F9B5B689B00B1FBF3F135
:10308000A1FB0231490964230C9301FB13C33221D4
:103090000A9101EB0311A1FB0212F02101EA521186
:1030A00008440D90FEF7ACFC099948430F99496814
:1030B0008900B0FBF1F4FEF7A3FCDDF824C00A9A06
:1030C0000B9BDDF830E001460D9801FB0CFC0F9DD9
:1030D00029686D68AD00BCFBF5FCACFB035C4FEAF6
:1030E0005C1C0CFB1E4C02EB0C12A2FB0332C2F365
:1030F00043121044886069E0FEF770FC19210291C8
:1031000048430F9949688900B0FBF1F048F21F511C
:10311000C5F2EB110491A0FB01016FF00F0000EA72
:1031200051000190FEF75AFC029948430F994968F3
:103130008900B0FBF1F00090FEF750FCDDF800C014
:10314000029B049A0146019859430F9B5B689B00C0
:10315000B1FBF3F1A1FB023149096423059301FBA3
:1031600013C33221039101EB0311A1FB0212F021E1
:1031700001EA521108440690FEF730FC02994843D8
:103180000F9949688900B0FBF1F4FEF727FCDDF8E0
:1031900008C0039A049BDDF814E00146069801FB81
:1031A0000CFC0F9D29686D68AD00BCFBF5FCACFB09
:1031B000035C4FEA5C1C0CFB1E4C02EB0C12A2FBE6
:1031C0000332C2F3431210448860FFE710B0B0BD71
:1031D00080B586B0DDF820C0049003918DF80B20F7
:1031E0000193FFE704980068006803990840401ABB
:1031F000B0FA80F040099DF80B1088422ED1FFE70D
:103200000898013048B3FFE7089840B1FFE7FDF7A1
:103210000DFD0199401A089988421DD9FFE70498CD
:103220000168C86820F4D070C860049801684869D3
:1032300020F0010048610499202081F839000499A8
:1032400081F83A00FFE70499002081F83800FFE791
:1032500003208DF8170005E0FFE7C3E700208DF895
:103260001700FFE79DF8170006B080BDFFE7FEE7F7
:1032700081B000208DF80300FFE79DF803000428CB
:103280001FDCFFE79DF8032040F2AA00C2F2000015
:10329000002181549DF80320805C40F2A501C2F218
:1032A000000188549DF8032040F2B001C2F20001F1
:1032B00001208854FFE79DF8030001308DF80300DA
:1032C000DBE701B07047000087B08DF81A00059168
:1032D00000208DF813008DF812009DF81A000146A9
:1032E000009148B1FFE70098012800F08780FFE7D0
:1032F0000098022855D0AFE000200390FFE7039824
:1033000004280EDCFFE79DF812000599039A31F8B6
:10331000121008448DF81200FFE703980130039063
:10332000EDE79DF8120020B9FFE700208DF81300AB
:1033300011E09DF81200052804D1FFE701208DF867
:10334000130007E040F2AF00C2F2000000788DF8F1
:103350001300FFE7FFE740F2AF00C2F20000007881
:103360009DF81310884208D0FFE79DF8130040F243
:10337000AF01C2F200010870FFE740F2A400C2F200
:1033800000000078052807DBFFE740F2A401C2F245
:10339000000100200870FFE79DF813008DF81B0066
:1033A0005EE040F2AF00C2F20000007838B9FFE7FB
:1033B00040F2AF01C2F2000101200870FFE70020D7
:1033C0000290FFE70298042813DCFFE7029A40F21C
:1033D000AA00C2F2000000218154029A805C40F2EF
:1033E000A501C2F200018854FFE702980130029063
:1033F000E8E79DF813008DF81B0031E040F2AF00C4
:10340000C2F200000078012807D1FFE740F2AF01C7
:10341000C2F2000100200870FFE700200190FFE7E2
:103420000198042813DCFFE7019A40F2AA00C2F2D7
:10343000000001218154019A805C40F2A501C2F292
:1034400000018854FFE7019801300190E8E79DF8FA
:1034500013008DF81B0003E000208DF81B00FFE730
:103460009DF81B0007B0704780B59EB000201D90EE
:10347000ADF872000DF171011B911CA91A91ADF804
:103480006600ADF86400FEF7A1F8FFF72FFDFFF727
:10349000C9FBFFF715FCFFF737FCFFE700200A9098
:1034A0008DF8600017901690159014908DF84C00D0
:1034B0001290ADF86400ADF8440010900F9069468A
:1034C0004FF4FA700690086040F21000C2F200005B
:1034D000079040F20802C2F200024621089101233F
:1034E000FDF7F6FEB420FDF7B9F9069A079808999A
:1034F0006B461A600DF172020223FDF7BDFC9DF8C8
:1035000072008DF871009DF873008DF870009DF8C1
:1035100071109DF8700040EA0120ADF86600BDF81A
:10352000662044F68431C0F6000112A8099000F02C
:103530009FF8099814A9FEF753FF0A988DF83B00ED
:10354000FFE79DF83B000F2833DCFFE79DF83B10B9
:1035500014A8401AC07B01460591302820D0FFE70F
:10356000059831281DD1FFE7BDF86400FCF7D1FEB6
:10357000039004919DF83B00FCF7DCFE02460B46ED
:1035800000204FF0804100F085FD024603980B4675
:103590000499FCF717FEFCF7DAFEADF8640001E0D1
:1035A000FFE7FFE7FFE79DF83B0001308DF83B00A8
:1035B000C7E7BDF8642044F67831C0F600010DF18C
:1035C0002D0000F055F8FFF753FE00208DF82C0079
:1035D000FFE79DF82C0004281EDCFFE7BDF866001D
:1035E000B0F5617F07DCFFE79DF82C200FA90120D3
:1035F00021F8120006E09DF82C200FA9002021F8E8
:103600001200FFE7FA20FDF729F9FFE79DF82C00EB
:1036100001308DF82C00DCE700200FA9FFF754FEE5
:10362000012809D1FFE740F60040C4F20100202143
:103630000022FDF7E3FA08E040F60040C4F2010082
:1036400020210122FDF7DAFAFFE70DF12D000290AB
:10365000FCF7A8FD029982B240F26400C2F20000B9
:103660004FF4FA73FEF70AFE6420FDF7F7F815E74A
:103670000FB4084B10B504A902AA039800F06EF924
:10368000044602A9002000F000FD204610BC5DF8B1
:1036900014FB00008B400008490050EAC12018BF0D
:1036A00004204A0D18BF40F0010040F2FF72B2EB57
:1036B000515F08BF40F00200012808BF0520704795
:1036C0002DE9F0414F1E00EBC7010446D1E900018E
:1036D00015461E4637F006020DD02A463346FCF743
:1036E0002AFF7F1E04EBC703D3E90023FCF76AFD22
:1036F00037F00602F1D1022F25D0042F13D0062F68
:1037000018BFBDE8F0812A463346FCF714FFD4E920
:103710000A23FCF757FD2A463346FCF70CFFD4E991
:103720000823FCF74FFD2A463346FCF704FFD4E993
:103730000623FCF747FD2A463346FCF7FCFED4E996
:103740000423FCF73FFD2A463346FCF7F4FED4E998
:103750000223FCF737FD2A463346FCF7ECFED4E99A
:103760000023BDE8F041FCF72DBD00000022134608
:1037700010460149FCF751BF0000F03FFCF722BDA5
:103780000022134610461146FCF747BF40F20132B3
:1037900000204FF0E041FCF7AFBF0000024A0020DC
:1037A0001107FCF7A9BF000001FDFFFF02E008C8F8
:1037B000121F08C1002AFAD170477047002001E0AB
:1037C00001C1121F002AFBD17047000001490860A7
:1037D00070470000000000202DE9FF5F82B000214B
:1037E000DDE90430020DDDF840B0034318D044F6A3
:1037F0001050A2F2FF3242431514119801281FD035
:10380000A5EB0B00401C5FEA000A4FF000064E4F8C
:10381000DFF83891B046504615D5CAF1000413E0E0
:10382000119801244AA3012801D16FEA0B010298E3
:10383000119AC0E90031C0E9024206B0BDE8F09F2C
:10384000CBF10000DFE704460021404A491842EB73
:103850000450CDE9001012E0E00707D032463B46A5
:1038600040464946FCF767FE8046894632463B465D
:1038700010461946FCF75FFE06460F466410002C02
:10388000EAD1DDE90401DDE90023BAF1000F06DA2F
:10389000FCF751FE42464B46FCF74DFE05E0FCF7B7
:1038A000BCFE42464B46FCF7B8FE04460E460022DC
:1038B000284BFCF751FF03D84FF0FF30014607E0DB
:1038C0000022254B20463146FCF77CFCFCF72BFF01
:1038D000102409E0002C0ADB0A220023FCF76CFD0F
:1038E000039B30321A55641E50EA0102F2D1641C67
:1038F000039AC4F111031444119A012A03D001223E
:1039000008430DD10AE0084304D000204FF0110B0A
:10391000119072E7A3EB0B056D1E0DE05B4504DD16
:103920004FF0000205F1010504E003DA4FF0000258
:10393000A5F10105002AECD002981199C0E90231E5
:10394000C0E9004579E70000000014400000F03FA6
:10395000300000000000F0430000E03F2DE9FF4F81
:1039600095B09B468946064600250FE2252877D16B
:1039700000242746F84A0121059400E0044316F884
:10398000013F203B01FA03F01042F7D130782A289A
:1039900011D06FF02F033078A0F13002092A16D829
:1039A000059A44F0020402EB820203EB4202104447
:1039B000761C0590EFE759F8042B0592002A03DAEC
:1039C000504244F40054059044F00204761C3078D0
:1039D0002E2816D116F8010F44F004042A280DD021
:1039E0006FF02F023078A0F13003092B09D807EBD4
:1039F000870302EB4303C718761CF3E759F8047BEF
:103A0000761C30786C280FD006DC4C2817D068283C
:103A10000DD06A2814D104E0742810D07A280FD170
:103A20000DE044F400140AE044F4801401E044F48E
:103A300040147278824202D104F58014761C761C00
:103A4000307866280BD013DC582877D009DC0028A2
:103A500075D04528F6D04628F4D047281AD19DE1E4
:103A600018E0632835D0642879D0652812D195E113
:103A7000702873D008DC6728F1D069286FD06E28D1
:103A80000DD06F2806D1B5E073282CD0752875D0DD
:103A9000782874D05A46179990476D1C75E1C4F385
:103AA0000250022809D003280DD0D9F800100428AC
:103AB0000DD00D6009F1040967E1D9F80010EA178B
:103AC000C1E90052F6E7D9F800100D80F2E70D7059
:103AD000F0E719F8041B8DF8001000208DF80100A4
:103AE000EA46012003E059F804AB4FF0FF306107CC
:103AF0004FF0000102D40DE008F101018846B942FF
:103B00000FDA8045F8DB1AF808100029F4D108E034
:103B100008F1010188468142FADB1AF808100029F1
:103B2000F6D105985B46A0EB080721463846179A60
:103B300000F094FA284400EB080507E04DE029E185
:103B40000DE01AF8010B5A4617999047B8F1010891
:103B5000F7D25B4621463846179A13E142E00A2223
:103B60000092C4F302524FF0000A022A08D059F81A
:103B700004CB032A4FEAEC710AD00DE029E02AE0D9
:103B800009F1070121F00702F2E802C1914609E0BC
:103B90000FFA8CFC4FEAEC71042A03D14FFA8CFC2B
:103BA0004FEAEC71002907DA0A460021DCF1000C2B
:103BB00061EB02012D2202E0220504D52B228DF8B3
:103BC0000420012203E0E20701D02022F7E790461B
:103BD00059E00A2102E010220DE010214FF0000A06
:103BE00000910BE010224FF0000A44F00404082773
:103BF000009203E008224FF0000A0092C4F3025240
:103C0000022A05D059F804CB0021032A08D009E084
:103C100009F1070121F00702F2E802C1914605E02F
:103C20001FFA8CFC042A01D10CF0FF0C4FF00008A5
:103C3000220728D5702806D0009B83F0100353EA92
:103C40000A0305D00EE040228DF80420012208E08E
:103C50005CEA010206D030228DF804208DF80500C0
:103C600002229046009B83F0080353EA0A030AD11C
:103C70005CEA010201D1620705D530228DF80420EB
:103C80004FF001087F1E582804D034A003900EA8DE
:103C900002900DE036A0F9E753466046009AFCF723
:103CA0008BFB84460398825C0298401E029002704F
:103CB0005CEA0100F0D1029806A9081A00F1200A76
:103CC000600702D524F4803400E00127574502DD67
:103CD000A7EB0A0000E0002000EB0A010090059825
:103CE0004144401A0590E00306D45B462146179AEA
:103CF000059800F0B3F90544002706E001A85A46EC
:103D0000C05D179990476D1C7F1C4745F6DBE003AB
:103D10000CD55B462146179A059800F09FF905449B
:103D200004E030205A46179990476D1C0099481EB0
:103D300000900029F5DC08E0029802995A460078C4
:103D4000491C0291179990476D1CBAF10001AAF124
:103D5000010AF1DC65E1000009280100303132334D
:103D600034353637383961626364656600000000B7
:103D700030313233343536373839414243444546A1
:103D80000000000000F058F90544761C3078002847
:103D90007FF4ECAD19B02846BDE8F08F620700D47F
:103DA000062709F1070222F0070CFCE80223E1468E
:103DB00003F000485FEA080C02D00FF2702C0DE00F
:103DC0005FEA045C02D50FF2682C07E05FEAC47C6E
:103DD00002D00FF2602C01E0AFF2700C4FF0FF3810
:103DE00023F00043CDF850C065280CD006DC4528F0
:103DF00009D046281DD047283DD13DE0662818D07F
:103E000067287ED138E00021112F01DB112000E06E
:103E1000781CCDE9000106A90EA8FFF7DDFCDDE95D
:103E20000F010E9A03910021009207F1010A0491FB
:103E30004DE04FF000400097CDE9011006A90EA813
:103E4000FFF7CAFCDDE90F0203920E9B11990022D5
:103E5000DDF80CA00093049211B9791C00EB010A63
:103E6000B7EB0A0004D4C0F1FF3007F1010A049057
:103E7000AAEB0700019044E0012F00DA012700219E
:103E8000112F01DD112000E03846CDE9000106A91F
:103E90000EA8FFF7A1FCDDE90F010E9A03910021A6
:103EA00004910092BA4621070CD40399514500DAD7
:103EB0008A46BAF1010F05DD009AAAF10101515CB1
:103EC000302908D0B84202DA10F1040F06DA0121D5
:103ED000CDE9011015E0AAF10101E9E7002805DCB0
:103EE000049901440491AAEB000102E0411C5145F0
:103EF00000DD8A460499401A401C01904FF00040B2
:103F00000290200704D40198504501DBCDF80480CD
:103F100000208DF84F0002980DF14F07B0F1004FCF
:103F200025D02B200E9002984FF0020800280CDAC2
:103F3000404202902D200E9007E00A210298FCF7E3
:103F400025FA3031029007F8011DB8F10001A8F1FF
:103F50000108F2DC02980028EFD1791E0E98087053
:103F6000307800F0200040F0450007F8020D12A85C
:103F7000C01B00F107081498007800B1012000EB85
:103F80000A01019801EBE07105984144401A401E76
:103F90000590E00306D45B462146179A059800F089
:103FA0005DF805441498007818B15A46179990475F
:103FB0006D1CE00324D55B462146179A059800F056
:103FC0004DF805441CE00498002807DBDDE90301F7
:103FD000884203DD0098405C179901E01799302072
:103FE0005A469047049805F10105401C0490019839
:103FF000401E019004D12E205A46179990476D1CFF
:10400000BAF10001AAF1010ADDDC05E017F8010BA5
:104010005A46179990476D1CB8F10001A8F10108A4
:10402000F4DC5B462146179A0598ABE62D000000AC
:104030002B000000200000002DE9F041044600257F
:104040001E461746880404D405E039462020B047B0
:104050006D1C641EF9D52846BDE8F0812DE9F041BC
:10406000044600251E469046C80301D5302700E0CF
:104070002027880404D505E041463846B0476D1C2A
:10408000641EF9D52846BDE8F0810A68531C0B6010
:10409000107070472DE9F04D1D460C4694B0174640
:1040A00021F0004123F00043002814BF4FF0010C21
:1040B0004FF0000C0CEB440CFB4A0CEB02064FEAF1
:1040C000620C66452BD33E0018BF012606EB450661
:1040D0001644F64A964222D3F54A53EA070C02D018
:1040E000944205D148B914B000201146BDE8F08DC6
:1040F000002808BF4FF0000C01D04FF0010C0CEB72
:10410000440212F5001F0AD8002F14BF4FF0010C13
:104110004FF0000C0CEB450212F5001F07D914B04C
:104120003A462B462146BDE8F04DFFF727BB00225B
:10413000DFF880A3002CB8BF534526DADFF878C338
:104140006345A8BF022220DADFF864C39C451CDC6B
:10415000DFF868C30CEB235CBCF1140F08DDCCF175
:10416000340627FA06FC0CFA06F6BE420DD108E02A
:104170005FB9CCF1140623FA06FC0CFA06F69E424F
:1041800003D10CF00102C2F1020251EA000C19D174
:10419000002D17DA002C18BF022A01D0012A07D0FF
:1041A0000220FFF713FB14B0BDE8F04DFFF7DEBAB5
:1041B0000220FFF70BFBFFF7D9FA14B081F00041A2
:1041C000BDE8F08DB7F1000C6CD1534525D104F159
:1041D000804212F5801201BF00280020B44914B0BB
:1041E00008BFBDE8F08DB248884207DC002DA1BFB2
:1041F0006046294614B0BDE8F08D07E0002DBFBF32
:10420000604685F0004114B0BDE8F08DAC497944BA
:10421000D1E9000114B0BDE8F08DDFF894C2634528
:1042200025D1002D1FDA19B1514512D1D8B909E0B5
:10423000002840F0F6829F4A214614B062F31E0126
:10424000BDE8F08D0020214614B060F31E01BDE8EA
:10425000F08D08DA14B02346BDE8F04D0246002088
:104260006146FCF7DAB914B02146BDE8F08D51453E
:1042700018DAB5F1804F0DD0A5F1005CBCF1FF5C00
:1042800010D1B4F1000C0DDB14B06146BDE8F04D67
:1042900000F0F6BB234614B00246BDE8F04D1946C7
:1042A000FCF749B9060024F0004C3BD1D9B1514587
:1042B00033D1002C06DD002DA1BF0020514614B0E3
:1042C000BDE8F08D002C01DD002D1BDB002C13DA86
:1042D000002D11DB012A4FF0000014BF7549794908
:1042E00014B0BDE8F08D022A18BF002C0AD0012AB4
:1042F00008D1002C06DA0AE0002CB8BF002D11DA34
:10430000012A04D0002014B00146BDE8F08D14B09D
:1043100000204FF00041BDE8F08DA1F14050B0F118
:104320007F601AD0012000EBE47050EA020421D033
:104330005F4C521E4FF0000B104304BF4FF0000BB8
:10434000614C624883427DDD614A6248934229DDC7
:10435000884217DB002D2FDB41E0002C00DA4AB148
:10436000022A0CBF01204FF0FF3014B0BDE8F04D21
:10437000FBF7CFBF0120FFF729FA14B0BDE8F04DDD
:10438000FFF7FEB94A4A8A420CDC002D14DC0220F9
:10439000FFF71CFAFFF702FA61F31E0414B021467E
:1043A000BDE8F08D814202DA002D18DA04E0404BBE
:1043B000994220DD002D12DD0220FFF707FAFFF7FA
:1043C000E5F905460E460022534658462146FCF7BD
:1043D000B2F814B066F31E012846BDE8F08D022045
:1043E000FFF7F4F9FFF7DAF90A46214614B062F351
:1043F0001E01BDE8F08D002230466146FBF783FFC9
:10440000064688466FF00102FCF776F94FF0553208
:10441000314BFBF77BFF32464346FCF78CF800221A
:104420002E4BFBF773FF8A463246434602901046F6
:104430001946FCF780F85346029AFCF77CF882464E
:10444000324600E054E0059143464FF0C040244915
:10445000FCF771F8CDE90C01224A214B5046059931
:10446000FCF769F8824601911F4A204B30464146CD
:10447000FCF761F85246019BFBF745FF82460B466D
:1044800002460991DDE90C01FBF79CFEDDE90C23F6
:10449000002688463046FBF736FF5246099BFBF75D
:1044A00035FF024600F07EB9FFFF1F00FFFF0F003F
:1044B0000000F03F0000F07F0000404301FCFFFFE0
:1044C000460900000000F0FF0000F0BF0000E041DE
:1044D0000000F043FFFFEF3F5555D53F0000E03FA0
:1044E0004715F73FFE822B6544DF5DF80BAE543E67
:1044F0000020B1F5801F07DA352230466146FCF70F
:10450000FBF806466FF0340000EB2150A0F2FF30BC
:104510000190C1F3130040F07F6141F040510291DE
:10452000FE498842D8BF002004DDFD498142C8BF52
:10453000012001DD0F9008E000200F900198401C41
:1045400001900298A0F5801002900299F5487844F5
:1045500005910F9900EBC1001290D0E9002330467D
:104560000599FBF7D0FECDE90C011298D0E90023A4
:1045700030460599FBF726FE02460B460020EA4925
:10458000FCF74BF80B46CDE908010246DDE90C01CA
:10459000FBF7D1FF0A90E5488A464FF000087844BF
:1045A0000299006810904FF0005040EA61010F98A6
:1045B00001EB804000F5002112981191D0E9002311
:1045C0001098FBF7A0FE3246059BFBF79FFE424684
:1045D0005346FBF7B0FFDDE9102306460391404642
:1045E0005146FBF7A8FFDDE90C23FBF78FFE3246AF
:1045F000039BFBF788FEDDE90823FBF79CFF039193
:104600000A9A1290534610461946FBF794FF064645
:104610000246C7480B46029106217844FFF750F83E
:10462000029B32460591089010461946FBF783FF1E
:10463000059B089AFBF77FFF0646099153464046C3
:1046400019460A9AFBF7BEFD039B129AFBF773FF0C
:104650003246099BFBF7B6FDCDE9080142465346B9
:1046600010461946FBF767FF02460B46029104907D
:104670000020B049FBF7A6FDDDE90823FBF7A2FD0A
:104680000E464246AB4B4046FBF73DFE029B049A6A
:10469000FBF739FEDDE90823FBF738FE42460491BB
:1046A0000290334610465146FBF745FFCDE90C0119
:1046B00053460A9A04990298FBF73DFF82460091FF
:1046C0003346424603991298FBF735FF5246009B4A
:1046D000FBF778FD82460B4602460991DDE90C01A5
:1046E000FBF770FDDDE90C23002688463046FBF71A
:1046F0000AFE5246099BFBF709FECDE90801434635
:1047000032464FF060408C49FBF715FF824604911A
:10471000DDE90801894A884BFBF70DFF0291009003
:104720004346324686488749FBF705FF029B009ABD
:10473000FBF748FD844B7B440F9A03EBC203D3E99C
:104740000023FBF73FFD009002910198FBF7E1FD8C
:104750000E9003915046029B009A0499FBF732FD9C
:104760007A4A7A440F9B02EBC3030993D3E90023EF
:10477000FBF728FD039B0E9AFBF724FD8846304685
:10478000039B0E9AFBF7BFFD099BD3E90023FBF7C0
:10479000BAFD5246049BFBF7B6FD029B009AFBF75D
:1047A000B5FD024600200B46029038462946FBF72D
:1047B000C2FE824603912B4638461946029AFBF701
:1047C000A2FD32464346FBF7B6FE5246039BFBF77B
:1047D000F9FC07468A463246434629460298FBF7CB
:1047E000AAFE05460E463A465346FBF7EBFC584AEE
:1047F0008846914221DBA8EB020353EA000210D164
:104800002A463346FBF77FFDCDE90310514A524B50
:1048100038465146FBF7D6FCDDE90332FBF79CFF37
:1048200021D20220FEF7D2FFFEF7B0FF0A46214652
:1048300014B062F31E01BDE8F08D484B28F0004231
:104840009A4210D3464A08EB020353EA00027FF46F
:10485000C6AD2A463346FBF756FD3A465346FBF7AC
:104860007BFF7FF6BCAD0022019228F000403D495D
:104870003D4A01EB2051824223DA481C4FF480115B
:1048800021FA00F04044394AC0F30A517A44384BC7
:10489000A1F2FF31CB4020EA0303C0F3130040F440
:1048A0008010C1F11401C84012680190B8F1000FE6
:1048B000BCBF4042019028463146FBF724FD054627
:1048C0000E462A46334638465146FBF77BFC4FF0EE
:1048D00000084246274B40460391FBF72CFECDE9EA
:1048E0000C01254A254B40460399FBF724FE029113
:1048F00000902A46334640460399FBF704FD3A46AA
:104900005346FBF703FD1E4A1E4BFBF714FE029BAA
:10491000009AFBF757FC0746884635E08E9803005F
:104920007AB60B007E0500000000F03FB6050000DF
:10493000E20400000000084009C7EE3FFD033ADC36
:10494000F5015B14E02F3EBEB60300007A030000C1
:1049500000009040FE822B654715973C00CC9040AC
:1049600000346F3F01FCFFFF0000E03FC802000081
:10497000FFFF0F00432EE63F396CA80C615C20BEA0
:10498000EF39FAFE422EE63F02460B46DDE90C0106
:10499000FBF718FCDDE90C2305460E46FBF7B3FCDC
:1049A0003A464346FBF7B2FC07462A463346059192
:1049B00010461946FBF7BFFD824602462E48884640
:1049C0000B4605217844FEF77BFE52464346FBF733
:1049D000B2FD2A463346FBF799FC80468A463A46A2
:1049E00028463146059BFBF7A6FD3A46059BFBF79B
:1049F000E9FB0591009000224FF08043404651466C
:104A0000FBF781FC07460391424653462846314650
:104A1000FBF791FD3A46039BFBF7FFFD059B009AD0
:104A2000FBF771FC2A463346FBF76DFC0022134B63
:104A3000FBF76CFC054601980E4601EB005108158A
:104A4000002810DC28463146019AFBF755FEFEF798
:104A500023FE042808BFFEF7A1FE28463146019A2E
:104A6000FBF74AFE05460B4614B02A465846214637
:104A7000BDE8F04DFBF75FBD680100000000F03FAE
:104A80002DE9F04106460F46FBF790FE041E0D4649
:104A900018BF0120284320F00040C0F17F6000F1E2
:104AA000E040C00F0ED0301C18BF0120384320F06A
:104AB0000040C0F17F6000F1E040C00F04BF012062
:104AC000FEF784FE20462946BDE8F0810000000084
:104AD000000000000000F03F000000000000F83F70
:104AE00000000000000000000000004003B8E23FAA
:104AF000000000000000000006D0CF43EBFD4C3E5C
:104B0000033333333333E33FFFAB6FDBB66DDB3F50
:104B10004D268F515555D53F01411DA96074D13F98
:104B200065DBC9934A86CD3FEF4E454A287ECA3F92
:104B30003E5555555555C53F93BDBE166CC166BF14
:104B40002CDE25AF6A56113FF16BD2C541BDBBBE0D
:104B5000D0A4BE726937663E00000000000000006D
:104B6000000000000000000001020304060708091D
:104B7000000000000102030425303464206C7578C5
:104B8000200D0A0025303478004572726F7220645F
:104B900065746563746564210030303030003130F5
:104BA0003030003031303000313130300030303191
:104BB000300031303130003031313000313131307E
:104BC00000303030310031303031003031303100A0
:104BD000313130310030303131003130313100305D
:104BE000313131003131313100000000104C00080A
:104BF0000000002010000000AC370008204C000826
:104C000010000020B0040000BC37000800000000C5
:104C10000000000000A24A04110001001000000082
:0400000508000131BD
:00000001FF
