:020000040800F2
:100000007804002045010008D70D0008A70C00085F
:10001000D50D0008B1010008A5110008000000007E
:100020000000000000000000000000004D1100086A
:10003000B301000800000000D90D00084F110008AE
:100040005F0100085F0100085F0100085F01000810
:100050005F0100085F0100085F0100085F01000800
:100060005F0100085F0100085F0100085F010008F0
:100070005F0100085F0100085F0100085F010008E0
:100080005F0100085F0100085F0100085F010008D0
:100090005F0100085F0100085F0100085F010008C0
:1000A0005F0100085F0100085F0100085F010008B0
:1000B0005F0100085F0100085F0100085F010008A0
:1000C0005F0100085F0100085F0100085F01000890
:1000D0005F0100085F0100085F0100085F01000880
:1000E0005F0100085F0100085F0100085F01000870
:1000F0005F0100085F0100085F0100085F01000860
:100100005F0100085F0100085F0100085F0100084F
:100110005F0100085F0100085F0100085F0100083F
:100120005F0100085F0100085F0100085F0100082F
:10013000DFF80CD000F02AF800480047A1180008AA
:10014000780400200648804706480047FEE7FEE79F
:10015000FEE7FEE7FEE7FEE7FEE7FEE7FEE7FEE777
:10016000A311000831010008D2B201E000F8012B10
:10017000491EFBD270470022F6E710B513460A4627
:1001800004461946FFF7F0FF204610BD064C074D08
:1001900006E0E06840F0010394E807009847103457
:1001A000AC42F6D3FFF7C8FFF81F0008182000087C
:1001B000FEE770472DE9F04110F8015B044617E0B7
:1001C000207800F099FF6078A41C00F0800730F0E0
:1001D000800604D03146204600F0A2FF34443FB1EF
:1001E00014F8010BFF2801D14FF4FA7000F006F863
:1001F0006D1EEDB2E4D2BDE8F081000070B504469A
:1002000000F018F90546601C02D004480078044448
:1002100000F010F9401BA042FAD370BD0C00002082
:100220002DE9F84FDFF8C8910024A9F1040B23460B
:100230000F2709F1040AABF1040ED1E00125A54016
:1002400006EA0502AA4276D1DFF8A8C14E68A6EBFD
:100250000C0866452BD00DDC032E34D005DC36B3FC
:10026000012E19D0022E2FD11BE0112E16D0122EE6
:100270002AD119E0B8F5881F19D006DCB8F5803FFF
:1002800015D0B8F5801F1FD111E0B8F5001F0ED0B2
:10029000B8F5041F18D10AE0CB6815E0CB681B1D28
:1002A00012E0CB6808330FE0CB680C330CE08B68AE
:1002B0002BB1012B4FF0080303D0456104E0042368
:1002C00002E0056100E00023FF2A01D8064601E0B4
:1002D00000F104064FEA840501D9A5F12005D6F8FE
:1002E000008007FA05FC28EA0C0803FA05F548EA3D
:1002F0000508C6F800804D68ED0070D53E4DAE692A
:1003000046F00106AE61AD6924F0030605F0010573
:1003100000953A4D06EB050CDCF80850A607360FA1
:1003200007FA06F825EA0805DFF8D480404503D12E
:100330004FF0000825E052E0DFF8C880404502D1C8
:100340004FF001081DE0DFF8C080404502D14FF0BA
:10035000020816E0DFF8B480404502D14FF00308F0
:100360000FE0DFF8AC80404502D14FF0040808E010
:10037000DFF8A080404502D14FF0050801E04FF0C2
:10038000060808FA06F848EA0508CCF808804D681F
:10039000D9F80060ED024D4601D5164300E09643C2
:1003A0002E604D68DAF80060AD02554601D516435F
:1003B00000E096432E604D68DBF80060AD035D46BB
:1003C00001D5164300E096432E604D68DEF80060CC
:1003D000ED03754601D5164300E096432E60641C7C
:1003E0000A681646E2407FF429AFBDE8F88F0000A6
:1003F00008040140000011100010024000000140FC
:1004000000080140000C01400010014000140140B0
:1004100000180140001C0140C26821EA02030A40A2
:1004200043EA0241016170470AB101617047090462
:10043000FBE7000001488068704700000C000020C6
:100440000248816802781144816070470C000020E6
:10045000074810B5016841F010010160032000F069
:1004600067F8002000F006F800F024F8002010BD26
:100470000020024070B50D4D04464FF47A71287883
:10048000B1FBF0F00A490968B1FBF0F000F0F7FBAE
:1004900048B9102C07D200222146501E00F028F83F
:1004A00000206C6070BD012070BD00000C000020B9
:1004B000180000200C4808B5816941F001018161F4
:1004C000816901F001010091C16941F08051C16170
:1004D000C06900F0805000900448416821F0E0615C
:1004E00041F00071416008BD001002400000014071
:1004F000F0B40E4B1B680C46C3F30223C3F107058F
:10050000042D00D90425191D072901D2002300E07C
:10051000DB1E012606FA05F1491E214099409E4046
:10052000761E16403143F0BC00F03DBE0CED00E0FD
:10053000064900F0070208684FF6FF03184040EA3A
:100540000220034A10430860704700000CED00E0F1
:100550000000FA052DE9F0470F46050061D0434E33
:10056000306800F00700B84209D2306820F0070078
:1005700038433060306800F00700B84251D1286835
:100580003B4C810712D5400703D5606840F4E0601A
:1005900060602878000703D5606840F460506060B0
:1005A0006068A96820F0F000084360602878C00700
:1005B00028D06868012810D02168022810D0890747
:1005C00000292EDA616821F0030101436160FFF721
:1005D00031FF804641F288390DE021688903EFE759
:1005E0008901EDE7FFF726FFA0EB0801494502D995
:1005F0000320BDE8F0876068696800F00C00B0EB8C
:10060000810FEFD1306800F00700B8420BD9306895
:1006100020F0070038433060306800F00700B8422F
:1006200001D00120E5E72878400705D56068E96832
:1006300020F4E060084360602878000706D5606811
:10064000296920F4605040EAC100606000F018F8A9
:100650006168084AC1F30311515CC840064908604B
:1006600006480068FFF706FF0020C2E700200240AE
:1006700000100240E61F00081800002010000020B3
:100680000E4A51680E4801F00C03042B11D0082BC0
:100690000FD10C48C1F38343C903C05C0AD551682C
:1006A000084AC1F34041921E515C054A5043B0FBD9
:1006B000F1F07047044948437047000000100240C1
:1006C00000127A00D61F000800093D002DE9F84FFE
:1006D000040070D02078C04DC00749D06868C0F3CE
:1006E0008100012807D06868C0F38100022809D181
:1006F0006868C00306D52868800339D5606800287B
:10070000E7D035E06068B0F5803F0BD010B1B0F5B0
:10071000A02F11D0286820F480302860286820F4A9
:10072000802002E0286840F480302860606890B142
:10073000FFF780FE06460AE0286840F48020286023
:10074000F0E700BFFFF776FE801B642873D82868A7
:100750008003F7D50CE0FFF76DFE064605E000BF0D
:10076000FFF768FE801B6428F0D828688003F7D460
:1007700020789A4E80074FF001094FF0000839D5D4
:10078000686810F00C0F07D06868C0F38100022879
:1007900009D16868C00306D42868800714D5206989
:1007A000012808D110E02069B0B1C6F80090FFF729
:1007B00041FE074605E00AE1FFF73CFEC01B0228A8
:1007C000C4D828688007F7D52868616920F0F80048
:1007D00040EAC10028600DE0C6F80080FFF72AFE5D
:1007E000074604E0FFF726FEC01B022823D828682E
:1007F0008007F7D4207800072CD57948A169D9B1B2
:10080000C0F80090FFF716FE074604E0FFF712FE5F
:10081000C01B02280FD8686A8007F7D571484FF4CB
:10082000FA510068B0FBF1F0009000BF0098411E43
:100830000091FAD20EE080E0C0F80080FFF7FAFDE8
:10084000074604E0FFF7F6FDC01B022875D8686A6A
:100850008007F7D42078400760D5E8690027C000FA
:1008600008D4E86940F08050E861E869012700F0A9
:10087000805000905C480168C90513D40168834624
:1008800041F480710160FFF7D5FD824606E000BFAC
:10089000FFF7D0FDA0EB0A0064284ED8DBF800007B
:1008A000C005F5D5E06801280AD008B1052813D0A5
:1008B000286A20F001002862286A20F0040002E083
:1008C000286A40F001002862E06841F2883B98B154
:1008D000FFF7B0FD82460BE0286A40F00400286272
:1008E000EEE700BFFFF7A6FDA0EB0A0159455AD875
:1008F000286A8007F6D50CE0FFF79CFD824605E0EC
:10090000FFF798FDA0EB0A0159454CD8286A8007EB
:10091000F6D41FB1E86920F08050E861E06988B33F
:100920006968C1F38101022944D00228C6F86080B9
:1009300004D0FFF77FFD044638E034E0FFF77AFD8E
:10094000074604E0FFF776FDC01B02282BD8286875
:100950008001F7D4206AB0F5803F05D16868A168AE
:1009600020F4003008436860D4E90801084369684E
:1009700021F4741108436860C6F86090FFF75AFDCF
:10098000044606E025E000BFFFF754FD001B0228E7
:1009900009D828688001F7D51BE000BFFFF74AFDA2
:1009A000001B022802D90320BDE8F88F28688001C7
:1009B000F4D40EE00128F7D06868226A00F4803190
:1009C000914204D1616A00F47010884201D0012084
:1009D000EAE70020E8E70000001002400000424281
:1009E00080044242180000200070004070B50400EE
:1009F00009D0606A002540B125616561A56294F85F
:100A0000510040B10CE0012070BD6068B0F5827FFC
:100A1000F4D0E561F2E784F85050204600F040F849
:100A2000022084F851002068016821F04001016033
:100A3000A088218900F4827001F404410843A1894F
:100A400001F400610843217C01F002010843217D8B
:100A500001F001010843218B01F400710843217F5B
:100A600001F03801084394F8201001F08001084398
:100A7000218D01F40051084321680860A069042118
:100A800001EA1040216848602068C16921F40061D2
:100A9000C1616565012084F85100002070BD00002F
:100AA00030B585B00024009401940294039400684A
:100AB0001449884223D11448816941F480518161ED
:100AC000816901F480510491816941F004018161DF
:100AD00080690E4D00F004000490A02000900220D8
:100AE00001900320039069462846FFF799FB4020B8
:100AF000CDE90004694628460294FFF791FB05B052
:100B000030BD0000003001400010024000080140EC
:100B10002DE9F84F044690F85000002698461546F7
:100B20008A4601280CD0012784F85070FFF782FC18
:100B3000814694F85100B346012804D002269AE079
:100B40000220BDE8F88FBAF1000F6FD0002D6DD0F4
:100B5000032084F85100C4F854B0C4F830A0A5862E
:100B6000E586C4F838B0A4F83CB0A4F83EB0C4F8A8
:100B700044B0C4F840B0A068B0F5004F09D1206877
:100B8000016821F0400101602068016841F4804162
:100B9000016020680168490603D4016841F0400102
:100BA0000160E068B0F5006F606803D058B3012DB4
:100BB00029D049E008B1012D1FD1206B21680088A0
:100BC000C86006E020688168890709D5216B09881B
:100BD000C160206B801C2063E08E401EE0860CE02C
:100BE000FFF728FCA0EB0901414503D3B8F1FF3F13
:100BF00003D006E0B8F1000F03D0E08E0028E1D169
:100C000025E0032635E0206B21680078087306E0B4
:100C10002068816889070AD5216B09780173206BE8
:100C2000401C2063E08E401EE0860DE01FE0FFF7D1
:100C300001FCA0EB0901414503D3B8F1FF3F03D00C
:100C4000DFE7B8F1000FDCD0E08E0028E0D14A46A3
:100C50004146204600F0C1F808B120206065A06838
:100C600018B92068C16880680090606D08B10126DD
:100C700001E084F8517084F850B0304661E710B557
:100C8000401EB0F1807F01D3012010BD4FF0E02461
:100C900060610F21601700F086FA0020A061072034
:100CA0002061002010BDFEE72DE9F04385B000244F
:100CB00034480094019402940394816941F0040142
:100CC0008161816901F004010491816941F0200191
:100CD0008161816901F020010491816941F0100175
:100CE0008161816901F010010491816941F008017D
:100CF00081618069244F00F008004FF480750490F2
:100D0000002229463846FFF78FFBDFF8808000225B
:100D100080214046FFF788FBDFF8749001222021F4
:100D20004846FFF781FB002240214846FFF77CFB45
:100D30000095022601250396CDE9015469463846FF
:100D4000FFF76EFA8020CDE90005CDE9024669463D
:100D50004046FFF765FA2020CDE900050320CDE9E4
:100D6000024069464846FFF75BFA4020CDE900059E
:100D7000CDE9024669464846FFF752FA05B0BDE89C
:100D8000F0830000001002400014014000100140F8
:100D9000000C01400E4810B50C4901604FF48271FF
:100DA000416000218160C1604FF400720161C0E9BF
:100DB0000512C1610162416281620A21C162FFF7CD
:100DC00015FE002801D072B6FEE710BD00300140CC
:100DD0001C000020FEE7FEE7704738B50B46009286
:100DE00004460022802100F009F8002804D0606D3C
:100DF00040F020006065032038BD00002DE9F84375
:100E00001E46914688460446089DFFF713FB401B8B
:100E1000351AFFF70FFB074625480068C0F3CB30B3
:100E2000684338E0701C37D0FFF704FBC01BA842B2
:100E300003D215B1009860B32CE02068416821F01E
:100E4000E00141606068B0F5827F0BD1A068B0F529
:100E5000004F02D0B0F5806F04D12068016821F006
:100E600040010160A06AB0F5005F09D12068016807
:100E700021F4005101602068016841F400510160D3
:100E8000012084F85100002084F850000320BDE8C0
:100E9000F8830025401E00902068816838EA010030
:100EA00004D000214945BDD10020F0E70121F9E738
:100EB00018000020F8B5054610480C461646B0F953
:100EC00006108D4218DAB0F90800844214DA00F0F6
:100ED0009FF8601CC3B2681CC2B2E1B2E8B200F075
:100EE0009FF8300A8DF800008DF8016002216846F5
:100EF00000F016F900F0F8F8F8BD0000000000203E
:100F00002DE9F843074624480E46DDF82080B0F965
:100F100006101C4615468F423CDAB0F9080086429E
:100F200038DA7A19521E8A4201DBC91B8DB2311997
:100F3000491E814201DB801B84B200F069F8301940
:100F4000401EC3B27819401EC2B2F1B2F8B200F02E
:100F500067F84FEA18208DF8000001228DF8018013
:100F600011020E48FFF760FA26464FF0FF370DE0FA
:100F70002C4607E03B46022269460948FFF7C8FDB8
:100F8000641EA4B2002CF5D1761EB6B2002EEFD1AD
:100F900000F0AAF8BDE8F88300000020001401402A
:100FA0001C00002010B5044600F032F800F01CF8D8
:100FB0000B48FFF7FFF80A483830FFF7FBF80848FE
:100FC0004530FFF7F7F80749022048700120887084
:100FD000204600F051F8BDE8104000F085B8000050
:100FE000641F00080000002010B5084C002280217A
:100FF0002046FFF719FA0520FFF700F920460122E5
:10100000BDE810408021FFF70FBA0000001001403A
:10101000002240210148FFF707BA0000000C014000
:10102000F8B504461D4616460F462A2000F064F81F
:101030002146104C00200090E07801448DF801100A
:1010400030448DF803000421684600F069F82B2035
:1010500000F052F8207939188DF8011028448DF8E5
:1010600003000421684600F05BF82C2000F044F8EF
:10107000F8BD00000000002038B5002110F0030585
:1010800018488DF80010014605704A7889784FF0AD
:10109000A0044FF0800306D0012D0CD0022D05D006
:1010A000032D12D10AE0C0258DF800500481C380C1
:1010B000C270017109E08DF8004002E060258DF8F2
:1010C0000050C48003810271C170FFF7A1FF362078
:1010D00000F012F80121684600F022F800F004F850
:1010E00038BD000000000020012240210148FFF728
:1010F0009BB90000000C014001B500224FF4807143
:101100000548FFF791F94FF0FF3301226946034884
:10111000FFF7FEFC08BD0000001401401C00002089
:1011200070B50D460446012211020648FFF77CF90E
:10113000AAB22146BDE870404FF0FF330248FFF7E6
:10114000E7BC0000001401401C0000207047FFF7BE
:1011500077B910B590B028216846FFF70CF8142134
:101160000AA8FFF708F80220009001200490102040
:101170000024059007946846FFF7A8FA08B172B6F4
:10118000FEE70F20CDE90A040C940D9400210AA873
:101190000E94FFF7DFF9002801D072B6FEE710B019
:1011A00010BD7047FEE70907090E002804DB00F1B7
:1011B000E02080F80014704700F00F0000F1E020FC
:1011C00080F8141D704702E008C8121F08C1002AE9
:1011D000FAD170477047002001E001C1121F002AB8
:1011E000FBD170472DE9FF4F0746C2F101001446BD
:1011F0000FFA80F8C2EBC43040000FFA80FA83B0D7
:101200000E46081901B24FF0010900253846069A2A
:1012100000F0A6FE301B01B23846069A00F0A0FE90
:10122000381900B23146069A00F09AFE381B00B217
:101230003146069A4DE000BFB8F1000F09DB0AF114
:1012400002000FFA80FA641E08EB0A0024B20FFABB
:1012500080F809F102000FFA80F908EB09000FFA93
:1012600080F830196D1C01B22DB2781900B20190CE
:101270008B46069A00F074FE781B594600B28346EE
:10128000069A00F06DFE301B01B20091069A01989B
:1012900000F066FE5846069A009900F061FE70194B
:1012A00001B2381900B283460091069A00F058FE48
:1012B000381B00B201900099069A00F051FE701B95
:1012C00001B258460091069A00F04AFEDDE900108E
:1012D000069A00F045FEA542AEDB07B0BDE8F08FF0
:1012E0002DE9F05F0746C2F101000FFA80F8C2EB6A
:1012F000C23040009A460E464FF001090FFA80FBBB
:10130000002514465BE000BFB8F1000F09DB0BF1CC
:1013100002000FFA80FB641E08EB0B0024B20FFAE8
:1013200080F809F102000FFA80F96D1C08EB090042
:101330000FFA80F82DB25FEA4A700DD5301901B26C
:10134000781900B20A9A00F00BFE701901B2381930
:1013500000B20A9A00F004FE5FEA8A700DD5301BD5
:1013600001B2781900B20A9A00F0FAFD701B01B2BE
:10137000381900B20A9A00F0F3FD5FEA0A700DD541
:10138000701901B2381B00B20A9A00F0E9FD301959
:1013900001B2781B00B20A9A00F0E2FD5FEACA705F
:1013A0000DD0701B01B2381B00B20A9A00F0D8FDB4
:1013B000301B01B2781B00B20A9A00F0D1FDA542A1
:1013C000A2DBBDE8F09F08B50244521E009312B2A2
:1013D0000B4600F075FD08BD08B50A44521E009387
:1013E00013B2024600F06CFD08BD38B59042049C73
:1013F0000DD1994202DD0A46194613465A1A01B028
:101400002346BDE83040521C12B2FFF7E5BF9942B7
:101410000DD1904202DD034610461A4601B0234624
:10142000121ABDE83040521C12B2FFF7CCBF009434
:1014300000F046FD38BD89B280B2FFF73BBD2DE913
:10144000F0411C46DDF8188016460D460746434617
:10145000FFF7B9FF2819401E01B24346324638460D
:10146000FFF7B1FF4346224629463846FFF7B4FF4F
:10147000B819434622462946BDE8F041401E00B255
:10148000FFF7AABF2DE9FC5F1D46DDE90C47834647
:1014900090468A461046AA4200DB184600EBD07000
:1014A0004010844200DD04466042009008EB40009A
:1014B00002B20BEB040006B291463B465146304661
:1014C000FFF781FF0AEB05000190401E01B24A467A
:1014D00030463B46FFF777FF00983B4605EB400060
:1014E00002B20AEB040005B2914629465846FFF7BE
:1014F00073FFD844A8F101004A46294600B23B4692
:10150000FFF76AFF29463046012322460097FFF77E
:10151000E7FEA8EB0400401E00B2294680460223E5
:1015200022460097FFF7DCFE01980097001B401E43
:1015300005B24046042322462946FFF7D1FE29463C
:101540003046082322460097FFF7CAFEBDE8FC9FFD
:101550002DE9F84F9946DDE90B540A9E92460F4655
:1015600080460094FFF741FF2B46324649465046DD
:101570000094FFF73AFF3B46424629463046009426
:10158000FFF733FFBDE8F88F2DE9FC41074614460D
:10159000012000EB440002B20D46081B01B21E46BA
:1015A0003846FFF719FF0020CDE900060323224645
:1015B0002946384600F002F8BDE8FC812DE9FF5FBE
:1015C000C2F101010EB2C2EBC231490000250E98F2
:1015D00001271446401C0FFA81FAA946A0460FFACB
:1015E00080FB57E0002E08DB0AF102000FFA80FAB8
:1015F000641E06EB0A0024B206B2BF1C3FB2F0190B
:1016000009F1010506B22DB2601C85421DDA03986E
:10161000C0070BD00BEB440002B201980F9B001BDC
:1016200001B20098284400B2FFF7D6FE0398800765
:101630000BD50BEB440002B201980F9B001B01B2CB
:101640000098401B00B2FFF7C7FE444521D0039825
:10165000C0070CD00BEB4900019902B2A1EB0900C5
:1016600001B200980F9B404400B2FFF7B5FE03980B
:1016700080070DD50BEB4900019902B2A1EB0900DF
:10168000009B01B2A3EB080000B20F9BFFF7A4FE82
:10169000A046A946A542A5DBBDE8FF9F38B59BB291
:1016A000049C92B289B280B20094FFF729FC38BD45
:1016B0002DE9FC5F1D46DDE90C4716468B46824648
:1016C000AA4201DA104600E0184600EBD070401044
:1016D000844200DD0446C4F1000906EB490002B271
:1016E0000AEB040000B280462B460097FFF7D6FFB6
:1016F00005EB4900401E0FFA80F90BEB040005B220
:101700000AEB0600001BCDE90097401E00B2012342
:1017100022462946FFF752FFCDE900972946404669
:1017200002232246FFF74AFFBDE8FC9F08B50021CF
:1017300000900548B0F900300448B0F90020084690
:10174000FFF7ACFF08BD00000800002006000020E5
:101750002DE9F04F87B00D46DDE910191E461446FD
:101760008046B54203DD2E4644461D4690464E4512
:1017700005DD4846B1460646084621460446B542C0
:1017800005DD2846354606464046A04604464D45FA
:1017900018D140464246844201DA204601E000DD8D
:1017A0002246814201DA084602E0914200DD0A4603
:1017B000111A491C129B0AB207B02946BDE8F04F26
:1017C000FFF701BEA4EB080000B20690701B00B248
:1017D0000590A1EB080000B20090A9EB050000B253
:1017E0000390081B00B20290A9EB060000B24FF074
:1017F000000BDA4604904E4501D1019602E0701EBE
:1018000000B201902F461DE005989BFBF0F101EB23
:101810000800039900B29AFBF1F202EB0801069A64
:1018200009B29344009A8842924402DD0246084677
:101830001146091A491C0AB23946129BFFF7C3FD2B
:101840007F1C3FB201988742DEDD0298B91B01FB85
:1018500000F600987D1B45431CE00499029B96FB13
:10186000F1F00399204495FBF1F202EB0801009A94
:1018700000B209B21E441544884202DD0246084601
:101880001146091A491C0AB23946129BFFF79BFD03
:101890007F1C3FB24F45E0DD07B0BDE8F08F000090
:1018A00008B5FEF7D5FDFFF754FCFFF7FDF9FFF78C
:1018B00071FA0020FFF776FB4FF47840002100908A
:1018C000A02380220846FFF7E9FE4FF4FC60FFF7F3
:1018D0002DFF00F00FF84FF47A70FEF78FFC044CE8
:1018E00020212046FEF798FD6420FEF787FCF7E7ED
:1018F000000C014010B500F079F840F2FF7000F0E4
:1019000093F91F21C80200F047F84FF4FC6000F083
:101910002BFA4FF61F0421464FF6E07000F0A2F8B4
:1019200021460A2000F076F84FF6FF710A2000F0F9
:101930000BF800F091FA00F027F900F047FABDE843
:10194000104000F0D3B800002DE9F05F06464FEAE2
:1019500040080F488B46B0F9000000EB06090D481F
:10196000B0F90000871900250DE000240FFA85FA70
:1019700006E05B46324621B25046FFF733FC444452
:10198000BC42F6DB45444D45EFDBBDE8F09F00006F
:1019900006000020080000202DE9F041074611480C
:1019A0008846B0F900501048B0F900400020FFF719
:1019B000BDFE002606E03B462A4631B20020FFF776
:1019C00002FD761DA642F6DB002606E043462246CF
:1019D000002130B2FFF700FD761DAE42F6DBBDE818
:1019E000F0810000060000200800002010B5002053
:1019F000FFF79CFE4FF47840FFF798FE4FF4FC6031
:101A0000FFF794FE1F20FFF791FEBDE81040002075
:101A1000FFF78CBE2DE9F05F044610488B464FEA75
:101A20004408B0F900900E48B0F900700020FFF7AC
:101A30007DFE26460DE025460FFA86FA06E05B4657
:101A4000224629B25046FFF79FFD4544BD42F6DBD2
:101A500046444E45EFDBBDE8F09F00000600002045
:101A6000080000202DE9F84F1E4C83468A46B4F941
:101A700000001D4D00EBD0714FF0FF3000EB61090D
:101A8000B5F9001001EBD17100EB61080020FFF700
:101A90004DFEB4F90040B5F9000084421DDB044658
:101AA0001BE000BF04EBD4704010A8EB0001A9EBD1
:101AB000000023B20FB206B21D461A463946304620
:101AC000CDF800B0FFF7EAFD2B46394630461A46FE
:101AD000CDF800A0FFF7B3FCA41F002CE2DCBDE8AA
:101AE000F88F000006000020080000202DE9FC41CE
:101AF000234C244EB4F9000000EBD0714FF0FF30BE
:101B000000EB6108B6F9001001EBD17100EB610741
:101B10000020FFF70BFEB4F90040B6F900004FF4C7
:101B20008075844201DA214600E001464FF4C0622C
:101B300092FBF1F61FDB04461DE000BFA5EB060596
:101B40004FEAE47205F0FC0104EB52724FEAC10166
:101B500042F3CF02CDE9002104EBD4704FEA6000DC
:101B6000A7EB0001A8EB000023B209B200B21A46AD
:101B7000FFF79EFDA41F142CE0DCBDE8FC810000F3
:101B800006000020080000202DE9FF5F2448B0F97E
:101B9000000000EBD0714FF0FF3000EB61062149EF
:101BA000B1F9001001EBD17100EB61070020FFF7E4
:101BB000BDFDBE4201DA34462EE03C462CE000BFBB
:101BC00004F0FC00C4F3C40141EAC00103903819D9
:101BD00005B230190FFA80FA301BCDF800A002B21E
:101BE000CDE90151381B01B230B22B4691468846EF
:101BF0008346FFF7ADFD04F0F80001020398CDF82D
:101C000000A041EAC001CDE901512B464A464146B8
:101C10005846FFF79DFC641F0A2CD1DCBDE8FF9FEE
:101C200006000020080000202DE9F84F06464C4829
:101C3000B0F900504B48B0F900400020FFF776FDA6
:101C40000020611E07460FFA81F9804607E04146F1
:101C50004B463AB208460096FFF7C7FBBF1DAF429E
:101C6000F5DB681E00270FFA80F907E041463BB21A
:101C70004A4608460096FFF7B8FBBF1DA742F5DBB2
:101C80000020FFF753FD00206A1E611E07460FFA71
:101C900081FA80460FFA82F907E053463AB241468C
:101CA00048460096FFF7A1FBBF1DAF42F5DB0020C1
:101CB0000746824607E03BB25246414648460096F8
:101CC000FFF793FBBF1DA742F5DB0020FFF72EFDBA
:101CD0000020621E074682460FFA82F9804607E01E
:101CE00053463AB2494640460096FFF77EFBBF1D79
:101CF000AF42F5DB681E00270FFA80FA07E03BB21F
:101D00005246494640460096FFF76FFBBF1DA7426B
:101D1000F5DB0020FFF70AFD691E621E0020074662
:101D200082460FFA82F80FFA81F907E053463AB279
:101D3000414648460096FFF758FBBF1DAF42F5DB12
:101D400000252F4607E03BB22A464146484600960A
:101D5000FFF74BFBBF1DA742F5DBBDE8F88F000086
:101D600006000020080000202DE9F843154D8046AC
:101D7000154CB5F9000000EBD0704710B4F9000025
:101D800000EBD07046100020FFF7D0FCB5F90050F2
:101D9000B4F90000854200DB054602240EE000BFD6
:101DA00004EBD4704010311A381A23B209B200B2D1
:101DB0001A46CDF80080FFF742FBA41DAC42EFDBD2
:101DC000BDE8F88306000020080000202DE9FC474C
:101DD0001F4D204CB5F9000000EBD0714FF0FF30E3
:101DE00000EB6109B4F9001001EBD17100EB61085F
:101DF0000020FFF79BFCB5F90050B4F900008542C4
:101E000000DB05464FF4C06090FBF5F70026344632
:101E100019E000BF3E44E21706F0F80104EB5272ED
:101E2000090242F3CF02CDE9002104EBD470401047
:101E3000A8EB0001A9EB000023B209B200B21A46D8
:101E4000FFF720FBA41DAC42E4DBBDE8FC870000EB
:101E50000600002008000020FEB51748B0F9000079
:101E600000EBD0714FF0FF3000EB61051349B1F981
:101E7000001001EBD17100EB61060020FFF756FC6A
:101E8000B54201DA2F4600E03746002411E000BFDA
:101E900031190BB2291909B2C4F3C4000091CDE97C
:101EA0000130281B02B2301B01B228B2FFF750FBF1
:101EB000641DBC42ECDBFEBD0600002008000020D3
:101EC0002DE9F05F0C4606461546191BA2EB0600ED
:101ED00000D54942002800DA4042814207DD304601
:101EE00026461D464FF001080446134601E04FF018
:101EF0000008AE4205DD30462E46054620461C460B
:101F00000346A81B0FFA80F9181B00D540420FFAB0
:101F100080FB09EBD97047109C4201DA012001E0F7
:101F20004FF0FF30824617E00A9AB8F1000F02D056
:101F30003146204601E02146304600F011F8A7EB7B
:101F40000B0007B2002F05DA04EB0A0004B207EB1E
:101F5000090007B2761C36B2AE42E5DDBDE8F09F5F
:101F6000FFF769BA0F0180961180FFB103012C2D94
:101F7000B203012C2DB306012C2D012C2DB4010729
:101F8000C003A20284C101C5C2020A00C3028A2A98
:101F9000C4028AEEC5010E20003A0105022A04009F
:101FA00000007F2B040000007F04E010021C0712D9
:101FB0003732292D29252B3900010310E110031D8B
:101FC00007062E2C292D2E2E373F000002101380DD
:101FD0000A298064010202030405060708090A0BA6
:101FE0000C0D0E0F10100000000000000000010298
:101FF000030406070809000018200008000000205C
:102000001C000000C6110008342000081C0000203D
:102010005C040000D6110008000000000000000071
:10202000000000000100000010000000000000009F
:042030000024F40094
:0400000508000131BD
:00000001FF
