:020000040800F2
:10000000C00400204501000813130008DF11000898
:1000100011130008B1010008E319000800000000F6
:100020000000000000000000000000007D19000832
:10003000C101000800000000151300087F19000826
:100040005F0100085F0100085F0100085F01000810
:100050005F0100085F0100085F0100085F01000800
:100060005F0100085F0100085F0100085F010008F0
:100070005F010008B50100085F0100085F0100088A
:100080005F0100085F0100085F0100085F010008D0
:100090005F0100085F0100085F0100085F010008C0
:1000A0005F0100085F0100085F0100085F010008B0
:1000B0005F0100085F0100085F0100085F010008A0
:1000C0005F0100085F0100085F01000819130008C4
:1000D0005F0100085F0100085F0100085F01000880
:1000E0005F0100085F0100085F0100085F01000870
:1000F0005F0100085F0100085F0100085F01000860
:100100005F0100085F0100085F0100085F0100084F
:100110005F0100085F0100085F0100085F0100083F
:100120005F0100085F0100085F0100085F0100082F
:10013000DFF80CD000F02AF800480047C11A000888
:10014000C00400200648804706480047FEE7FEE757
:10015000FEE7FEE7FEE7FEE7FEE7FEE7FEE7FEE777
:10016000E119000831010008D2B201E000F8012BCA
:10017000491EFBD270470022F6E710B513460A4627
:1001800004461946FFF7F0FF204610BD064C074D08
:1001900006E0E06840F0010394E807009847103457
:1001A000AC42F6D3FFF7C8FF484300086843000895
:1001B000FEE70000014800F0C1B800007C0000200C
:1001C00070472DE9F04110F8015B044617E02078F4
:1001D00001F074FB6078A41C00F0800730F080060A
:1001E00004D03146204601F07DFB34443FB114F881
:1001F000010BFF2801D14FF4FA7000F001FA6D1ED7
:10020000EDB2E4D2BDE8F08172B6FEE72DE9F05F11
:1002100090F821100024022903D0042181630124D5
:1002200085E001680A6822F00E020A6001680A6827
:1002300022F001020A603F4E3E4FB215DFF8F4C0D3
:10024000DFF8F090DFF8ECA0DFF8E8B0DFF8E4E0EA
:100250000168783F13011502ACF1640CA9F1500953
:10026000AAF13C0AABF1280BAEF1140E4FF4801842
:10027000B14227D9B9420ED0614512D049451DD0AF
:10028000514518D0594518D0714501D1424615E065
:10029000294EB14201D1012210E0274E1436B1425D
:1002A00001D110220AE0244E2836B14206D0224A5B
:1002B0003C32914201D11A4600E02A461E49091FEC
:1002C0000A602BE0B94213D0614517D0494522D0CE
:1002D00051451DD059451DD0714501D142461AE006
:1002E000B14202D14FF0807215E0134EB14201D1FC
:1002F000012210E0104E1436B14201D110220AE062
:100300000D4E2836B14206D00B4A3C32914201D103
:100310001A4600E02A46074980394A60012180F8E0
:100320002110002180F82010416B01B18847204640
:10033000BDE8F09F80000240080402402DE9F05F14
:10034000C16B0A6801680B68046C4FF0040808FA76
:1003500004F8844D844E854FDFF814C2DFF8149200
:10036000DFF814A2DFF814B2DFF814E218EA020F83
:1003700065D05FEA437862D50A68920603D40A68BA
:1003800022F004020A60DFF8F0814FF48062016815
:1003900008F1140813011402414524D9A9420DD0D3
:1003A000B1420FD0B9421AD0614515D0494515D098
:1003B000514501D1120312E0594501D104220EE04A
:1003C000714501D140220AE06D4D1435A94206D095
:1003D0006B4A2832914201D11A4600E02246674911
:1003E000091F0A6029E0A94213D0B14215D0B942D1
:1003F00020D061451BD049451BD0514502D14FF457
:10040000800217E0414502D14FF0806212E0594569
:1004100001D104220EE0714501D140220AE0584D7D
:100420001435A94206D0564A2832914201D11A46C3
:1004300000E022464B4908394A60C16A71E04FF03A
:10044000020808FA04F818EA020F70D05FEA83780D
:100450006DD50A68920606D40A6822F00A020A607C
:10046000012180F82110DFF810814FF4007201683B
:1004700008F1140813011402414524D9A9420DD0F2
:10048000B1420FD0B9421AD0614515D0494515D0B7
:10049000514501D1120312E0594501D102220EE06B
:1004A000714501D120220AE0354D1435A94206D00C
:1004B000334A2832914201D11A4600E022462F49A0
:1004C000091F0A6029E0A94213D0B14215D0B942F0
:1004D00020D061451BD049451BD0514502D14FF476
:1004E000001217E0414502D14FF0007212E0594569
:1004F00001D102220EE0714501D120220AE0204DF7
:100500001435A94206D01E4A2832914201D11A461A
:1005100000E02246134908394A60002180F8201083
:10052000816A00291CD0BDE8F05F0847FFE7082575
:10053000A540154214D01A0712D50A6822F00E02FF
:100540000A6090F84020C36B012101FA02F25A6060
:10055000816380F82110002180F82010016BE0E712
:10056000BDE8F09F080002401C000240300002403D
:1005700044000240580002406C000240080402405F
:100580001C04024030B560B11A4B026814219A4233
:1005900009D2194B1344B3FBF1F1890001641749E7
:1005A0000AE0012030BD134B5B421344B3FBF1F171
:1005B000890001640F490839C163022180F82110C4
:1005C000136843F6F0718B43F0E901142143D0E93D
:1005D00002452C4321430469214344692143846932
:1005E00021431943116000214163012242770177C1
:1005F000084630BD08040240F8FFFDBF000002407D
:1006000070B5044600F010F90546601C02D004489D
:100610000078044400F008F9401BA042FAD370BDF2
:10062000140000202DE9F84FDFF8C8910024A9F14B
:10063000040B23460F2709F1040AABF1040ED1E0A5
:100640000125A54006EA0502AA4276D1DFF8A8C135
:100650004E68A6EB0C0866452BD00DDC032E34D07B
:1006600005DC36B3012E19D0022E2FD11BE0112E3E
:1006700016D0122E2AD119E0B8F5881F19D006DC41
:10068000B8F5803F15D0B8F5801F1FD111E0B8F53F
:10069000001F0ED0B8F5041F18D10AE0CB6815E092
:1006A000CB681B1D12E0CB6808330FE0CB680C331E
:1006B0000CE08B682BB1012B4FF0080303D0456190
:1006C00004E0042302E0056100E00023FF2A01D8D2
:1006D000064601E000F104064FEA840501D9A5F1C0
:1006E0002005D6F8008007FA05FC28EA0C0803FA72
:1006F00005F548EA0508C6F800804D68ED0070D59C
:100700003E4DAE6946F00106AE61AD6924F00306C8
:1007100005F0010500953A4D06EB050CDCF8085094
:10072000A607360F07FA06F825EA0805DFF8D48091
:10073000404503D14FF0000825E052E0DFF8C880C3
:10074000404502D14FF001081DE0DFF8C080404570
:1007500002D14FF0020816E0DFF8B480404502D124
:100760004FF003080FE0DFF8AC80404502D14FF0B6
:10077000040808E0DFF8A080404502D14FF00508EA
:1007800001E04FF0060808FA06F848EA0508CCF838
:1007900008804D68D9F80060ED024D4601D516433A
:1007A00000E096432E604D68DAF80060AD025546D1
:1007B00001D5164300E096432E604D68DBF80060DB
:1007C000AD035D4601D5164300E096432E604D68AB
:1007D000DEF80060ED03754601D5164300E0964350
:1007E0002E60641C0A681646E2407FF429AFBDE81B
:1007F000F88F0000080401400000111000100240B2
:100800000000014000080140000C014000100140C0
:100810000014014000180140001C01400AB10161B0
:1008200070470904FBE7000001488068704700003A
:1008300014000020024881680278114481607047EA
:1008400014000020074810B5016841F01001016054
:10085000032000F075F8002000F006F800F024F8FE
:10086000002010BD0020024070B50D4D04464FF42D
:100870007A712878B1FBF0F00A490968B1FBF0F011
:1008800000F099FC48B9102C07D200222146501ED6
:1008900000F036F800206C6070BD012070BD0000D3
:1008A00014000020200000200C4808B5816941F0A8
:1008B00001018161816901F001010091C16941F08B
:1008C0008051C161C06900F08050009004484168C7
:1008D00021F0E06141F00071416008BD001002406C
:1008E00000000140002809DB00F01F0201219140B7
:1008F0004009800000F1E020C0F8001170470000BE
:10090000F0B40E4B1B680C46C3F30223C3F107057A
:10091000042D00D90425191D072901D2002300E068
:10092000DB1E012606FA05F1491E214099409E4032
:10093000761E16403143F0BC01F054B80CED00E0D7
:10094000064900F0070208684FF6FF03184040EA26
:100950000220034A10430860704700000CED00E0DD
:100960000000FA052DE9F0470F46050061D0434E1F
:10097000306800F00700B84209D2306820F0070064
:1009800038433060306800F00700B84251D1286821
:100990003B4C810712D5400703D5606840F4E06006
:1009A00060602878000703D5606840F4605060609C
:1009B0006068A96820F0F000084360602878C007EC
:1009C00028D06868012810D02168022810D0890733
:1009D00000292EDA616821F0030101436160FFF70D
:1009E00023FF804641F288390DE021688903EFE753
:1009F0008901EDE7FFF718FFA0EB0801494502D98F
:100A00000320BDE8F0876068696800F00C00B0EB77
:100A1000810FEFD1306800F00700B8420BD9306881
:100A200020F0070038433060306800F00700B8421B
:100A300001D00120E5E72878400705D56068E9681E
:100A400020F4E060084360602878000706D56068FD
:100A5000296920F4605040EAC100606000F018F895
:100A60006168084AC1F30311515CC8400649086037
:100A700006480068FFF7F8FE0020C2E700200240A9
:100A8000001002403643000820000020180000201B
:100A90000E4A51680E4801F00C03042B11D0082BAC
:100AA0000FD10C48C1F38343C903C05C0AD5516818
:100AB000084AC1F34041921E515C054A5043B0FBC5
:100AC000F1F07047044948437047000000100240AD
:100AD00000127A002643000800093D002DE9F84F76
:100AE000040070D02078C04DC00749D06868C0F3BA
:100AF0008100012807D06868C0F38100022809D16D
:100B00006868C00306D52868800339D56068002866
:100B1000E7D035E06068B0F5803F0BD010B1B0F59C
:100B2000A02F11D0286820F480302860286820F495
:100B3000802002E0286840F480302860606890B12E
:100B4000FFF772FE06460AE0286840F4802028601D
:100B5000F0E700BFFFF768FE801B642873D82868A1
:100B60008003F7D50CE0FFF75FFE064605E000BF07
:100B7000FFF75AFE801B6428F0D828688003F7D45A
:100B800020789A4E80074FF001094FF0000839D5C0
:100B9000686810F00C0F07D06868C0F38100022865
:100BA00009D16868C00306D42868800714D5206975
:100BB000012808D110E02069B0B1C6F80090FFF715
:100BC00033FE074605E00AE1FFF72EFEC01B0228B0
:100BD000C4D828688007F7D52868616920F0F80034
:100BE00040EAC10028600DE0C6F80080FFF71CFE57
:100BF000074604E0FFF718FEC01B022823D8286828
:100C00008007F7D4207800072CD57948A169D9B19D
:100C1000C0F80090FFF708FE074604E0FFF704FE67
:100C2000C01B02280FD8686A8007F7D571484FF4B7
:100C3000FA510068B0FBF1F0009000BF0098411E2F
:100C40000091FAD20EE080E0C0F80080FFF7ECFDE2
:100C5000074604E0FFF7E8FDC01B022875D8686A64
:100C60008007F7D42078400760D5E8690027C000E6
:100C700008D4E86940F08050E861E869012700F095
:100C8000805000905C480168C90513D40168834610
:100C900041F480710160FFF7C7FD824606E000BFA6
:100CA000FFF7C2FDA0EB0A0064284ED8DBF8000075
:100CB000C005F5D5E06801280AD008B1052813D091
:100CC000286A20F001002862286A20F0040002E06F
:100CD000286A40F001002862E06841F2883B98B140
:100CE000FFF7A2FD82460BE0286A40F0040028626C
:100CF000EEE700BFFFF798FDA0EB0A0159455AD86F
:100D0000286A8007F6D50CE0FFF78EFD824605E0E5
:100D1000FFF78AFDA0EB0A0159454CD8286A8007E5
:100D2000F6D41FB1E86920F08050E861E06988B32B
:100D30006968C1F38101022944D00228C6F86080A5
:100D400004D0FFF771FD044638E034E0FFF76CFD96
:100D5000074604E0FFF768FDC01B02282BD828686F
:100D60008001F7D4206AB0F5803F05D16868A1689A
:100D700020F4003008436860D4E90801084369683A
:100D800021F4741108436860C6F86090FFF74CFDC9
:100D9000044606E025E000BFFFF746FD001B0228E1
:100DA00009D828688001F7D51BE000BFFFF73CFD9C
:100DB000001B022802D90320BDE8F88F28688001B3
:100DC000F4D40EE00128F7D06868226A00F480317C
:100DD000914204D1616A00F47010884201D0012070
:100DE000EAE70020E8E7000000100240000042426D
:100DF0008004424220000020007000407047000044
:100E000038B50446006842688168C9434B0606D578
:100E1000CB0704D1D3435B0601D4216C05E08B07DB
:100E200008D4D3431B0605D4616C01B02046BDE84D
:100E3000304008478B0601D54B0646D4D3439B066A
:100E400043D44B060AD494F85130032B3ED0636D43
:100E500043F004036365C36883680093890609D47B
:100E6000616D41F00101616581680091016821F0C7
:100E700040010160606D002827D02068416821F0A2
:100E8000E0014160012084F85100900722D02068E1
:100E9000416821F003014160104DE06C40B14563B1
:100EA000E06CFFF7B3F918B1606D40F04000606589
:100EB000A06C002809D04563A06CFFF7A7F90028B3
:100EC00003D0606D40F04000606538BDC168806847
:100ED000009038BD2046FFF791FF38BD251300086C
:100EE00070B5040009D0606A002540B125616561D4
:100EF000A56294F8510040B10CE0012070BD60681B
:100F0000B0F5827FF4D0E561F2E784F850502046D6
:100F100000F040F8022084F851002068016821F0B8
:100F200040010160A088218900F4827001F404412D
:100F30000843A18901F400610843217C01F002010A
:100F40000843217D01F001010843218B01F4007168
:100F50000843217F01F03801084394F8201001F084
:100F600080010843218D01F4005108432168086085
:100F7000A069042101EA1040216848602068C16925
:100F800021F40061C1616565012084F851000020F1
:100F900070BD000070B586B000250646009501952D
:100FA0000295039500682349884240D12249886907
:100FB00040F480508861886900F48050049088690A
:100FC00040F00400886188691C4C00F00400049023
:100FD000A020009002200190032003906946204643
:100FE000FFF720FB4020CDE9000569462046029529
:100FF000FFF718FB134C124820601020C4E90105CC
:101000008020C4E9030580016561C4E906502046DB
:10101000FFF7B8FA08B1FFF7F7F8B46400221146F9
:1010200023206662FFF76CFC2320FFF75BFC06B011
:1010300070BD000000300140001002400008014077
:10104000300002407C0000202DE9F84F044690F863
:1010500050000026984615468A4601280CD00127E4
:1010600084F85070FFF7E0FB814694F85100B346D6
:10107000012804D002269AE00220BDE8F88FBAF1D8
:10108000000F6FD0002D6DD0032084F85100C4F8FC
:1010900054B0C4F830A0A586E586C4F838B0A4F8EA
:1010A0003CB0A4F83EB0C4F844B0C4F840B0A06866
:1010B000B0F5004F09D12068016821F040010160BE
:1010C0002068016841F48041016020680168490698
:1010D00003D4016841F040010160E068B0F5006FA1
:1010E000606803D058B3012D29D049E008B1012D23
:1010F0001FD1206B21680088C86006E020688168E5
:10110000890709D5216B0988C160206B801C206389
:10111000E08E401EE0860CE0FFF786FBA0EB0901A5
:10112000414503D3B8F1FF3F03D006E0B8F1000F0B
:1011300003D0E08E0028E1D125E0032635E0206BC6
:1011400021680078087306E02068816889070AD55D
:10115000216B09780173206B401C2063E08E401ED8
:10116000E0860DE01FE0FFF75FFBA0EB09014145C2
:1011700003D3B8F1FF3F03D0DFE7B8F1000FDCD0B5
:10118000E08E0028E0D14A464146204600F0D2F8E1
:1011900008B120206065A06818B92068C16880681F
:1011A0000090606D08B1012601E084F8517084F868
:1011B00050B0304661E710B5401EB0F1807F01D3DA
:1011C000012010BD4FF0E02460610F21601700F096
:1011D00009FC0020A06107202061002010BDFEE76F
:1011E0002DE9F04385B00024344800940194029422
:1011F0000394816941F004018161816901F0040176
:101200000491816941F020018161816901F020012F
:101210000491816941F010018161816901F010013F
:101220000491816941F0080181618069244F00F0D7
:1012300008004FF480750490002229463846FFF7D5
:10124000EDFADFF88080002280214046FFF7E6FAC1
:10125000DFF87490012220214846FFF7DFFA0022D0
:1012600040214846FFF7DAFA009502260125039649
:10127000CDE9015469463846FFF7D4F98020CDE91D
:101280000005CDE9024669464046FFF7CBF920202C
:10129000CDE900050320CDE9024069464846FFF745
:1012A000C1F94020CDE90005CDE90246694648462E
:1012B000FFF7B8F905B0BDE8F08300000010024068
:1012C0000014014000100140000C01400F4810B50F
:1012D0000D4901604FF48271416000218160C1605D
:1012E0004FF400720161C0E905120822C0E907212C
:1012F000416281620A21C162FFF7F2FD002801D03C
:1013000072B6FEE710BD000000300140240000204E
:10131000FEE7FEE7704700000148FFF771BD0000DF
:101320002400002010B5406A0021C187C186FFF764
:1013300065FD10BD38B50B460092044600228021A1
:1013400000F008F8002804D0606D40F020006065CF
:10135000032038BD2DE9F8431E46914688460446D1
:10136000089DFFF761FA401B351AFFF75DFA074643
:1013700025480068C0F3CB30684338E0701C37D094
:10138000FFF752FAC01BA84203D215B1009860B310
:101390002CE02068416821F0E00141606068B0F510
:1013A000827F0BD1A068B0F5004F02D0B0F5806FFE
:1013B00004D12068016821F040010160A06AB0F505
:1013C000005F09D12068016821F4005101602068A4
:1013D000016841F400510160012084F851000020AF
:1013E00084F850000320BDE8F8830025401E0090DB
:1013F0002068816838EA010004D000214945BDD148
:101400000020F0E70121F9E7200000202DE9F04F4E
:10141000834685B091468A461046022A7DDB022B20
:101420007BDB00FB00F6B00003FB03F50390A80094
:101430001C46029061420120002700EB41007043EE
:1014400000EB450835E000BF0AEB040081B20090D4
:101450000BEB0700019080B20E9A00F0BDF80098E7
:1014600081B2ABEB0700049080B20E9A00F0B4F8A2
:10147000AAEB040081B2009004980E9A80B200F0AA
:10148000ABF800980E9A81B2019880B200F0A4F8EF
:10149000B8F1000F06DBC4F101020398641E00FBE3
:1014A000028824B2062000EB870105FB01887F1C1F
:1014B0003FB205FB07F006FB04F18842C4DD4C4651
:1014C00061420120002700EB4100684300EB460821
:1014D00037E000BF0BEB04000AEB070901901FFA8D
:1014E00089F180B20E9A00F077F8ABEB040000901F
:1014F0001FFA89F180B20E9A00F06EF80098AAEBFC
:1015000007091FFA89F180B20E9A00F065F8019878
:101510001FFA89F180B20E9A00E018E000F05CF842
:10152000B8F1000F06DBC4F101020299641E01FB51
:10153000028824B2062000EB870106FB01887F1C8D
:101540003FB206FB07F105FB04F08142C2DD05B0A6
:10155000BDE8F08F2DE9F05F04461E480D46DDF82A
:1015600028B0B0F90610994692468C422FDAB0F9AD
:10157000080085422BDA04EB0A02A2F10108884533
:1015800025DA05EB09077F1E874220DA002600F0E6
:10159000D9F8FBB208F0FF02E9B2E0B200F0DAF8E5
:1015A0000AEB0408A9440CE0274607E03BF81620A4
:1015B000A9B2B8B200F010F8761C7F1CB845F5DC73
:1015C0006D1CA945F0DCBDE8F05F00F027B9BDE86F
:1015D000F09F000008000020F8B5054610480C46B2
:1015E0001646B0F906108D4218DAB0F908008442A8
:1015F00014DA00F0A7F8601CC3B2681CC2B2E1B2F2
:10160000E8B200F0A7F8300A8DF800008DF801600C
:101610000221684600F066F900F000F9F8BD00000C
:10162000080000202DE9F843074624480E46DDF85F
:101630002080B0F906101C4615468F423CDAB0F9FE
:101640000800864238DA7A19521E8A4201DBC91B29
:101650008DB23119491E814201DB801B84B200F03A
:1016600071F83019401EC3B27819401EC2B2F1B2EF
:10167000F8B200F06FF84FEA18208DF80000012250
:101680008DF8018011020E48FFF7C8F826464FF08A
:10169000FF370DE02C4607E03B4602226946094829
:1016A000FFF7D2FC641EA4B2002CF5D1761EB6B2B0
:1016B000002EEFD100F0B2F8BDE8F883080000205A
:1016C000001401402400002038B5044600F03AF828
:1016D00000F024F80F48FEF774FD0E483830FEF78E
:1016E00070FD0C484530FEF76CFD0B490220487038
:1016F00001208870204600F059F84FF6FF70002155
:101700000090A02380220846FFF78CFFBDE83840F8
:1017100000F084B8B44200080800002010B5084C5E
:10172000002280212046FFF779F80520FEF768FFA8
:1017300020460122BDE810408021FFF76FB800006D
:1017400000100140002240210148FFF767B8000067
:10175000000C0140F8B504461D4616460F462A20E7
:1017600000F0ACF82146104C00200090E0780144D5
:101770008DF8011030448DF803000421684600F014
:10178000B1F82B2000F09AF8207939188DF8011063
:1017900028448DF803000421684600F0A3F82C20AB
:1017A00000F08CF8F8BD00000800002038B50021DA
:1017B00010F0030518488DF80010014605704A78AE
:1017C00089784FF0A0044FF0800306D0012D0CD093
:1017D000022D05D0032D12D10AE0C0258DF800504E
:1017E0000481C380C270017109E08DF8004002E0FD
:1017F00060258DF80050C48003810271C170FFF72D
:10180000A1FF362000F05AF80121684600F06AF87E
:1018100000F004F838BD000008000020012240213B
:101820000148FEF7FBBF0000000C01400FB42DE99A
:10183000FF5F4A1EC3F307263244D4B2DFB2421E12
:10184000DDE913A93A44D2B2C9B2C0B22346FFF7C8
:1018500081FF00252CE010981299203800FB0650DB
:10186000002431F810804FEA1A2002900AF0FF009D
:1018700001904FEA192009F0FF0B009015E000BF1E
:1018800008FA04F0000406D502988DF80C000198BF
:101890008DF80D0004E000988DF80C008DF80DB067
:1018A000022103A800F01EF8641CA742E8D86D1CB2
:1018B000AE42D0D8BDE8FF1F5DF814FB01B5002291
:1018C0004FF480710548FEF7A9FF4FF0FF33012266
:1018D00069460348FFF7B8FB08BD0000001401404B
:1018E0002400002070B50D4604460122110206486E
:1018F000FEF794FFAAB22146BDE870404FF0FF33D7
:101900000248FFF7A1BB00000014014024000020A2
:101910002DE9FE4F9846DDE90DBA14460E46054600
:10192000FFF710FFDFF8509008F0FF071CE0B9F94F
:101930000630791999420BDBC8F307218B199EB247
:10194000B9F9080000253144814210DA202A0AD072
:10195000CDE901BA0C980090434631462846FFF77E
:1019600065FF781985B2641C2278002ADFD1BDE8B2
:10197000FE4FFFF753BF0000080000207047FEF73E
:1019800059BF30B58FB028216846FEF7F4FB14210B
:101990000AA8FEF7F0FB01210804CDE9001000249D
:1019A000029402250491CDE907504FF4E01009900C
:1019B0006846FFF793F808B172B6FEE70F20CDE94D
:1019C0000A054FF48060CDE90C4002210AA80E946C
:1019D000FEF7C8FF002801D072B6FEE70FB030BD99
:1019E0007047FEE70907090E002804DB00F1E0203C
:1019F00080F80014704700F00F0000F1E02080F83C
:101A0000141D704702E008C8121F08C1002AFAD14D
:101A100070477047002001E001C1121F002AFBD16E
:101A200070472DE9F05F83468A46D81DC11700EB49
:101A30005170C7101E4691460025DDF828801FE032
:101A4000002419E0E01704EB507009EBE00105FBFE
:101A5000071120F00700221A097801209040014266
:101A600008D00AEB050081B20BEB040080B20B9AA0
:101A7000FFF7B2FD641C24B2B442E3DB6D1C2DB24F
:101A80004545DDDBBDE8F09F38B59BB2049C92B2C2
:101A900089B280B20094FFF7C5FD38BD08B50021BA
:101AA00000900548B0F900300448B0F9002008461D
:101AB000FFF7EAFF08BD0000100000200E00002024
:101AC0000EB5FEF7BFFEFFF75CFFFFF789FB30485E
:101AD000416941F0010141614069002200F00100CB
:101AE000009011460D20FEF70BFF0D20FEF7FAFEC9
:101AF000FFF7ECFB0020FFF7E7FD0020FFF756FEA5
:101B00000020FFF7CBFF00204FF6E074CDE9014045
:101B1000204821A241680091002103680846FFF790
:101B2000F7FE4FF4784578212A460846FFF754FD22
:101B30002A4678217720FFF74FFD2A467821792021
:101B4000FFF74AFD2A4677217820FFF745FD2A4610
:101B500079217820FFF740FD15480090332340227B
:101B600046210020FFF7F6FC4FF4FC606421009052
:101B7000062309220846FFF749FC1020CDE900049E
:101B8000034646210B4A0846FFF74BFFFEE70000DD
:101B9000001002400000002057656C636F6D6520E7
:101BA000202020204261636B206461633730720023
:101BB0001429000894420008000000000000000002
:101BC0000000000000000000000000000000000015
:101BD0000000000000000000000000000000000CF9
:101BE000000C000C000C000C000C000C000C000C95
:101BF000000C000C0000000C000C000000000000B5
:101C00000000001B001B001B001B001B000000004D
:101C100000000000000000000000000000000000C4
:101C20000000000000008019801980198019C07F11
:101C3000C07F80190033C07FC07F00330033003382
:101C400000330000000000000000001E003F80750F
:101C500080650074003C001E00078005806580657B
:101C60008075003F001E00040004000000000070AA
:101C700000D840D8C0D880D900730006000C801B63
:101C8000C036C066C046C0068003000000000000E9
:101C90000000001E003F003300330033001E000C24
:101CA000C03CC066806380618063C03E801C0000D1
:101CB000000000000000000C000C000C000C000CE8
:101CC0000000000000000000000000000000000014
:101CD000000000000000000080000001000300067A
:101CE00000060004000C000C000C000C000C000CA2
:101CF0000004000600060003000180000020001020
:101D00000018000C000C0004000600060006000687
:101D1000000600060004000C000C00180010002053
:101D20000000000C002D003F001E003300000000EA
:101D300000000000000000000000000000000000A3
:101D400000000000000000000000000C000C000C6F
:101D5000000CC0FFC0FF000C000C000C000C0000C9
:101D60000000000000000000000000000000000073
:101D70000000000000000000000000000000000063
:101D80000000000C000C000400040008000000002B
:101D90000000000000000000000000000000001E25
:101DA000001E000000000000000000000000000015
:101DB0000000000000000000000000000000000023
:101DC00000000000000000000000000C000C0000FB
:101DD00000000000000000030003000300060006EE
:101DE00000060006000C000C000C000C0018001887
:101DF00000180000000000000000001E003F00333B
:101E0000806180618061806D806D806180618061B2
:101E10000033003F001E000000000000000000062C
:101E2000000E001E00360026000600060006000612
:101E30000006000600060006000600000000000084
:101E40000000001E003F80738061806180010003FC
:101E50000006000C001800300060807F807F0000CA
:101E6000000000000000001C003E0063006300034F
:101E7000000E000E00038001800180618073003F2E
:101E8000001E00000000000000000006000E000E12
:101E9000001E001E0016003600360066807F807F20
:101EA0000006000600060000000000000000007FA1
:101EB000007F006000600060006E007F8063800132
:101EC000800180618073003F001E00000000000060
:101ED0000000001E003F803380610060006E007FC4
:101EE00080738061806180618033003F001E00004C
:101EF000000000000000807F807F8001000300035D
:101F000000060006000C000C000C00080018001869
:101F100000180000000000000000001E003F806369
:101F2000806180610021001E003F806180618061CE
:101F30008061003F001E0000000000000000001E45
:101F4000003F00738061806180618073803F801DED
:101F5000800180610073003F001E0000000000004F
:101F600000000000000000000000000C000C000059
:101F700000000000000000000000000C000C000049
:101F80000000000000000000000000000000000051
:101F9000000C000C00000000000000000000000C1D
:101FA000000C000400040008000000000000000015
:101FB00080008003000E003800600038000E8003AF
:101FC0008000000000000000000000000000000091
:101FD000000000000000807F807F00000000807F04
:101FE000807F0000000000000000000000000000F2
:101FF000000000000000000000400070001C00070E
:1020000080010007001C007000400000000000007C
:10201000000000000000001F803FC071C060C000D1
:10202000C00180030007000E000C000C0000000C33
:10203000000C0000000000000000001E003F803186
:1020400080718063806F806D806D806F80670060BD
:102050000032003E001C0000000000000000000EE6
:10206000000E001B001B001B001B80318031803FD5
:10207000803F8031C060C060C06000000000000090
:102080000000007C007E0063006300630063007E4C
:10209000007E0063806180618063007F007E0000BD
:1020A000000000000000001E003F803180610060E1
:1020B0000060006000600060006080618031003F6F
:1020C000001E0000000000000000007C007F006394
:1020D0008063806180618061806180618061006374
:1020E0000063007E007C0000000000000000807F94
:1020F000807F0060006000600060007F007F006003
:10210000006000600060807F807F000000000000B1
:102110000000807F807F0060006000600060007FC2
:10212000007F0060006000600060006000600000F0
:10213000000000000000001E003F80318061006050
:102140000060006080638063806180618031803FD7
:10215000001E0000000000000000806180618061BE
:10216000806180618061807F807F8061806180612B
:102170008061806180610000000000000000003F7D
:10218000003F000C000C000C000C000C000C000CBC
:10219000000C000C000C003F003F0000000000009D
:1021A00000008001800180018001800180018001A8
:1021B00080018001806180618073003F001E00000B
:1021C000000000000000C0608061006300660066DF
:1021D000006C0078007C00660066006380618061AE
:1021E000C0600000000000000000006000600060AF
:1021F00000600060006000600060006000600060DF
:102200000060807F807F0000000000000000C0713F
:10221000C071C07BC07AC06AC06AC06EC064C06052
:10222000C060C060C060C060C0600000000000000E
:10223000000080718071807980798079806D806DF7
:10224000806D806580678067806780638063000041
:10225000000000000000001E003F0033806180612C
:102260008061806180618061806180610033003FB6
:10227000001E0000000000000000007E007F806360
:102280008061806180618063007F007E006000600B
:102290000060006000600000000000000000001E00
:1022A000003F003380618061806180618061806176
:1022B000806580670033803F401E00000000000002
:1022C0000000007E007F8063806180618063007F0A
:1022D000007E00660063006380618061C060000072
:1022E000000000000000000E001F8031803100302F
:1022F0000038001E00078003806180618031003F4C
:10230000001E0000000000000000C0FFC0FF000C25
:10231000000C000C000C000C000C000C000C000C5D
:10232000000C000C000C00000000000000008061A8
:102330008061806180618061806180618061806195
:10234000806180618073003F001E0000000000007B
:102350000000C060C060C060803180318031001BEF
:10236000001B001B001B000E000E000E00040000EE
:10237000000000000000C0C0C0C0C0C0C0C0C0C0DD
:10238000C0CC804C804C805E8052805280738061D3
:1023900080610000000000000000C0C0806080611B
:1023A0000033003B001E000C000C001E001F003B11
:1023B00080718061C0C00000000000000000C0C04B
:1023C0008061806100330033001E001E000C000C91
:1023D000000C000C000C000C000C000000000000C1
:1023E0000000803F803F8001000300030006000CD6
:1023F000000C0018001800300060807F807F000013
:1024000000000000000F000F000C000C000C000C7E
:10241000000C000C000C000C000C000C000C000C5C
:10242000000C000C000F000F00000018001800182E
:10243000000C000C000C000C000600060006000654
:10244000000300030003000000000000001E001E47
:10245000000600060006000600060006000600064C
:10246000000600060006000600060006001E001E0C
:102470000000000C000C001E0012003300338061CD
:10248000806100000000000000000000000000006B
:10249000000000000000000000000000000000003C
:1024A000000000000000000000000000000000002C
:1024B00000000000E0FF0000000000380018000CE1
:1024C000000000000000000000000000000000000C
:1024D00000000000000000000000000000000000FC
:1024E000000000000000001F803F80618001801F0D
:1024F000803F80618063807FC03800000000000062
:1025000000000060006000600060006E007F80736B
:1025100080618061806180618073007F006E000057
:102520000000000000000000000000000000001E8D
:10253000003F807380610060006080618073003FB5
:10254000001E0000000000000000800180018001EA
:102550008001801D803F8073806180618061806127
:102560008073803F801D000000000000000000001C
:10257000000000000000001E003F00738061807FAB
:10258000807F00608071003F001E0000000000009E
:102590000000C007C00F000C000C807F807F000C83
:1025A000000C000C000C000C000C000C000C0000D7
:1025B000000000000000000000000000801D803FBF
:1025C000807380618061806180618073803F801D45
:1025D00080018063007F003E0000006000600060BA
:1025E0000060006F807F80718061806180618061A8
:1025F0008061806180610000000000000000000632
:10260000000600000000003E003E00060006000636
:10261000000600060006000600060000000000009C
:102620000006000600000000003E003E0006000616
:10263000000600060006000600060006000600462A
:10264000007E003C0000006000600060006080616F
:1026500000630066006C007C0076006300638061AC
:10266000C0600000000000000000003E003E0006C8
:10267000000600060006000600060006000600062A
:102680000006000600060000000000000000000038
:1026900000000000000080DDC0FFC0CEC0CCC0CC78
:1026A000C0CCC0CCC0CCC0CCC0CC0000000000006E
:1026B00000000000000000000000006F807F8071BB
:1026C00080618061806180618061806180610000E3
:1026D0000000000000000000000000000000001EDC
:1026E000003F807380618061806180618073003F02
:1026F000001E0000000000000000000000000000BC
:10270000006E007F80738061806180618061807372
:10271000007F006E0060006000600060000000004C
:1027200000000000801D803F8073806180618061B7
:1027300080618073803F801D800180018001800165
:10274000000000000000000000000067803F00392A
:102750000030003000300030003000300030000029
:102760000000000000000000000000000000001E4B
:10277000803F80610060007F803F80018061007F3A
:10278000001E00000000000000000000000800180B
:102790000018007F007F00180018001800180018AB
:1027A0000018801F800F00000000000000000000E3
:1027B00000000000000080618061806180618061B4
:1027C000806180618063807F803D000000000000A8
:1027D00000000000000000000000C0608031803177
:1027E0008031001B001B001B000E000E00060000C5
:1027F000000000000000000000000000000080DD7C
:1028000080DD80DD005500550055007700770022FF
:102810000022000000000000000000000000000096
:102820000000806100330033001E000C000C001E0D
:102830000033003380610000000000000000000051
:102840000000000080618061803100330033001B94
:10285000001B001B000E000E000E001C007C007010
:1028600000000000000000000000C07FC07F800169
:1028700000030006000C00180030C07FC07F00007D
:102880000000000080038007000600060006000626
:102890000006000E001C001C000E000600060006CC
:1028A00000060006800780030006000600060006FA
:1028B00000060006000600060006000600060006E8
:1028C0000006000600060006000600060038003C70
:1028D000000C000C000C000C000C000E00070007A0
:1028E000000E000C000C000C000C000C003C00382A
:1028F0000000000000000000000000000000803820
:10290000807F004700000000000000000000000081
:1029100000000000508C5194919C71947194929C91
:10292000B29C7194308CEF83EF830F84308CB19420
:1029300033A575AD95AD75AD95ADB5B5B6B5D6BD8F
:1029400095B554AD34A5F29C9194718C508C0F8444
:10295000CD7BCD7BCE7BCD7BCD7BAD73CE7BCE7B5C
:10296000EF7B0F843084508C718C9194D29C13A592
:1029700075ADB6B5D7BDF7BDF7BD18C6D7B5D7B5D8
:10298000D7BDB7B596B576AD35AD14ADF3A414A5E6
:1029900014A514A5308C5094719450945094709454
:1029A00071947094308C0F8C308C508C508CB1940E
:1029B000139D54A554A554AD75AD95B595B5B6B553
:1029C00075AD34A513A5D29C708C308C0F84CE7B52
:1029D000AD73AD73CD7BCD7BCD7BCE7BEE7BEE83BC
:1029E000EF83EF83EF83EF83EF830F847194B194D0
:1029F000F3A434AD95B5B6BDD7BDF7BDD7B5D7B542
:102A0000D7BDB7B596B555AD35AD14A5B29CD39C21
:102A1000D39CD39C108C308C308CEF830F840F8C24
:102A20002F8C0F8C0F840F84308C708C508C919471
:102A3000D29CF39C13A533A554A574AD75AD95B583
:102A400075AD34A513A5D29C508C3084EF83EE7BFA
:102A5000CE7BCE7BCE7BCD7BCE7BEE83EE83EE83B7
:102A6000EE83EE7BCE7BAE7BAE7BAE7B0F841084A1
:102A7000508CB29C13A554AD95B596B5B6B5B7B507
:102A8000B6B596B575AD35AD14A5F3A4B29CD39C7F
:102A9000D39CD39C6D734C6B4C6B4D6B4C6B2C6B04
:102AA0006D73EF834C6B91942F84708C7094919420
:102AB0007194508C7194F3A434AD34AD75AD95B56B
:102AC00075AD34A5F39CD29CB29C9294308C0F844B
:102AD0000F840F84CE83EF83308CEF83508CCE83B2
:102AE000AE7B8D734C6B2C6B6D6B6D6B2C6BAE7307
:102AF000AE7B308CB29CD2A413AD14AD55AD55ADA8
:102B000034AD14A514A534AD14A5B29C9294B29C16
:102B1000B29CD29C284A0742E74107428631484A84
:102B2000484A694ACA5A2B6BCE7B7094919491940F
:102B30009194509451949294D39CF3A434A555ADA0
:102B400075AD55AD34A513A5F3A4D29C7194508CEA
:102B5000508C308C0F8C308C5094108C0F8C6D738B
:102B6000CB628952494A484A2842E739C739E7398E
:102B7000C6390742CB62AE7B7194D2A4B29CD3A477
:102B8000F3A4B29CB29CD39CD39C92949294B29C9A
:102B9000B29CD29C452924292429452945294C6BDE
:102BA0000B638531E741284ACE7B508C91949194F8
:102BB00091947194508C308C5194929CD39C14A518
:102BC00075AD75AD55AD54AD34AD13A5B29C929CA9
:102BD000929C91947194919C919C5094EF834C732E
:102BE0006952E741A639A639E841284208426529D9
:102BF000042144298531A639284A0B6BCE7B308CC1
:102C000071947194518C7194919492949194B29C1A
:102C1000B29CD29C242904292529453145294D6B94
:102C20008D73C6398531A6392C6BEE837094509420
:102C300070947194308CEF83108C9294B29CF3A4B6
:102C400054AD75AD75AD75AD54AD34ADF3A4D3A42D
:102C5000F3A4D29CB29CD2A4D2A450948E7BAA5A44
:102C6000C63985318531652986310842A73925293C
:102C700065318631453144296531E741AA5A4C6BAB
:102C8000CE7BEF83EF831084508C71949194B29C2F
:102C9000D29CD29C2529252925296631E4200421AE
:102CA000C7396952A639A639E7414C6B2F8C4F8C36
:102CB000709470942F8CCF830F8C71949294D39CCA
:102CC00014A534AD34AD34AD34AD14AD13A5F3A4B7
:102CD000F3A4F3A4D3A4F3A4B29C308C4D73484A5C
:102CE0004531A639E74145290421C73908428631D3
:102CF000863144294429C639A6398531C639484A1E
:102D0000EB626D73AE7BEF83308C508C9194B29CF0
:102D1000D29CD29C4629262946298731CB5A663136
:102D200045298A52E7418952C639A95A0F844F8CE6
:102D3000709470942F8CEF830F8C50949194D39C4B
:102D4000F3A414A5F3A414A513A5F3A4F3A4F3A466
:102D5000F3A4F3A4F3A4F3A4929CCE83EB62695290
:102D6000E741E741E7392421A7314D6B929429428D
:102D7000663165296531853124298639A639284A85
:102D8000EB626D73CE7B0F84308C518C9194929456
:102D9000D29CD29C463146316731C83952946E7309
:102DA000C739494AE741EB62074A484AEE832F8C0C
:102DB000709450942F8C2F8C308C308C7194B29CEA
:102DC000F3A4F3A4F3A4F3A4D2A4B29CD2A4D2A4F7
:102DD000F3A4F3A4F3A4F3A471948D7B69528A52F3
:102DE000284AC73966310421E839F07BF49CE73979
:102DF0004529A63166314529452969526952EB6258
:102E00008D730F84308C308C308C518C71949194F4
:102E1000B294D29C462926296731A8398F734E6B0C
:102E200045290842294A284AA639484ACE7B2F8C90
:102E3000709450942F8C5094709450947194B29CD0
:102E4000F3A4F3A4F3A4D3A4B29C929CB29CD2A406
:102E5000F3A4F3A4F3A4F3A450944D730B630C6395
:102E6000494AC739E84186316629494AEC5A6629F8
:102E7000A6314529E3188631C739494A0B638D735A
:102E8000308C7194508C0F840F84308C508C7194E2
:102E90009194B29C4631473147316731A739873920
:102EA000A7390842F083EF83E7416952AD7B0F8C6D
:102EB000709450942F8C509450943094719C929CA8
:102EC000D2A4F3A4F3A4D3A4B2A4929CB29CD2A49F
:102ED000D2A4D2A4F3ACD2A40F84EB620B6371949E
:102EE0000842C7390C6345296631C739C7394629B5
:102EF0006631A73145298631084A6952CE7B508C0C
:102F00009194308CEF830F84508C508C308C508C8B
:102F100091949194052105294631873987314529B6
:102F2000A739AB5AD3A4D3A46952274A2B6BCE7BC3
:102F3000508C5094509450945094108C919C929C2E
:102F4000B2A4D3A4D3A4B2A4929C919C929CD2A4E8
:102F5000D2A4D2A4F3A4D2A4EE83EA62C641CB5A8F
:102F6000AF7B0C6376B5294AA7314529A731863155
:102F7000652904210421E7410C638D730F8471944A
:102F80007194EF838D73AD73EF832F842F84508CF6
:102F9000718C9194E420C42005296631252966317D
:102FA000294A294A8A5A8A5A284A4C6B4C73CE833A
:102FB000509470947194719451943094719C929C3B
:102FC00092A4B2A4B2A4929C919C719C919CD2A414
:102FD000F2A4F2A4F3A4B29CCE83CA62CA628A5A53
:102FE0000C63494A4D6B494AA631AB5A694ACB5AE0
:102FF0008A52E741E741AA5A2C6B4D73EF83308C1C
:10300000308CAE7B4C6B4C6BAE7BEF830F84308C83
:10301000508C508C8631252905294631A739A7398E
:10302000494A284A284A284A48522B6BCE832F8C7B
:10303000919C919C7194719471945194719C719C28
:10304000719C929C919C919C719C719C919CD2A42E
:10305000F3A4F3A4F2A4919CAD7BCA628A5A69528C
:10306000E7418A52695210848E7355AD96B575B595
:10307000CF7B0842E741AA5A8D7B108CEF830F84E7
:10308000CE7B6D734C6B4C6B8D73AE7BEF830F847B
:103090002F843084284AC741A6398639284A0842F5
:1030A0006952AA5AEB620B6B2B6B6C73EF835094D3
:1030B000919C919C5194309430943094519C519CAB
:1030C000519C719C719C719C719C919C919CD2A40F
:1030D000F3ACF3ACF2A4919CCE830B6BAA62AA6210
:1030E000EB62CA62EB620C63AA5AAA5A6A52CB62BA
:1030F0008A5A6A5A2C6BAE83EF83308C308CEE8305
:103100008D732C6B2B6B4C6B6C736D73CE7BEE8362
:103110000F840F84CA62895A4952284A8A52EB6244
:103120002C6B4C730C6B2C6BCE7B7194EF83509497
:10313000929CB2A4719C3094108C10943094319471
:10314000519C519C719C719C719C719C919CD2A4CE
:10315000F3ACF3ACF2A4B19C0F8C8D7B6D738D7BC3
:10316000AE834D73CF836D736E7BCB5AEB62EB6294
:10317000EB622C6B8E7BCF83CF83EF8BAE7B4C6B64
:10318000CA5A895ACA5A2B6B6C738D73CE7BCE7B0D
:10319000EE7B0F84AD7B6D734D734C73AE7BEF8311
:1031A000EF83308C719450942F8C508C0F8C7094D2
:1031B000B29CB2A4719C3094108C109430943094D2
:1031C00030943094519C519C519C519C719CB29C68
:1031D000F2A4F3ACF3ACD2A4719C2F8CEF8B50947F
:1031E000519471947194929C308C108CEF83CF83A6
:1031F000AE838D7B4D736D738D7B6D7BCA62A95AD7
:1032000069526952AA5A0B636D73AE7BCE7BCE7B3B
:10321000CE7BEE7B71949194719471947194B29C75
:1032200071949194D2A4919C7094919C5094719CAF
:10323000919C719C3094EF8BEF8B108C1094309498
:103240003094309430943094309430945094919CD5
:10325000D2A4F3AC13ADF2A4D2A4919CB29C919CE5
:1032600014ADD2A414ADF3A4929CF3A4D3A4D2A41D
:10327000B2A4308C4C732C6B2C73CA626952895285
:10328000AA5ACA620B632B6B6C73AD7BAE7BCE7B91
:10329000CE7BEE7B7194B29CD2A4F3A4F3A4F3A4EE
:1032A00013A513A5F3A4D2A4B29CB29C919C719CCB
:1032B000919C719C3094CF8BCF8B10940F940F9472
:1032C0000F940F9430945094709C719C5094919CE6
:1032D000B2A4F3A4F3A4F3A4F2A4D2A4F3A413A578
:1032E00034AD54B575B554B554AD34AD14AD919CF1
:1032F000108CCF836D7B2C6B0B6BCB62CA62EB6245
:103300000C6B4C6B6D738D736D736D73AD7BAD7B9F
:10331000CE7BEE837194B29CF3A413A534AD33AD90
:1033200033A513A5F2A4F29CD29CB29CB29CB29C91
:10333000929C719C1094CF8BAF8BEF93EF930F8C7B
:103340000F8C0F942F945094709C719C5094719C8E
:10335000B29CD2A4F3A4F3A4F3A4F2A4F3A434ADD6
:1033600074AD95B575B534ADF3A4D29C5094EF838C
:10337000CE83CE836D7B4C730C6BEB620B6B2C6B33
:103380004C6B4D734C734C6B4C734C73AD7BCE7B61
:10339000EE830F84B29CF3A434AD54AD54B554AD58
:1033A00013ADF3A4F29CD29CF3A4F3A4B29CB29C00
:1033B000919C5094EF8BAE838E83CE8BCE8BEE8B15
:1033C000EE8B0F8C0F943094509C709C50945094C2
:1033D000919CB2A4D2A4F3A4F3A4F3A4F3A433A5C0
:1033E00054AD95B595B575B534AD13A5D3A4919CE1
:1033F00071947194108CCF83AE7B4D73EB620C6B28
:103400002C6B2C6B2C6B2C6B4C6B4C73CE7BEE8330
:103410000E842F8CF3A434AD54AD75B534AD13AD1B
:10342000F3A4D2A4D29CF29CF3A4F3A4929C919C0A
:103430005194108CAE836D838E83AE8BAE8BCE8B0E
:10344000CE8BEE8B0F8C0F94309450942F9430943D
:103450007194919CD2A4F2A4F3A4F3A4F3A413A5B1
:1034600034AD74AD75B595B595B595B513ADB29C44
:1034700071945094EF83AE838D7B2C6B2C6B4C6BD3
:103480006D734D732C6B4C6B6D73AD7BEE830F8442
:103490002F8C4F8CF3A413A513AD34AD13A513A536
:1034A000F3A4D2A4D29CD29CD2A4F2A4919C919CCD
:1034B0005094CF8B6D7B4C7B4D7B8D838D838D8327
:1034C000AD8BCE8BCE8BEE8B0F8C0F940F8C0F941D
:1034D0005094919CD2A4F3A4F3A4F3A413A533A510
:1034E00034AD54AD54AD54AD54AD54AD95BD34ADC3
:1034F00013ADF3A4B29C919C5094EF83AE7BCE7B32
:10350000CE83CE7BAE7BAE7BCE830F842F8C2F8C75
:103510002F8C2F8CD29CD2A4F3A4F3A413A513A5B3
:10352000F3A4F2A4D29CD29CB29CB19CB29C919C7C
:103530003094AE832C7B0C732C7B4C7B6D836D8322
:103540008D838D83AD83AE8BCE8BCE8BCE8BEE8B6E
:103550002F8C709CD2A4F3A4F3A4F2A4F3A413A51B
:1035600034AD54AD54AD34AD13AD13A513ADD3A4E8
:10357000F3A4D2A4919C7194108C8E7B6D738E7B7E
:10358000AE7BCE7BCE7BEE830F8C508C2F8C2F8C22
:103590002F8C2F8C9194919CB29CD29CD3A4D3A4B9
:1035A000D2A4D29CB29CB19C919C919C919C719410
:1035B0000F8C6D7BEB72EB6AEB720C7B4C7B4C7B64
:1035C0006C836C836D838D838D838D838D83AD83BD
:1035D000EE833094919CD2A4D2A4B29CD29CF3A44A
:1035E00013A534AD34AD34AD13A5F3A4D2A4B29C6D
:1035F000B29C919C5094308CEF836D734C736D73BF
:103600008D7BCE7BEE830F84308C508C2F8C4F8C37
:103610004F8C4F8C308C508C7194B29CB29CB29C6D
:10362000B29CB29C919C9194919C919C50942F94AB
:10363000CE832C73AA6AAA6AEB720B734C7B4C8301
:103640004C834C7B4C7B4C7B4C7B6C7B4C734C7B22
:10365000AD830F8C7094919C919C719CD3A4D2A447
:10366000D29CD29CD29CD29CD29CD29CD2A4919C23
:10367000919C7194509451945094EF830F840F84D3
:103680000F84308C308C308C2F8C2F8C2F8C2F8C87
:103690004F8C70940F84308C308C508C509451949B
:1036A00050945094308C308C50947094509430944A
:1036B0008D83A962485A8962EA72EB72EB726C835D
:1036C0006D834C836C836D834C7B4C7B0B732C73B1
:1036D0006C7BCE830F8C7094919C719CB29C919C5E
:1036E000519451947194919C919C919C919491943A
:1036F0009194B29C919C7194308CEF83EF83EF8313
:10370000308C508C5094508C508C2F8C4F8C4F8C14
:103710004F8C4F8CEF83EF83EF83EF83EF83EF8347
:10372000EF83EF83EF830F8C308C50942F8CEF8BD3
:103730006C7BCA6A485A285A6962CA720B7B6C83CE
:103740006D834C836D8B8D832C7B0B73A962CA6A4E
:103750002B736C7BEE8B5094709450947094308CDF
:103760000F8C0F8C308C50945194509471945094D1
:10377000508C508C508C308C0F84EF830F840F84CE
:10378000308C308C508C508C4F8C2F8C4F8C4F8CBD
:103790004F8C4F8CEF83EF83EF83CE83CE83CE832A
:1037A000AE7BAE7BAD7BAD7BCE83EE830F8CCE83C9
:1037B0004C7BEA6A685A07524862AA6A0B7B4C83C0
:1037C0004C832C836C836C830B73CA6AA962EA6A8C
:1037D0002B734C73CD832F942F8CEE830F8CEF8340
:1037E000CF83EF830F8C308C308C308C5094508C86
:1037F000508C308C0F840F840F842F84308C308C4D
:10380000308C308C308C4F8C2F8C2F8C4F8C4F8C7D
:103810002F8C2F8CAE7BAE7BCE7BEF83CF83CE8382
:10382000CE83AE7BAE7BAE7BAD7BAE830F8CCE8387
:103830004C7BEA6A896268626962896ACA720B7B38
:10384000EB7AEA7A0B7B0B7BEA72CA6AEB722B7318
:103850004C734C73AD7B0F8C0F8CAD7BEF83CF83A0
:10386000CE83CE83EF830F8C0F8C108C508C508CBA
:10387000308C308C0F840F84308C508C308C508C7A
:10388000508C508C508C508C508C4F8C4F8C2F8C7B
:103890002F8C2F8C4C734C738D73AE7BAE7BAE83B1
:1038A000CE83CE83EE83EE83EE83CE83CE83AD8351
:1038B0004C7BCA6A8962C96AA96A6862686AAA7224
:1038C000AA72896AAA72CA72EA722B7B0B732B7B6B
:1038D0002B732B738D7BEE8B0F8CCE83CE83CE839D
:1038E000AE83AE83CE83CF83EF83EF83EF830F84EA
:1038F0000F84EF83EF83EF830F84308C2F8C308C19
:10390000508C70947094508C4F8C2F8C2F8C2F8CEB
:103910002F8C2E8C2C6B2C6B6D738D7B8D7B8D7B0C
:103920008D7B8E7BAE7BAD7B8D7B6D7B8D7B8D7B35
:103930004C73CA6AA96AEA72CA6A48622862696AEA
:10394000696A486A696A896ACA724C7B2B7B2B7BDD
:103950002B732B734C738D7BAD7B8D7B8D7B8E7B23
:103960008E7B8D7B8E7BAE7BAE7BAE7BCE7BCE7B30
:10397000CE7BCE7BCE7BEF830F840F840F842F8C86
:10398000508C50947094508C2F8C0E842F8C2F8CD4
:103990002E8C2E8C2C6B2C6B6D738D738E7B6D7BB4
:1039A0006D734D736C734C734C732C736C736C7BB5
:1039B0006C7B2B73EA72EA72A96A686A2762486AAA
:1039C000286228626862896ACA724C7B2C7B2B73DE
:1039D0002B734C734C732B732B734C736D7B6D7B00
:1039E0006D7B8D7B8D7B8E7BAE7BAE7BCE7BAE7B12
:1039F000AE7BAE7BCE7BEF830F842F84308C508CDC
:103A0000508C5094508C4F8C2F8C0F842F8C2F8C7B
:103A10002E8C2F8C0B634C6B6D734D73AE7B8D7B3B
:103A20006D736C736D7B8D7B8D7B8D7B6C738D7BF0
:103A3000AD83AD834C7BCA72A96AA97228624862C1
:103A40000762075A4862696AAA6A0B730B73EB72C2
:103A50002B736C7B6D7B4C734C738D7B6D7B6D7BA3
:103A60008D7B8E7B8E7BAE7BCE83CF83CE7B8D7B1F
:103A70006D736D73AD73CE7B0F840F8490949094AF
:103A80007094709470944F8C2F8C2F8C0E842F8C8C
:103A90002F8C4F8C0C630C6B2C6B4C736C736C7396
:103AA0004C736C738D7B8D7BAE83AD83AD838D83C7
:103AB0008D836C834C7B0B73AA6A896A696A896AF5
:103AC000696A48626962896ACA6ACA6A2C7B2C730D
:103AD0004C738D7B8D7B8D7B8D7B8D7BCE83AE7B85
:103AE0008D7B8D7BAD7BAE7BCE83CE83AD7BAD7B83
:103AF000AD7BAD7BAD7BCE7B0E842F84EE832F8C94
:103B00004F94909CB19CB19C909C909490944F8CBD
:103B10000E8C0E8C0C6B0C6B0C6B0B6B2C6B2B6B69
:103B20002B6B4C6B4C734C736C7B6C7B4C7B2C7B8E
:103B30000B73EB72CA6AA96A69624862896A896A08
:103B4000696A49626962AA6ACA6ACA6AEB6AEB6A06
:103B50000B6B2C734C732C732C6B2C738D7B6D7BCC
:103B60004D736D738D7BAD7BAD7BAD7B8D73AD7B0D
:103B7000AD7BAD7BCE7BEE830E842F8C2F8C0E8C99
:103B8000EE83CD83EE832E8C6F94909C909C909CC2
:103B900090946F940C6BEB62CB62CA620B6B2C6BD4
:103BA0004C734C734C734C732C732C732C730B73BE
:103BB000EA6ACA6AA96A896289626962896A896AE3
:103BC000696A496269628962AA6AAA6ACA6ACA6A31
:103BD000EB6A0C732C732C732C6B2C734C732C733F
:103BE0002C734C736D738D7B8D7B8D7B8D73AD7B57
:103BF000CE7BEE83EE830E840F840E842F8C0E8C8E
:103C0000EE83ED83ED83EE830E8C2E8C0E8C4F9421
:103C1000B09CB09C2C6BEB62CB62CA5A0B632B6BD3
:103C20004C6B6C734C734C732C732C734C730B7305
:103C3000EB6ACA6ACA6AA96AA96289626962696228
:103C4000496249626962696269628962AA62CA629A
:103C5000EB6A0B6B2C734C734D734D732C6B2C7385
:103C60004C734D736D738D7B8D7B8D7BAD7BCE7B6C
:103C7000EF830F840F840F840F840E84CD83ED8334
:103C80000E842E8C2F8C4F8C4F8C4F8C0E8C2E8C48
:103C90002F8C6F944C6B0C630B63EB62CB5AEB6213
:103CA0002B632C6B2C6B2C6B0C6B0B6B0B6BEB6A09
:103CB000EB6ACA6AAA62AA62896269624862486259
:103CC000486249624962485A485A485A895A8A623F
:103CD000AA62CA62EB6A0C6B2C6B2C6B2C6B2C737C
:103CE0004D734D736D736D738D7B8D7BAE7BCE830A
:103CF0000F842F8C2F8C2F8C2F8C2F8CEE83CD83C9
:103D0000CD83CD830E844F94909CD19CB19C909494
:103D10004F8C2E8C6D734C6B2C6B2C6BCA5ACB5A00
:103D2000EB620B632C6B2C6B2C6B0B6B0B6BEB6AD2
:103D3000CA62CA62AA62A9628962696269624862E9
:103D4000696289628962695A485A685A8962AA62B4
:103D5000AA62CA62CB62EB6AEB6AEB620C6B2C73F1
:103D60004D734D736D736D738D7B8D7BAE7BCE8389
:103D7000EF830F842F8C308C508C508C2F8C0E8CBA
:103D8000ED83CD83ED830E842F8C4F947094B09C83
:103D9000B19C909CAE738D736D6B4D6B0B63EB5A46
:103DA000CA5AEB5A0C632C6B2C6B0B6BEB62EB62FD
:103DB000CB62CA62CA62AA62AA62A9628962896285
:103DC000AA62CA6ACA6A896289628962AA62CA6286
:103DD000CA62CA62CB62EB6A0B6BEB6A0C6B2C6B30
:103DE0004D734D736D738D7B8E7BAE7BEF83EF8355
:103DF000EF83EF830F840F842F8C508C4F944F945C
:103E00004F8C2F8C2E8C0E84ED83CD830E844F8CA3
:103E1000B09CD19CCE7BAE738D736D6B0B63CA5A15
:103E2000AA52CA5A0B632C6B0B6BEB62EB62CB6230
:103E3000AA62AA62AA62CA62CA62CA62CA6AAA6A92
:103E4000CA6AEB72EB72CA6ACA62CA62AA62CA62C0
:103E5000EB62CA62EB620C6B2C6B0B6B0C6B2C6B0A
:103E60004D736D736D738D7BAE7BCF830F8C0F8421
:103E7000EF83EE83CE7BEE830F842F8470946F9458
:103E80006F944F944F944F8C4F8C2F8C6F942F8C3A
:103E90000E8C2F8CCE7BAE7B8D736D732C6B2C6355
:103EA0000B63EB62EB62EB62CA5ACA5AAA5AAA5A6D
:103EB000AA62CA62EA62EB620B6BEB6AEB6AEA6ABD
:103EC000EB720B732C732C732C732B730B730B6BA8
:103ED0000B6B0B6BEB62EB62EB62EB622C734C7364
:103EE0004D736D738D7BAE7BEF83308C0F840F8CA5
:103EF0002F8C0F84EE83CE7BCE7BEE7BEE836F9494
:103F0000B09C90946F9490946F942E8C2E8C4F8CC8
:103F10004F944F94CE83CE7B8E738D734D6B4C6BD1
:103F20002C6B2C6B0C630B630B63EB62CA62CB6272
:103F3000EB620B6B0B6B0B6B2B6B0B6B2B730B73AA
:103F40002B732C734C7B6C7B4C7B4C734C734C7382
:103F50004C734C732C732C6B2C6B4C736D738D7B6F
:103F6000AE7BCE83EF830F8C0F8C0F8C508C508CDC
:103F70002F8C0E84EE83EE7BEE830E840E842E8CCB
:103F80004F944F946F94909C90944F946F946F942F
:103F90004F944F8CCE83AE7BAE7B8D738D736D73E0
:103FA0004C6B4C6B2C6B2C6B0C6B0B6B0B630B6BA4
:103FB0002B6B2C6B4C734C734C732C736C7B4C7B4A
:103FC0006C7B6C7B8D7B8D7B8D7B8D7B6D736D7B3B
:103FD0008D7B6D7B6D736D736D736D73AE7BAD7B20
:103FE000AE83EE830F8C2F8C0F84EE830F842F8C87
:103FF0002F8C4F8C4F8C2F8C0E84ED7B0E8C0E8C67
:104000000E8C2E8C6F94909490946F946F944F9428
:104010004F8C4F8CCE83AE7B8E7B8D7B8D736D737F
:104020006D734C6B4C6B2C6B2C6B2B6B2B6B2C6B51
:104030004C734C736C734C734C734C738C7B6C7BF8
:104040006D7B8D7B8D7B8D7BAD7BAD836D738D7B30
:104050008D7B8D7B8D7B8D7B8D7B8D7BEE83CE836E
:10406000AD7BAD7BCE83EE830E840E8CCD7BEE8359
:104070000E844F8C70946F944F8C0E844F8C2E8CCA
:104080000E8C2E8C4F8C4F944F946F946F944F9452
:104090004F944F94CE83CE83AE7BAD7B8D7B8D735F
:1040A0006C734C734C734C732C6B2B6B2B6B2B6B9B
:1040B0004C734C736C734C734C734C738C7B8C7B58
:1040C0008D7B8D7B8D7B8D7BAD7BAD7B8D7B8D7B70
:1040D000AE7BAE7BAE7BAE7BAE7BAE7BCE83CE8348
:1040E000CD83AD7BAD7BCD830E8C2F8C0E84EE8388
:1040F000CD7BCD7B0E844F8C9094B0946F946F9455
:104100004E8C4E8C2E8C0E8C2E8C4E8C6F946F940D
:104110006F946F94EF8BEE83CE83CE83AE7BAD7BBB
:104120008D7B8D736D736C734C734C732C734B73ED
:104130004C734C736C734C734C734C736C736C7B1F
:104140006D7B8D7B8D7B8D7B8D7B8D7B8D7B8D7B4F
:10415000AD7BAD7BAE7BAE7BAE7BAE7B8D7BAD7B3B
:10416000CD83CD83CD7BCD7BED830E842E840D84DA
:10417000ED7BCD7B0D842E846F8C6F946F948F9428
:104180008F946F942E8C0D840D840E8C2E8C2E8C1F
:104190004E8C4E8C0F8CEF8BEF8BEF8BCE83CE83C0
:1041A000AD7BAD7B8D7B8D7B6D7B6C7B4C734C7362
:1041B0006C736C736C736C736C736C736C736C7307
:1041C0008D7B8D7B8D7B8D7B8D7B8D7B8D7B8D7BAF
:1041D0008D7B8D7B8D7B8D7B8E7BAE7B8C7B8C7B7F
:1041E000AD7BCD83CD83CD83CD83CD83ED7BED833F
:1041F0000E842E8C2E842E842E840D844F948F94C6
:10420000909C6F944E8C4F942E8CED83ED83ED83B8
:104210000D842E8C0F8CEF8BEF8BEF8BEF83CE8387
:10422000CE83AD7BAD7B8D7B8D7B8C7B6C7B6C7B08
:104230006C7B6C7B6C7B6C7B6C7B6C7B4C736C7B6E
:104240008D7B8D7B8D7B8D7B8D7B8D7BAD7BAD7BEE
:10425000AE7BAE7BAD7BAE7BAE83CE83EE83CD8378
:10426000CD83CD83EE830E840E84ED83ED830D84A8
:104270000E8C0D840D840D842E842E8C2E8C6F94C8
:104280008F946F946F94B09C6F94ED832E8C0E8CF2
:104290000E8C4E8C000000100018101C2836442490
:1042A000BA1C10087C7C544A38497C780000000015
:1042B000000000000F0180961180FFB103012C2D3A
:1042C000B203012C2DB306012C2D012C2DB40107B6
:1042D000C003A20284C101C5C2020A00C3028A2A25
:1042E000C4028AEEC5010E20003A0105022A04002C
:1042F00000007F2B040000007F04E010021C071266
:104300003732292D29252B3900010310E110031D17
:1043100007062E2C292D2E2E373F00000210138069
:104320000A298064010202030405060708090A0B32
:104330000C0D0E0F10100000000000000000010224
:104340000304060708090000684300080000002075
:1043500024000000041A00088C43000824000020F8
:104360009C040000141A00080B120000B81B00087F
:10437000000000000000000000000000010000003C
:0C43800010000000000000000024F40009
:0400000508000131BD
:00000001FF
