:020000040800F2
:10000000B80400204501000813130008DF110008A0
:1000100011130008B10100083317000800000000A8
:10002000000000000000000000000000CD160008E5
:10003000C10100080000000015130008CF160008D9
:100040005F0100085F0100085F0100085F01000810
:100050005F0100085F0100085F0100085F01000800
:100060005F0100085F0100085F0100085F010008F0
:100070005F010008B50100085F0100085F0100088A
:100080005F0100085F0100085F0100085F010008D0
:100090005F0100085F0100085F0100085F010008C0
:1000A0005F0100085F0100085F0100085F010008B0
:1000B0005F0100085F0100085F0100085F010008A0
:1000C0005F0100085F0100085F01000819130008C4
:1000D0005F0100085F0100085F0100085F01000880
:1000E0005F0100085F0100085F0100085F01000870
:1000F0005F0100085F0100085F0100085F01000860
:100100005F0100085F0100085F0100085F0100084F
:100110005F0100085F0100085F0100085F0100083F
:100120005F0100085F0100085F0100085F0100082F
:10013000DFF80CD000F02AF800480047AD1700089F
:10014000B80400200648804706480047FEE7FEE75F
:10015000FEE7FEE7FEE7FEE7FEE7FEE7FEE7FEE777
:100160003117000831010008D2B201E000F8012B7C
:10017000491EFBD270470022F6E710B513460A4627
:1001800004461946FFF7F0FF204610BD064C074D08
:1001900006E0E06840F0010394E807009847103457
:1001A000AC42F6D3FFF7C8FFC0700008E07000084B
:1001B000FEE70000014800F0C1B800007400002014
:1001C00070472DE9F04110F8015B044617E02078F4
:1001D00001F052FA6078A41C00F0800730F080062D
:1001E00004D03146204601F05BFA34443FB114F8A4
:1001F000010BFF2801D14FF4FA7000F001FA6D1ED7
:10020000EDB2E4D2BDE8F08172B6FEE72DE9F05F11
:1002100090F821100024022903D0042181630124D5
:1002200085E001680A6822F00E020A6001680A6827
:1002300022F001020A603F4E3E4FB215DFF8F4C0D3
:10024000DFF8F090DFF8ECA0DFF8E8B0DFF8E4E0EA
:100250000168783F13011502ACF1640CA9F1500953
:10026000AAF13C0AABF1280BAEF1140E4FF4801842
:10027000B14227D9B9420ED0614512D049451DD0AF
:10028000514518D0594518D0714501D1424615E065
:10029000294EB14201D1012210E0274E1436B1425D
:1002A00001D110220AE0244E2836B14206D0224A5B
:1002B0003C32914201D11A4600E02A461E49091FEC
:1002C0000A602BE0B94213D0614517D0494522D0CE
:1002D00051451DD059451DD0714501D142461AE006
:1002E000B14202D14FF0807215E0134EB14201D1FC
:1002F000012210E0104E1436B14201D110220AE062
:100300000D4E2836B14206D00B4A3C32914201D103
:100310001A4600E02A46074980394A60012180F8E0
:100320002110002180F82010416B01B18847204640
:10033000BDE8F09F80000240080402402DE9F05F14
:10034000C16B0A6801680B68046C4FF0040808FA76
:1003500004F8844D844E854FDFF814C2DFF8149200
:10036000DFF814A2DFF814B2DFF814E218EA020F83
:1003700065D05FEA437862D50A68920603D40A68BA
:1003800022F004020A60DFF8F0814FF48062016815
:1003900008F1140813011402414524D9A9420DD0D3
:1003A000B1420FD0B9421AD0614515D0494515D098
:1003B000514501D1120312E0594501D104220EE04A
:1003C000714501D140220AE06D4D1435A94206D095
:1003D0006B4A2832914201D11A4600E02246674911
:1003E000091F0A6029E0A94213D0B14215D0B942D1
:1003F00020D061451BD049451BD0514502D14FF457
:10040000800217E0414502D14FF0806212E0594569
:1004100001D104220EE0714501D140220AE0584D7D
:100420001435A94206D0564A2832914201D11A46C3
:1004300000E022464B4908394A60C16A71E04FF03A
:10044000020808FA04F818EA020F70D05FEA83780D
:100450006DD50A68920606D40A6822F00A020A607C
:10046000012180F82110DFF810814FF4007201683B
:1004700008F1140813011402414524D9A9420DD0F2
:10048000B1420FD0B9421AD0614515D0494515D0B7
:10049000514501D1120312E0594501D102220EE06B
:1004A000714501D120220AE0354D1435A94206D00C
:1004B000334A2832914201D11A4600E022462F49A0
:1004C000091F0A6029E0A94213D0B14215D0B942F0
:1004D00020D061451BD049451BD0514502D14FF476
:1004E000001217E0414502D14FF0007212E0594569
:1004F00001D102220EE0714501D120220AE0204DF7
:100500001435A94206D01E4A2832914201D11A461A
:1005100000E02246134908394A60002180F8201083
:10052000816A00291CD0BDE8F05F0847FFE7082575
:10053000A540154214D01A0712D50A6822F00E02FF
:100540000A6090F84020C36B012101FA02F25A6060
:10055000816380F82110002180F82010016BE0E712
:10056000BDE8F09F080002401C000240300002403D
:1005700044000240580002406C000240080402405F
:100580001C04024030B560B11A4B026814219A4233
:1005900009D2194B1344B3FBF1F1890001641749E7
:1005A0000AE0012030BD134B5B421344B3FBF1F171
:1005B000890001640F490839C163022180F82110C4
:1005C000136843F6F0718B43F0E901142143D0E93D
:1005D00002452C4321430469214344692143846932
:1005E00021431943116000214163012242770177C1
:1005F000084630BD08040240F8FFFDBF000002407D
:1006000070B5044600F010F90546601C02D004489D
:100610000078044400F008F9401BA042FAD370BDF2
:100620000C0000202DE9F84FDFF8C8910024A9F153
:10063000040B23460F2709F1040AABF1040ED1E0A5
:100640000125A54006EA0502AA4276D1DFF8A8C135
:100650004E68A6EB0C0866452BD00DDC032E34D07B
:1006600005DC36B3012E19D0022E2FD11BE0112E3E
:1006700016D0122E2AD119E0B8F5881F19D006DC41
:10068000B8F5803F15D0B8F5801F1FD111E0B8F53F
:10069000001F0ED0B8F5041F18D10AE0CB6815E092
:1006A000CB681B1D12E0CB6808330FE0CB680C331E
:1006B0000CE08B682BB1012B4FF0080303D0456190
:1006C00004E0042302E0056100E00023FF2A01D8D2
:1006D000064601E000F104064FEA840501D9A5F1C0
:1006E0002005D6F8008007FA05FC28EA0C0803FA72
:1006F00005F548EA0508C6F800804D68ED0070D59C
:100700003E4DAE6946F00106AE61AD6924F00306C8
:1007100005F0010500953A4D06EB050CDCF8085094
:10072000A607360F07FA06F825EA0805DFF8D48091
:10073000404503D14FF0000825E052E0DFF8C880C3
:10074000404502D14FF001081DE0DFF8C080404570
:1007500002D14FF0020816E0DFF8B480404502D124
:100760004FF003080FE0DFF8AC80404502D14FF0B6
:10077000040808E0DFF8A080404502D14FF00508EA
:1007800001E04FF0060808FA06F848EA0508CCF838
:1007900008804D68D9F80060ED024D4601D516433A
:1007A00000E096432E604D68DAF80060AD025546D1
:1007B00001D5164300E096432E604D68DBF80060DB
:1007C000AD035D4601D5164300E096432E604D68AB
:1007D000DEF80060ED03754601D5164300E0964350
:1007E0002E60641C0A681646E2407FF429AFBDE81B
:1007F000F88F0000080401400000111000100240B2
:100800000000014000080140000C014000100140C0
:100810000014014000180140001C01400AB10161B0
:1008200070470904FBE7000001488068704700003A
:100830000C000020024881680278114481607047F2
:100840000C000020074810B5016841F0100101605C
:10085000032000F075F8002000F006F800F024F8FE
:10086000002010BD0020024070B50D4D04464FF42D
:100870007A712878B1FBF0F00A490968B1FBF0F011
:1008800000F099FC48B9102C07D200222146501ED6
:1008900000F036F800206C6070BD012070BD0000D3
:1008A0000C000020180000200C4808B5816941F0B8
:1008B00001018161816901F001010091C16941F08B
:1008C0008051C161C06900F08050009004484168C7
:1008D00021F0E06141F00071416008BD001002406C
:1008E00000000140002809DB00F01F0201219140B7
:1008F0004009800000F1E020C0F8001170470000BE
:10090000F0B40E4B1B680C46C3F30223C3F107057A
:10091000042D00D90425191D072901D2002300E068
:10092000DB1E012606FA05F1491E214099409E4032
:10093000761E16403143F0BC00F0FCBE0CED00E02A
:10094000064900F0070208684FF6FF03184040EA26
:100950000220034A10430860704700000CED00E0DD
:100960000000FA052DE9F0470F46050061D0434E1F
:10097000306800F00700B84209D2306820F0070064
:1009800038433060306800F00700B84251D1286821
:100990003B4C810712D5400703D5606840F4E06006
:1009A00060602878000703D5606840F4605060609C
:1009B0006068A96820F0F000084360602878C007EC
:1009C00028D06868012810D02168022810D0890733
:1009D00000292EDA616821F0030101436160FFF70D
:1009E00023FF804641F288390DE021688903EFE753
:1009F0008901EDE7FFF718FFA0EB0801494502D98F
:100A00000320BDE8F0876068696800F00C00B0EB77
:100A1000810FEFD1306800F00700B8420BD9306881
:100A200020F0070038433060306800F00700B8421B
:100A300001D00120E5E72878400705D56068E9681E
:100A400020F4E060084360602878000706D56068FD
:100A5000296920F4605040EAC100606000F018F895
:100A60006168084AC1F30311515CC8400649086037
:100A700006480068FFF7F8FE0020C2E700200240A9
:100A800000100240AE700008180000201000002086
:100A90000E4A51680E4801F00C03042B11D0082BAC
:100AA0000FD10C48C1F38343C903C05C0AD5516818
:100AB000084AC1F34041921E515C054A5043B0FBC5
:100AC000F1F07047044948437047000000100240AD
:100AD00000127A009E70000800093D002DE9F84FD1
:100AE000040070D02078C04DC00749D06868C0F3BA
:100AF0008100012807D06868C0F38100022809D16D
:100B00006868C00306D52868800339D56068002866
:100B1000E7D035E06068B0F5803F0BD010B1B0F59C
:100B2000A02F11D0286820F480302860286820F495
:100B3000802002E0286840F480302860606890B12E
:100B4000FFF772FE06460AE0286840F4802028601D
:100B5000F0E700BFFFF768FE801B642873D82868A1
:100B60008003F7D50CE0FFF75FFE064605E000BF07
:100B7000FFF75AFE801B6428F0D828688003F7D45A
:100B800020789A4E80074FF001094FF0000839D5C0
:100B9000686810F00C0F07D06868C0F38100022865
:100BA00009D16868C00306D42868800714D5206975
:100BB000012808D110E02069B0B1C6F80090FFF715
:100BC00033FE074605E00AE1FFF72EFEC01B0228B0
:100BD000C4D828688007F7D52868616920F0F80034
:100BE00040EAC10028600DE0C6F80080FFF71CFE57
:100BF000074604E0FFF718FEC01B022823D8286828
:100C00008007F7D4207800072CD57948A169D9B19D
:100C1000C0F80090FFF708FE074604E0FFF704FE67
:100C2000C01B02280FD8686A8007F7D571484FF4B7
:100C3000FA510068B0FBF1F0009000BF0098411E2F
:100C40000091FAD20EE080E0C0F80080FFF7ECFDE2
:100C5000074604E0FFF7E8FDC01B022875D8686A64
:100C60008007F7D42078400760D5E8690027C000E6
:100C700008D4E86940F08050E861E869012700F095
:100C8000805000905C480168C90513D40168834610
:100C900041F480710160FFF7C7FD824606E000BFA6
:100CA000FFF7C2FDA0EB0A0064284ED8DBF8000075
:100CB000C005F5D5E06801280AD008B1052813D091
:100CC000286A20F001002862286A20F0040002E06F
:100CD000286A40F001002862E06841F2883B98B140
:100CE000FFF7A2FD82460BE0286A40F0040028626C
:100CF000EEE700BFFFF798FDA0EB0A0159455AD86F
:100D0000286A8007F6D50CE0FFF78EFD824605E0E5
:100D1000FFF78AFDA0EB0A0159454CD8286A8007E5
:100D2000F6D41FB1E86920F08050E861E06988B32B
:100D30006968C1F38101022944D00228C6F86080A5
:100D400004D0FFF771FD044638E034E0FFF76CFD96
:100D5000074604E0FFF768FDC01B02282BD828686F
:100D60008001F7D4206AB0F5803F05D16868A1689A
:100D700020F4003008436860D4E90801084369683A
:100D800021F4741108436860C6F86090FFF74CFDC9
:100D9000044606E025E000BFFFF746FD001B0228E1
:100DA00009D828688001F7D51BE000BFFFF73CFD9C
:100DB000001B022802D90320BDE8F88F28688001B3
:100DC000F4D40EE00128F7D06868226A00F480317C
:100DD000914204D1616A00F47010884201D0012070
:100DE000EAE70020E8E7000000100240000042426D
:100DF000800442421800002000700040704700004C
:100E000038B50446006842688168C9434B0606D578
:100E1000CB0704D1D3435B0601D4216C05E08B07DB
:100E200008D4D3431B0605D4616C01B02046BDE84D
:100E3000304008478B0601D54B0646D4D3439B066A
:100E400043D44B060AD494F85130032B3ED0636D43
:100E500043F004036365C36883680093890609D47B
:100E6000616D41F00101616581680091016821F0C7
:100E700040010160606D002827D02068416821F0A2
:100E8000E0014160012084F85100900722D02068E1
:100E9000416821F003014160104DE06C40B14563B1
:100EA000E06CFFF7B3F918B1606D40F04000606589
:100EB000A06C002809D04563A06CFFF7A7F90028B3
:100EC00003D0606D40F04000606538BDC168806847
:100ED000009038BD2046FFF791FF38BD251300086C
:100EE00070B5040009D0606A002540B125616561D4
:100EF000A56294F8510040B10CE0012070BD60681B
:100F0000B0F5827FF4D0E561F2E784F850502046D6
:100F100000F040F8022084F851002068016821F0B8
:100F200040010160A088218900F4827001F404412D
:100F30000843A18901F400610843217C01F002010A
:100F40000843217D01F001010843218B01F4007168
:100F50000843217F01F03801084394F8201001F084
:100F600080010843218D01F4005108432168086085
:100F7000A069042101EA1040216848602068C16925
:100F800021F40061C1616565012084F851000020F1
:100F900070BD000070B586B000250646009501952D
:100FA0000295039500682349884240D12249886907
:100FB00040F480508861886900F48050049088690A
:100FC00040F00400886188691C4C00F00400049023
:100FD000A020009002200190032003906946204643
:100FE000FFF720FB4020CDE9000569462046029529
:100FF000FFF718FB134C124820601020C4E90105CC
:101000008020C4E9030580016561C4E906502046DB
:10101000FFF7B8FA08B1FFF7F7F8B46400221146F9
:1010200023206662FFF76CFC2320FFF75BFC06B011
:1010300070BD000000300140001002400008014077
:1010400030000240740000202DE9F84F044690F86B
:1010500050000026984615468A4601280CD00127E4
:1010600084F85070FFF7E0FB814694F85100B346D6
:10107000012804D002269AE00220BDE8F88FBAF1D8
:10108000000F6FD0002D6DD0032084F85100C4F8FC
:1010900054B0C4F830A0A586E586C4F838B0A4F8EA
:1010A0003CB0A4F83EB0C4F844B0C4F840B0A06866
:1010B000B0F5004F09D12068016821F040010160BE
:1010C0002068016841F48041016020680168490698
:1010D00003D4016841F040010160E068B0F5006FA1
:1010E000606803D058B3012D29D049E008B1012D23
:1010F0001FD1206B21680088C86006E020688168E5
:10110000890709D5216B0988C160206B801C206389
:10111000E08E401EE0860CE0FFF786FBA0EB0901A5
:10112000414503D3B8F1FF3F03D006E0B8F1000F0B
:1011300003D0E08E0028E1D125E0032635E0206BC6
:1011400021680078087306E02068816889070AD55D
:10115000216B09780173206B401C2063E08E401ED8
:10116000E0860DE01FE0FFF75FFBA0EB09014145C2
:1011700003D3B8F1FF3F03D0DFE7B8F1000FDCD0B5
:10118000E08E0028E0D14A464146204600F0D2F8E1
:1011900008B120206065A06818B92068C16880681F
:1011A0000090606D08B1012601E084F8517084F868
:1011B00050B0304661E710B5401EB0F1807F01D3DA
:1011C000012010BD4FF0E02460610F21601700F096
:1011D000B1FA0020A06107202061002010BDFEE7C9
:1011E0002DE9F04385B00024344800940194029422
:1011F0000394816941F004018161816901F0040176
:101200000491816941F020018161816901F020012F
:101210000491816941F010018161816901F010013F
:101220000491816941F0080181618069244F00F0D7
:1012300008004FF480750490002229463846FFF7D5
:10124000EDFADFF88080002280214046FFF7E6FAC1
:10125000DFF87490012220214846FFF7DFFA0022D0
:1012600040214846FFF7DAFA009502260125039649
:10127000CDE9015469463846FFF7D4F98020CDE91D
:101280000005CDE9024669464046FFF7CBF920202C
:10129000CDE900050320CDE9024069464846FFF745
:1012A000C1F94020CDE90005CDE90246694648462E
:1012B000FFF7B8F905B0BDE8F08300000010024068
:1012C0000014014000100140000C01400F4810B50F
:1012D0000D4901604FF48271416000218160C1605D
:1012E0004FF400720161C0E905120822C0E907212C
:1012F000416281620A21C162FFF7F2FD002801D03C
:1013000072B6FEE710BD0000003001401C00002056
:10131000FEE7FEE7704700000148FFF771BD0000DF
:101320001C00002010B5406A0021C187C186FFF76C
:1013300065FD10BD38B50B460092044600228021A1
:1013400000F008F8002804D0606D40F020006065CF
:10135000032038BD2DE9F8431E46914688460446D1
:10136000089DFFF761FA401B351AFFF75DFA074643
:1013700025480068C0F3CB30684338E0701C37D094
:10138000FFF752FAC01BA84203D215B1009860B310
:101390002CE02068416821F0E00141606068B0F510
:1013A000827F0BD1A068B0F5004F02D0B0F5806FFE
:1013B00004D12068016821F040010160A06AB0F505
:1013C000005F09D12068016821F4005101602068A4
:1013D000016841F400510160012084F851000020AF
:1013E00084F850000320BDE8F8830025401E0090DB
:1013F0002068816838EA010004D000214945BDD148
:101400000020F0E70121F9E7180000202DE9F0475E
:10141000054616489146DDF820A0B0F906201F4683
:101420000C46954220DAB0F9080084421CDA05EB3C
:101430000901A1F10108904516DAE619761E8642E7
:1014400012DA00F0A5F8F3B208F0FF02E1B2E8B258
:1014500000F0A6F84FEA49017943504600F020F920
:10146000BDE8F04700F000B9BDE8F08700000020BB
:101470002DE9F843074624480E46DDF82080B0F9F0
:1014800006101C4615468F423CDAB0F90800864229
:1014900038DA7A19521E8A4201DBC91B8DB2311922
:1014A000491E814201DB801B84B200F071F83019C3
:1014B000401EC3B27819401EC2B2F1B2F8B200F0B9
:1014C0006FF84FEA18208DF8000001228DF8018096
:1014D00011020E48FFF7A2F926464FF0FF370DE044
:1014E0002C4607E03B46022269460948FFF7ACFD5F
:1014F000641EA4B2002CF5D1761EB6B2002EEFD138
:1015000000F0B2F8BDE8F8830000002000140140AC
:101510001C00002038B5044600F03AF800F024F82A
:101520000F48FEF74EFE0E483830FEF74AFE0C48D4
:101530004530FEF746FE0B490220487001208870B6
:10154000204600F059F84FF6FF7000210090A023CC
:1015500080220846FFF78CFFBDE8384000F084B8D1
:101560002C7000080000002010B5084C00228021DB
:101570002046FFF753F90520FFF742F820460122E5
:10158000BDE810408021FFF749B90000001001407C
:10159000002240210148FFF741B90000000C014042
:1015A000F8B504461D4616460F462A2000F064F89A
:1015B0002146104C00200090E07801448DF8011085
:1015C00030448DF803000421684600F069F82B20B0
:1015D00000F052F8207939188DF8011028448DF860
:1015E00003000421684600F05BF82C2000F044F86A
:1015F000F8BD00000000002038B5002110F0030500
:1016000018488DF80010014605704A7889784FF027
:10161000A0044FF0800306D0012D0CD0022D05D080
:10162000032D12D10AE0C0258DF800500481C3803B
:10163000C270017109E08DF8004002E060258DF86C
:101640000050C48003810271C170FFF7A1FF3620F2
:1016500000F012F80121684600F022F800F004F8CA
:1016600038BD000000000020012240210148FFF7A2
:10167000D5B80000000C014001B500224FF4807184
:101680000548FFF7CBF84FF0FF33012269460348C6
:10169000FFF7DAFC08BD0000001401401C00002028
:1016A00070B50D460446012211020648FFF7B6F850
:1016B000AAB22146BDE870404FF0FF330248FFF761
:1016C000C3BC0000001401401C0000207047FFF75D
:1016D000B1B830B58FB028216846FEF74CFD142113
:1016E0000AA8FEF748FD01210804CDE900100024F6
:1016F000029402250491CDE907504FF4E0100990BF
:101700006846FFF7EBF908B172B6FEE70F20CDE9A6
:101710000A054FF48060CDE90C4002210AA80E941E
:10172000FFF720F9002801D072B6FEE70FB030BDF8
:101730007047FEE70907090E002804DB00F1E020EE
:1017400080F80014704700F00F0000F1E02080F8EE
:10175000141D704702E008C8121F08C1002AFAD100
:1017600070477047002001E001C1121F002AFBD121
:10177000704738B59BB2049C92B289B280B2009493
:10178000FFF776FE38BD000008B50021009005483F
:10179000B0F900300448B0F900200846FFF7E9FF2F
:1017A00008BD0000080000200600002008B5FFF773
:1017B00049F8FFF78EFFFFF713FD1248416941F02A
:1017C000010141614069002200F0010000901146D2
:1017D0000D20FFF795F80D20FFF784F8FFF776FD51
:1017E0000020FFF797FE0020FFF706FF0020FFF71D
:1017F000CBFF05480021009078235E220846FFF7C2
:1018000005FEFEE7001002400C180008F463F463C4
:10181000D463D35BD35BD35BD35BD463F463D45B1C
:10182000D45BF4631464156415641564356C356C0D
:10183000146C356C356C356C356C356C146C146C03
:10184000146C1464F4631464146C356C556C557426
:10185000757455747574557455747574757476749F
:1018600076747674967C967C967C967CB67CB67CF8
:10187000B67CD784F7841785F784D784D784B67C61
:10188000B67C967C967C967CB67CB67CB67CB67C28
:10189000B67CB67CB67CB67CB67CB67C967C967CF8
:1018A000967C967476747574757455745574556C0D
:1018B000556C556C556C556C556C356C356C356C80
:1018C000356C356C356C356C1464F463D463D46357
:1018D000D35BD35BD35BD35BF463D463D45BD45B64
:1018E000F463F46314641464156C356C356C356CF6
:1018F000356C356C356C356C146C146C146C14646C
:10190000F463F4631464356C356C557476747674D2
:101910007574557475745574767476749674967C73
:10192000967C967C967CB67CB67CB67CB67CB67C87
:10193000D784F784F784F784D784D784D784B67C98
:10194000B67CB67CB67CB67CB67CB67CB67CB67C07
:10195000B67CB67CB67CB67C967C967C967C76749F
:1019600075747574757455745574556C556C556CE7
:10197000556C556C556C356C356C356C356C356CFF
:10198000356C356C1464F463F463D463D45BD45B5A
:10199000D35BD35BD463F463D463D45BD463F46369
:1019A000F4631564156C356C356C356C356C356CC1
:1019B000356C356C356C356C146C146C146C146CA3
:1019C000146C146C146C356C557476747574557491
:1019D00055747574767496749674967C967C967C21
:1019E000967CB67CB67CB67CB67CB67CB67CB67C87
:1019F000D784F784F784D784D784D784B67CB67C21
:101A0000B67CB67CB67CB67CB67CB67CB67CB67C46
:101A1000B67CB67C967C967C967476747574757478
:101A20005574556C556C556C557455745574557486
:101A3000556C556C356C356C356C356C356C356C5E
:101A400014641464F463D463D45BD45BD45BD35B5D
:101A5000D35BF463F463D463D463F463F463146416
:101A6000156C356C356C356C356C356C146C356CAF
:101A7000356C356C146C146414641464146414644C
:101A8000146C356C356C5574757475747574757427
:101A900096749674967C967C967C967C967C967CC6
:101AA000B67CB67CB67CB67CB67CB67CD67CD7845D
:101AB000F7841785F784F784D784D784B67CB67CFF
:101AC000B67CB67CB67CB67CB67CB67CB67CB67C86
:101AD000967C967C96747674757475745574556C92
:101AE000556C556C556C556C556C556C356C356C2E
:101AF000356C356C356C356C356C356C356C146407
:101B00001464F463D463D45BD45BD45BD45BD463DC
:101B1000F463F463D463D463F46314641464156CE1
:101B2000356C356C356C356C146C146C356C356CEF
:101B3000146C146414641464146C146C146C146CBD
:101B4000356C556C5574757475747674967496749A
:101B50009674967CB67C967CB67C967CB67C967C9D
:101B6000B67CB67CB67CB67CD77CD67CD77CD7845A
:101B7000F784F784F784F784F784D784B67CB67C3F
:101B8000B67CD77CB67CB67CB67CB67C967C967CE4
:101B900096747574757475745574556C556C556C74
:101BA0005574556C556C556C556C556C356C356C65
:101BB000356C356C356C356C356C146C1464F463B1
:101BC000F463F463D463D45BD45BD45BF463F463F5
:101BD000F463F463F463146414641464156C356C76
:101BE000356C356C146C356C356C356C146C146C50
:101BF00014641564156414641464146C356C356CC9
:101C0000556C75747574767496749674967CB67CFF
:101C1000B67CB67CB67CB67CB67CB67CB67CB67C34
:101C2000B67CB67CB67CD67CD67CD77CD784D78471
:101C3000F784F784F784F784D67CB67CB67CD784A7
:101C4000B67CB67CB67CB67C967C967C76747574D5
:101C500075747674556C556C556C556C556C556C2B
:101C6000556C556C556C556C556C356C356C356CCC
:101C7000356C356C556C356C1464F463F463F46343
:101C8000D463D463D45BD45BF463F463F463F4632C
:101C9000F463146414641564356C356C356C356C00
:101CA000146C356C356C356C356C356C146415649E
:101CB0001564146C146C356C356C356C556C75741E
:101CC0007674967496749674967CB67CB67CB67C64
:101CD000B67CB67CB67CB67CB67CB67CB67CB67C74
:101CE000B67CB67CD67CD77CD784D784D784F7845F
:101CF000F7841785F784D784D77CD784B67CB67CE5
:101D0000B67C967C967496747674767476747674D3
:101D1000556C556C556C556C556C556C556C556CBB
:101D2000556C556C556C356C356C356C356C356C4B
:101D3000356C356C146CF463F463F463F463F4632E
:101D4000F463D463D463F463F463F46314641464D9
:101D5000156C1564356C356C356C356C356C356CC3
:101D6000356C356C356C356C1464146C356C356CB5
:101D7000146C356C356C356C556C75747574767483
:101D800076749674967CB67CB67CB67CB67CB67C53
:101D9000B67CB67CB67CB67CB67CB67CB67CB67CB3
:101DA000D67CD77CD784D784D784F784F784178DE3
:101DB00017851785F784D784B67CB67CB67C967C6D
:101DC0009674967476747674767476747674767483
:101DD000556C7674556C556C556C556C556C356CF2
:101DE000356C356C356C356C356C356C556C356CCB
:101DF000356C1464F463F463F463F463F463F463C0
:101E0000D463F463F463146414641464146C146C85
:101E1000356C356C356C356C356C356C356C356CBA
:101E2000356C146C146C146C146C356C356C356C2E
:101E3000356C356C556C7574767496749674967CA6
:101E4000967C967CB67CB67CB67CB67CB67CB67C42
:101E5000B67CB67CB67CB67CB67CB67CB67CD77CD1
:101E6000D784D784F784F784F7841785178D178D67
:101E7000178DF784D784B67CB67C967C967496745E
:101E800096747674767476747674556C556C556C5D
:101E9000556C556C556C556C556C356C356C356C9A
:101EA000356C356C356C356C556C356C356C356C0A
:101EB0001464F463F463F463F463F463F463F46349
:101EC000F46314641564156C156C356C356C356CE5
:101ED000356C356C356C356C356C356C356C146C1B
:101EE000146C356C146C146C356C356C356C356C4D
:101EF000556C557476749674B67CB67CB67C967CBC
:101F0000B67CB67CB67CB67CB67CB67CB67CB67C41
:101F1000B67CB67CB67CB67CB67CB67CD77CD784E7
:101F2000D784D784F784F784F7841785178D1785AE
:101F3000F784B67CB67C96749674967476747674D0
:101F40007674767476747674556C556C556C556CE5
:101F5000556C556C556C356C356C356C356C356C19
:101F6000356C356C356C356C356C356C14641464BB
:101F70001464F463F463F463F463F463F463146467
:101F800014641464356C356C356C356C356C356C9B
:101F9000356C356C356C356C356C356C356C356C39
:101FA000356C356C356C356C356C356C356C556C09
:101FB00075749674967CB67CB67CB67CB67CB67C22
:101FC000B67CB67CB67CD67CB67CB67CB67CB67C61
:101FD000B67CB67CB67CB67CB67CD784D784F784D6
:101FE000F784F784F78417851785178D1785F7848D
:101FF000B67C9674967496749674967476747674A9
:102000007674556C556C556C556C556C556C556C9F
:10201000556C356C356C356C356C356C556C556C58
:10202000556C356C356C356C15641464146414642B
:1020300014641464F463F463F4631464156C356C11
:10204000356C356C356C356C356C356C356C356C88
:10205000356C356C356C356C356C356C356C356C78
:10206000356C356C356C356C556C556C7574767497
:102070009674967C967CB67CB67CB67CB67CB67C38
:10208000B67CD67CB67CB67CB67CB67CD67CD67C60
:10209000B67CB67CB67CD67CD784F784F784F7848C
:1020A000F784178517851785F7841785D784B67C3D
:1020B0009674967496747674767476747674767470
:1020C000556C556C556C556C556C556C556C356C28
:1020D000356C356C356C356C556C556C556C356C98
:1020E000356C356C156C14641464146414641464D5
:1020F0001464F463F4631464156C356C356C356CDE
:10210000356C356C356C356C356C356C356C356CC7
:10211000356C356C356C356C356C356C356C356CB7
:10212000356C556C556C556C7574767496749674E4
:10213000967CB67CB67CB67CB67CB67CD67CD67CEF
:10214000B67CB67CB67CD67CD784D784B67CB67C8D
:10215000B67CB67CD77CF784F7841785F784F78440
:102160001785178517851785F784B67C967496743E
:10217000967476747674767476747674556C556C41
:10218000556C7674556C556C556C356C356C356C7E
:10219000556C356C556C556C5574556C356C356C8F
:1021A000356C156414641464146414641464146445
:1021B000146415641564356C356C356C356C356C90
:1021C000356C356C356C356C356C356C356C356C07
:1021D000356C356C356C356C356C356C556C556CB7
:1021E000556C556C7574767496749674967CB67C42
:1021F000B67CB67CB67CB67CD67CD67CD67CB67CEF
:10220000D67CD77CD784D784D784D77CD67CD67C21
:10221000D77CF784F7841785F784F784F784F784ED
:10222000F784F784F784F784D67C967C967475746B
:102230007674767476747674556C76747674556CA0
:10224000556C556C556C556C556C556C556C556C86
:10225000556C556C76745574356C356C356C356CC5
:10226000156C146414641464146414641464156C9C
:10227000156C356C356C356C356C356C356C356C76
:10228000356C356C356C356C356C356C356C356C46
:10229000356C356C356C556C556C556C556C556C96
:1022A00075747674767496749674B67CB67C967CE7
:1022B000B67CB67CB67CD77CD77CD67CD77CD77CEA
:1022C000D784D784D784D784D784D784D784F78416
:1022D000F784F784F784F784F784F784D784F78446
:1022E000F784F784F784D77C967496747674767442
:1022F00076747674767476747674556C556C556C09
:10230000556C556C556C556C556C556C556C556CC5
:1023100076747674556C356C356C356C3564156433
:10232000356435641564146414643564356C356C37
:10233000356C556C356C356C356C356C356C356C75
:10234000356C356C356C356C356C356C556C556C45
:10235000556C556C556C556C556C756C75749674E4
:10236000967496749674967C967C967CB67CB67CB5
:10237000B67CD67CD67CD67CD77CD77CD784D784D9
:10238000F784D784D784D784F784F784F784F784D5
:10239000F784F784D784D784D784D784F784D78405
:1023A000D77CD784B67C967496747674767476747B
:1023B000767476747674556C556C556C556C556C9A
:1023C000556C556C556C556C556C556C9674767493
:1023D0007574556C356C356C356C356C156C356CAD
:1023E000156C156C156C356C356C356C356C356C45
:1023F000356C156C156C356C356C356C356C356C15
:10240000356C356C356C556C556C556C556C556C24
:10241000556C556C556C7574767496749674967488
:10242000967496749674967CB67CB67CB67CB67CB4
:10243000D67CD67CD67CD67CD784D784D784D784E8
:10244000D784D784F784F784F784F784D784D78434
:10245000D77CD77CD77CD77CD784D784D784D784C4
:10246000D77CB67C967496749674767496747674EB
:1024700076747674556C556C556C556C556C556C02
:10248000556C556C556C7674967476747574556C81
:10249000556C356C356C356C356C356C356C356C14
:1024A000356C356C356C356C356C356C356C356C24
:1024B000356C356C556C556C356C556C556C356C94
:1024C000356C556C556C556C556C556C556C556C24
:1024D000556C767476749674967496749674967435
:1024E00096749674967CB67CB67CB67CB67CD67CAC
:1024F000D67CD784D784F784F784F784F784F7846D
:10250000F784F784F784F784F784D77CB67CB67CAD
:10251000B67CD77CD784D784F784D784D77CD784FC
:10252000B67C967C9674967496747674767476748B
:102530007674556C556C556C556C76747674556C18
:1025400076747674967476747674556C556C356CB6
:10255000356C556C556C556C356C356C356C356C13
:10256000356C556C556C356C356C356C356C356C23
:10257000356C556C556C556C556C356C356C556CB3
:10258000556C356C556C556C556C556C556C76743A
:10259000767496749674967496749674967475742C
:1025A0009674967C967C336C7474D77CD784D7846D
:1025B000D784F784F784F784F784F784F784F78463
:1025C000F784F784F784D77CB67CB67CB674B67C87
:1025D000D77CD77CD784D784F784D784D784D77C1B
:1025E000967C967496747674767476747674767433
:1025F0007674556C556C76747674767476747674DD
:10260000967476747574556C556C556C556C356C48
:10261000556C556C356C356C356C356C356C556C52
:10262000556C556C356C356C356C356C356C556C42
:10263000556C556C556C556C356C356C556C356CF2
:10264000556C556C556C556C75749674967496747F
:10265000967496749674967475740E53905BF26BC0
:10266000D263093A136CB67CD67CD784F784D784BE
:10267000F784F784F784F784F784F7841785F78461
:10268000F784D67CB67CB6749674B674B67CD77C68
:10269000D784D784D784D784D784D77CD67CB674A4
:1026A000767476747674767496749674767476749A
:1026B00076747674767476747674767496747674AA
:1026C0007574556C556C556C556C356C556C556CFA
:1026D000556C556C556C556C556C556C556C356C12
:1026E000356C356C356C356C356C356C556C556CA2
:1026F000556C556C556C556C556C356C556C556CF2
:10270000556C756C7674967496749674967496740B
:102710009674967496744F5BA6294E534A3A093ABA
:10272000757CB67CD67CD77CF784F784F784F784F5
:1027300017851785F784F7841785F784D684B67CC8
:10274000967C96749674B674B674B67CD77CD77C37
:10275000D784D784D784D784D77CD67CB674767454
:10276000767476749674B67C967476749674967451
:102770009674767476747674967C967476747674A1
:10278000556C556C556C556C556C556C556C556C41
:10279000356C356C556C556C556C556C356C356CB1
:1027A000356C356C356C556C356C556C356C356CE1
:1027B000556C556C356C356C556C556C556C757429
:1027C00096749674967496749674967496749674B9
:1027D00096749674ED4AA6298629D2639674B67CBF
:1027E000B67CD67CD784D784F784F784F7841785A2
:1027F0001785F7841785F784D77CB67C967C96740A
:1028000096749674B674B67CB67CD77CD784D77C25
:10281000D784D77CD77CD77CD77CB67C767476740B
:102820009674B67CB67C96749674B674B6747674E8
:1028300076747674B67C967C767476747674556C01
:10284000556C556C356C556C556C556C556C556CA0
:10285000556C556C7674556C556C356C356C356CA7
:10286000356C556C356C556C556C556C556C556CA0
:10287000556C556C556C556C76747674967496746C
:1028800096749674967496749674967496749674F8
:1028900054748B4AAB4275749674B674B67CD77C0C
:1028A000D784D784F784F784F7841785178517852D
:1028B000F784F784D77CB67CB67496749674967455
:1028C00096749674B67CB67CD77CD77CD77CD77C44
:1028D000D77CD77CD77CD77CB67C96749674B67C34
:1028E000D77CB67CB67CB67C967476747674967417
:1028F000D77CB67C967476747674556C556C556C32
:10290000556C556C556C556C556C556C556C767496
:1029100076747674556C556C556C556C356C556C7D
:10292000356C556C556C556C556C556C556C556CBF
:10293000556C566C767496749674967496749674F8
:10294000B674B674B67496749674967412642D53F5
:10295000EC4A536C9674B674B67CD77CD77CD7841B
:10296000D784F784F784178517851785F784D7846C
:10297000D67CB67C96749674967496749674967497
:10298000B674B67CD77CD77CD77CD77CB67CD77C1A
:10299000D77CD77CD77CB67C9674B67CD77CD77C2A
:1029A000B67CB67C9674767496749674B77CB67C56
:1029B000B67C9674767476747674556C556C556CDA
:1029C000556C556C556C7674767476749674767412
:1029D000556C556C556C556C356C356C556C556C2F
:1029E000356C556C556C556C556C556C556C556CFF
:1029F0007674967496749674967496749674B67487
:102A0000B674967496749674D1634D532D53905B3F
:102A10009674B67CB67CD67CD77CF784F784F78432
:102A20001785178517851785F784D784D77CB67CDB
:102A3000967496749674967496749674B674B67CFE
:102A4000D77CD77CD77CB67CB67CD77CD77CD77C30
:102A5000D784D77CD77CB67CD77CD77CD67CB67C19
:102A6000967496749674B67CB67CB77CB67CB67455
:102A70009674767476747674756C556C556C556C6A
:102A80007674767476747674967476747674556CFF
:102A9000556C556C556C556C556C556C556C556C2E
:102AA000556C556C556C556C556C76749674967463
:102AB0009674967496749674B674B674B674B67446
:102AC00096749674546C0D4BCC4A546C96749674F0
:102AD000B67CB67CD784F784F784F784F7841785AF
:102AE0001785F784F784D77CB67CB67CB674967469
:102AF0009674967496749674B674B67CB67CB67CEE
:102B0000B67CD77CB67CD77CD77CD77CD784D7845F
:102B1000D77CF784D77CD77CD67CB67C96749674A9
:102B2000B67CB67CB67CB67CB77CB67CB674967444
:102B30009674767476747674767476747674767425
:102B400076749674967496747674756C556C556C30
:102B5000556C556C556C556C556C556C556C556C6D
:102B6000556C556C767476749674967496749674E7
:102B700096749674B674B674B67CB674967C967C6D
:102B800096749574536C96749674B674B67CD67CB1
:102B9000D77CF784F784F784F78417851785178522
:102BA000F784D77CB67CB67CB674967496749674AB
:102BB000B674B67CB67CB67CB67CB674B67CB67C95
:102BC000B67CD77CD77CB77CD77CD77CD784F7847E
:102BD000F784D77CB67CB67C96749674B77CB77C49
:102BE000B67CB67CB67CB67CB67CB67496749674AD
:102BF0007674767476747674767496749674967425
:102C0000967496747674756C756C556C556C556CC1
:102C1000556C556C556C556C556C556C556C566CAB
:102C20007674967496749674967496749674967474
:102C3000B674B67CB67C967494745574B674967CEF
:102C4000F26396749674B674B374B26CD67CF784DF
:102C50001785178D178517851785D684F784D67C39
:102C6000B67CB67CB67496749674B674B67CB6743C
:102C7000B67CB67CB674B674B67CB67CB67CD77CB3
:102C8000D77CD77CD77CD77CF784F784F784F7840C
:102C9000D77CB67C9674B67CB77CB674B67CB67CB2
:102CA000B67CB67CB67CB67CB67496749674967414
:102CB00096749674967496749674967496749674C4
:102CC00076747674756C766C756C556C556C556C49
:102CD000556C556C766C756C7674767496749674C7
:102CE00096749674536C746CB674B674B67CB67C79
:102CF000B67CB57C1375336CB67CB5741264757490
:102D00009674B67CD26C1375D67CF7841785178DB4
:102D1000178D178D147D726CB67CD67CB67CB67C14
:102D2000B67CB67CB67CB67CB67CB67CB67CB6741B
:102D3000B674B67CB67CB67CB67CD77CD77CD77CA8
:102D4000D77CD77CD784D784F784F784F784D77C63
:102D5000B77CB77CB67CB67C967CB67CB67CB67C01
:102D6000B67CB67CB67CB67496749674967496747B
:102D7000B67CB674B674B674B6749674967476747B
:102D800076747674766C766C756C766C756C756C26
:102D9000766C76747674967496749674967496744B
:102DA0002F64CE53B574B67CB67CB67CB67CB57455
:102DB000B16CD15B9574F063493A2E53B674B57417
:102DC000AD536D53D67CF7841785178D178D5685B7
:102DD0003275F374F784D784B67CB67CB67CB67C47
:102DE000B67CB67CB67CB67CB67CB67C9674B67483
:102DF000D77CB67CB67CD77CD77CD77CF77CD77C5D
:102E0000D784D784F784F784F784F784D784D77C72
:102E1000B67CB67CB67CB67CB67CB674B67CB67C2A
:102E2000B67CB67CB67CB67CB674B674B67CB67C22
:102E3000B67CB67CB67CB6749674967476747674EA
:102E40007674766C766C7674766C766C7674967432
:102E500096749674967496749674B6740F5CA932D0
:102E6000115CB67CB674B674B67CB474AD53D15BE9
:102E7000905BCD4A293A4F537574D57C0E5C4E4B0E
:102E8000F784F784178517851785537DB06CB37465
:102E9000F784D784D67CB67CB67CB67CB67CB67C10
:102EA000B67CB67CB67CB67CB674B67CD77CB67C79
:102EB000B67CD77CD77CD77CD77CD77CD784F7846B
:102EC000F784F784F784F784F784F784D784D77C72
:102ED000B67CB67CB67CB67CB67CB67CB67CB77C61
:102EE000B67CB67CB67CB67CB674B67CB67CB67C5A
:102EF000B67CB674B674967496749674767476745A
:102F00007674767476747674967496749674B674D1
:102F1000B67CB6749674B674CF5B482ACE53B6743A
:102F2000B67CB67CB67CB4740A3BF263EC4AA62944
:102F3000E7312E534A3A1164CD53AE53D784F78408
:102F400017851785368532756C4B536CD77CD77CCB
:102F5000D77CD77CB67CB67CB67CB67CB67CB67C9F
:102F6000B67CB67CB67CB67CB67CB67CB67CD77CB0
:102F7000D77CD77CD77CD77CF784F78417851785D7
:102F80001785F784F7841785F784F784B67CB67CB9
:102F9000B67CB67CB67CB67CB67CB67CB67CB67CA1
:102FA000B67CB67CB67CB67CB67CB67CB67CB67C91
:102FB000B674B67496749674967496749674967481
:102FC00096749674B6749674B674B674B67CB67C01
:102FD0009674B67412646D4BED4B536CB67CB6743C
:102FE000B67CD3744B43D05BEB42EA42883A0B4B3E
:102FF000C629EE5BD06C916CD67CF7841785F7847C
:10300000147DF16CAE53B67CD67CD67CD67CD67C57
:10301000D67CD77CD77CD77CD77CD77CB67CB67C5B
:10302000D77CD77CB67CB67CB67CD77CD77CD77C6B
:10303000D77CD77CF7841785178517851785F78484
:103040001785178D1785F784B67CB67CB67CB67C61
:10305000967CB67CB67CB67CB77CD77CB77CB67CDD
:10306000B67CB67CB67CB67CB67CB67CB674967400
:103070009674967496749674967496749674967400
:10308000B6749674B674B67CB67CB67CB674B674F8
:10309000B67CCF536F5CB274957495749574906CD4
:1030A0008C53AE53CA3A8C4B4732EA426521ED5BF2
:1030B000AC5B2B4B1264B57CD67CD57C537D3275D2
:1030C0007064B67CB67CB67CD77CD77CD77CD77C4A
:1030D000D77CD77CD77CB67CB67CD77CD77CD77C9A
:1030E000B67CB67CB67CF77CD77CD77CD77CF77C6B
:1030F0001785F784F784F78417851785188D178D42
:10310000178DF784B67CB77CD77CB67CB67CB67C52
:10311000B67CB67CB67CD67CD77CD67CD77CB67C9D
:10312000D77CB67CB67CB67CB67CB6749674967446
:10313000967496749674B674B6749674B674B674BF
:10314000B67CB67CB67CB67CB674B674B5742F5CAF
:103150002E648C43CF5B7574746CEA42483A6832D3
:10316000C9328C4BEA420A43893A0E5C852185219B
:10317000D05B1785D57C506CED5B8C4BCD53947434
:10318000B67CB67CB67CB67CB67CB77CD77CD77C6C
:10319000B67CB67CB674D77CD77CD77CB67CB67C44
:1031A000D77CD77CD77CD67CF77CF784F784F784F0
:1031B000F784F78417851785388D388D188DF78437
:1031C000B67CB67CB67CB67CB67CB67CB67CB67C6F
:1031D000B67CD77CD77CD77CD77CD77CB67CB67CBA
:1031E000B67CB67CB67CB67CB674B67496749674AF
:1031F000B674B67CB67CB674B67CB67CB67CB67C4F
:10320000B67CB67CB67CB67CB5742B4B483265195F
:103210006832D05B747424194421A93A472A4C536C
:10322000683A0A4B8C532A43A210E318D163F68400
:10323000926C2E64073285214B43B5749674967454
:103240009674B6749674B67CB67CB67CB67CB67C46
:10325000B67CD77CD77CB67CB67CD77CD77CD77C39
:10326000D77CD77CF784F784F784F784F784F784D6
:103270001785188D388D388D178D1785D77CB67CBE
:10328000B67CD67CD77CD67CB67CB67CD77CD67C0C
:10329000D67CD77CD77CD77CD77CD77CD77CB67CB8
:1032A000B67CB67CB67CB67CB67C9674B674B67CBE
:1032B000B67CB674B674B67CB67CB67CB67CB67C8E
:1032C000B67CB67CD574893AA21004194419282A10
:1032D00074748629A2104521472A6F6CEA42ED5387
:1032E0008C53883281080419D163B57C0E5CE942A5
:1032F0006521A210893A936C9674967496749674AC
:103300009674B674967496749674B674B674B674ED
:10331000B67CB67CB67CD77CD77CD77CD77CF78450
:10332000F784F784F784F784F78417851785388D39
:10333000388D188D1785F784D784D784D67CD77CB1
:10334000D784D77CD67CD77CD77CD67CD77CF77CBF
:10335000F77CF77CD77CD77CD77CB67CB67CB67400
:10336000B674B674B6749674B674B6749674B6744D
:10337000B67CB67CB67CB67CB67CB67CB67CB67CBD
:10338000946C4E5325212419C3100419336C4A3A06
:10339000C210C629A521ED5BC9420E5CEA42442158
:1033A000A210A6295374F16B473224194521A8298C
:1033B000326C946C96749674967496749674967433
:1033C0009674967496749674967496749674B6748D
:1033D000B674B67CD77CD77CD77CF77CF77CF78437
:1033E000F77CD77CF77CF78417851785178D1785B1
:1033F000F784F784D67CD784F784D784D784D7849E
:10340000D77CD77CD784D784D77CD784F784D784DC
:10341000F784D77CD77CB67CB67CB67CB67CB67C91
:10342000B67CB67CB67C9674B674B674B67CB67C44
:10343000B67CB67CB67CB77CD77CB67C746C326CC0
:10344000B163E7296108E418D26BAC4A0419C629B4
:103450004421EA420732483227328210A210283A29
:10346000747CF1632419E418A629D163315C967445
:1034700096749674967496749674967496749674FC
:103480009674767496749674967496749674B674EC
:10349000B67CD77CD77CF77CD77CD77CD77CD77C95
:1034A000D77CD77CF784F78417851785F784188530
:1034B000D784D67CD784F784F784D784D784D77C05
:1034C000D77CD77CD77CD784F784D784D77CD77C2C
:1034D000D77CD77CB67CB674B674B674B67CB6743A
:1034E000B674B674B674B674B67CB67CD77CB77C4A
:1034F000B77C747C747C747C31748E5B3274EB5258
:1035000085318A4A32740D5BAB522842E739AD638C
:10351000CA4AEA52A94A6529C6310B530C5BD06BE3
:1035200028422D5B2B5B11746E6332743374126C02
:10353000967496749674967496747674766C766CAB
:1035400096749674967496749674B674D77CD77C79
:10355000D77CD77CD77CD77CB77CB77CB67CB77C54
:10356000D77CD77CF77CF784F784F784F784D77C03
:10357000D77CD784D784F784F784F784D784D7841B
:10358000D784D784F784F784F784F77CD77CD77CFB
:10359000B67CB67CB67CB67CB67CB67CB67CB67C9B
:1035A000B67CB67CB67CB67CB67CB67CB57C2F8C03
:1035B000B09CD0A4D09CB09CAF9CB0A46F9C6E9CDF
:1035C0008F9C6F9C4E944E946E9C8F9C6E9C8E9C98
:1035D0006F9C0D8C2E8C4E948F9C8F9C8F9CF1A495
:1035E000D0A4AFA48F9C8F9CD09C9094747C747456
:1035F000967476747674766C766C766C9674967433
:1036000096749674B674B77CF77CD77CD77CD77CDD
:10361000D77CB77CB674B674B67CB77CB77CD77CE5
:10362000D77CD77CF77CF7841785F784D67CD67C4B
:10363000D67CD784F784F784F784D77CD77CF7844B
:10364000F784F784F784F77CD77CD77CD77CB67C6B
:10365000B67CB67CB67CB67CB67CB67CB67CB67CDA
:10366000B67CD77CD77C107CAC7B8C836B7B6B7BF4
:103670008C7B8C7B6B7B6B7B4A7B4A7B297B4A7B7D
:103680006A83087B29834983287B297B6B7B8B8317
:10369000AC83AC83AC838C83AC83CD8BED8BED8B17
:1036A000AB8B8B83AC8BED8BED8B0F7C9674766C38
:1036B000966C766C96749674967496749674B674CA
:1036C000D67CD77CD77CD77CD77CD77CD77CB67C84
:1036D000B6749674B674B77CD77CB67CD77CD77C2E
:1036E000D77CF77CF784F784F784D784D784D78492
:1036F000D784F784F784F784F784F784F784F78412
:10370000F784F784F784D77CD77CD77CD67CD67CAB
:10371000D77CD77CD77CB77CD77CD77CD77CD77C31
:10372000D77CF16BC541C96AA8622652E549265289
:10373000C96AC96AE55105526762EA6AEA72A44930
:10374000C549876AA96AA862E551265A0A73E96AD7
:10375000675A05520652C96AA9620652C549E5511F
:103760004762876A84416F63967496749674967400
:10377000967496749674967496749674B67CB67CA9
:10378000B67C967496749674967495747574756C0C
:103790007574967475747574757495747574556CC8
:1037A0003084508C3084508C0F840F84EF7B0F84D6
:1037B000EF7B2F84508C708CEF7B0F843084EF7BF9
:1037C000EF7BEF7BEF7BEF7BEF7BEF7BF07B107C86
:1037D000107CF07BEF7BEF7BCF7BEF7BF07B6D6B27
:1037E000064A875A4752465A665A675A47520652FD
:1037F000475A875A8762264A2652E551055A05528A
:10380000E5490552265A465A0552054A2652A862EB
:10381000885A26522752885AE96AA86A465A465A4E
:103820004331CA5A8D73AE73AE73AE7BCE7BAE7B23
:10383000AD7BCE83EF83CE7B0F840F840F840E8409
:10384000EE83EE83EE830F84CE7BCE7BEE830F84FC
:103850000F840E842F842F8C2F8C4F8C4A73CD8332
:10386000AD7B0A6B0A6B8C7B8C7B8C7BA962A8621C
:103870008B83AC830A6B096B4A736B7B6B7BE96A46
:10388000E96A4B734B732B73E96AE96A6C7B8C7B37
:10389000E96AE96A2A736C736B73E962C539297B3B
:1038A0004C9CCC8B2E942D94CC8BCC8BCB8B2D9491
:1038B0008EA4CB8B4A7BAC8B2D9CCC8B6B7B6B7B98
:1038C000ED8B2E940D8C8B836B7B2D94CC8BAB83EB
:1038D0008B7BEC8B6D9C8EA4CFACAC83C22065310E
:1038E000895AEA62A962054A4752EA6AEA62264AA6
:1038F000264A685AEA6A2A6B4752064AC962E96A46
:10390000A862475267522B6B4B73885A4652C96262
:10391000E96A2A6B47522652675A885A4752E64943
:10392000064A675267526752054A064A675A274A4B
:10393000274A47524752264A064AE641474A4752D3
:10394000C5410542E541064A274A064A4752885A78
:10395000A85A885AED830D8C0D8C4C9CCEB46E9C6D
:10396000ED8B6F9C6E9C6EA46EA4AEAC4D9CCEB4E1
:103970004D9C8EA4D0AC2E944E9CD0A4B0A4F0ACA0
:10398000F0AC6F9C4E942D940D940C94EC938EA4FB
:103990002D9CAEAC10B5ED8BE641474A4B6B2A6BC4
:1039A000096B2A6BE962474A274AA952C95A8852C9
:1039B000E6414752C962A9624752E549885A0A6BF3
:1039C000EA6A8852A85A0A6B0A6BE962885AC96285
:1039D0004B732A6B31AD11AD8F9C6F9CD0AC10AD89
:1039E0008F9C8F9C8FA4EFACCFA44E944E94D0A408
:1039F000D0A44E944E944F94D0A48F9CCD830D8C24
:103A0000ED832D8C0D84CC7B2E8C4E8C2E8CED83F7
:103A1000ED83CC83EC838DAC0FB50D94ED8B2E94A0
:103A20000D946E9C4D9C4E9C0C944D9CEC93EFAC75
:103A3000CFAC8F9C4E94AFA46F9CF0AC6F9C6F9CEE
:103A40006F9C6E9C8EA4EFAC4D9CAEACEC93CEAC58
:103A500030B5ED8BC85A296BAC7BEC834D946E9CD2
:103A60004D944E8C4E8C2D8C4E948F9C6F946F9CED
:103A70008F9C8F9C8F9C8F9CB09CF1A452B552B5AB
:103A800011AD12AD12AD11ADF1AC11AD32B532B513
:103A9000F1AC11AD31B552B552B552B573BD72B579
:103AA00052B551B531B531B531B511AD11ADB09C8F
:103AB000AF9CB09C6F944E944E942E8C2D8C6E9433
:103AC0008E946E946E946F946F946F946E94ED8355
:103AD0002D8CCDAC2FBD6EA40E942E94CD8B4E9C10
:103AE000CC8B6E9C0D942D942D94CFACF0AC4E9459
:103AF0004E940E94ED8BCC8B6E9CCD8B8FA42D941D
:103B0000AEA46EA44E9CCFAC2D94EEB4B2C58EA4E0
:103B1000AB73AB73CC7B0D846E948E9C8F9C8E9C10
:103B20004D948E94AE9C8E948E946E940D8C6F9466
:103B30008F9C8F948F94D0A4F1AC32B552B552B50E
:103B400032B531B531B531B531B531B511AD32B56B
:103B500011AD31B531B552B552B532B531B511B53A
:103B6000F1AC909C8F9C8F9CB09C8F9CD0A4F0A4B7
:103B7000AF9CF0A4F0A4D0A4AF9CD0A4D0ACD0A4AF
:103B8000CFA4CFA4CFA4AF9CAF9C0D8C0D846D9C13
:103B9000CFAC6E9C0D94CC83CD8B0D942D9CCC8B97
:103BA0004E9C0D942E94CFACAFA4ED8BCD8B6F9C1F
:103BB000AC834B7B4D9C4E942E946E9CAFAC4D9C35
:103BC0006E9C0D942D948EA4B1CD8DA4ED838B7B32
:103BD0002D8CAF9CF0AC10AD30AD10ADAFA4CFA428
:103BE000D0A4CFA4CFA4CFA4CFA4CFA4CFA4CFA43C
:103BF000AF9C6F946F948F94F1A452B511AD11AD39
:103C000011AD11B5F0ACCFAC11AD52B5F1A4F0A42B
:103C1000F1AC11ADB0A46E948F948F944E8C2D8C1A
:103C20006E944E942D8C6E944E944E944E942D8C96
:103C30002D8C2E8C2D8C2E8C6E944E942E8C4E8C26
:103C40004E944E8C0D84CC7BAC7BEB8B4D9C4D9C71
:103C50002D9C6D9C4E9C8EA4CFACAFACEFB410B538
:103C600010B5EFB4EFB4AFACCFACF0ACAFAC8EAC42
:103C70006DA46EA48EACAEACAEACAEACAFACCFAC03
:103C80008EACAEAC10B56D9CAC7B8B730D8C4E8C3A
:103C90006E946E946E946E946E946E948F948F9CCA
:103CA0008E9C6E946E944E946E944E942D942D949E
:103CB0006E946E942D8C4E8C4E8C0D8C6E9CF0AC54
:103CC000B0A4AFA4F1A411AD11ADF1A4F1A4F1AC75
:103CD000909CAF9CF0A411A5D0A4F0A4F1A4D1A411
:103CE000D0A4B09CB09CB09C8F9C8F94B09CB09C96
:103CF000B09CB0A4F1A4F1A4D0A4F1A4F1A4F1A4C7
:103D0000D0A4D09C8F9C4D9C8EA4AFA4AFA4AFA494
:103D1000AFA4CFA4D0AC31B531B531B511B5F0B445
:103D200010B5F0ACF0ACF0ACD0ACCFAC6E9C8EA4C7
:103D3000AFA46EA46E9CAFA48F9CD0A4AFA4CFA45C
:103D4000AFA48F9CB09C6F94D09CD09CD09CF09CD6
:103D5000D09CD09CF19CD09CAF948F94B0948F8CCD
:103D60008F8C90948F946F942E8C2E8C0D8CED8371
:103D70000E8C2E8C2E8C4E8C0D840D842E840E84F5
:103D8000C96AC96AE96AEA6AC962E96A6C738C7BC2
:103D90008C7B8C7B8C7B8C736C736B736B734B73B6
:103DA0004B734B7B8C7B4B734B732B734B732B6B1A
:103DB0004B734C732B6B4B730A730A730A732A6B26
:103DC0000A6BA862C86AA862A762A862A86209739F
:103DD0000A730973A862E96AE96AE96AA762C86AAC
:103DE000C86A0A6B2A6BE96AE96A096BE86AE86AD9
:103DF000096BE96AA862E96A096B096B0A6B0A6BCD
:103E00000A730A730A73E96AA86AA86AA862A862B0
:103E1000E96AC86AC86AE9720A73AD7B8C7B8D7BDC
:103E2000CD83AD83AC83CC83CC83CD83CD838C7B9E
:103E30000A732A734B73AC838B7B8B83E972C86ADA
:103E4000E96AE96AC96AA8620A736B738C7B4B7B67
:103E50006B7B8C7B6B7B6B7B6B7B8B7B6B7B4A7B12
:103E60006B734B7B4B7B6B7B8B7B8B7B6B7B6B7B2A
:103E70004B736B7B2A7B297B4A7B4A7B497B497B43
:103E80004A7B4A7B4A7B4A7B297B29734A7B4A7B54
:103E9000097309732A730973E972097309732A7321
:103EA00029730973297B29732973097B0973097B9A
:103EB000097B297B4A7B297B4A7B4A7B4A7B4A7B5D
:103EC0006A83497B297B2A7B2A7B4A7B4A7B2A7B24
:103ED000297B297B6B7B6B7B6B7B8C7B8C838C7BCB
:103EE0008C7BAD83AC7BAD83AC836B7B4A734B73B4
:103EF0004B7B4A7B4A7B8B834DA40C940C940C9493
:103F00000D94EC8B2D946F9CB09CD0A4D1A4F1A403
:103F1000F1ACD0A4D0A4D0A4AFA46E9CAFA46EA4E6
:103F20008FA4F0A4D0A4B0A4B0A4B0A4AFA4AFA4B4
:103F30008FA46E9C6EA48EA48EA48EA48FA46E9C5F
:103F40006E9C6FA48FA4AFA4AFA4AFA4AFA48FA4A2
:103F50008FA48FA48FA48FA490A4AFA48EA48EA4AA
:103F60008EA46EA46DA44DA44DA48EA48EA44DA4C5
:103F70006DA44CA44CA48EA4AFA4AFACD0ACCFAC79
:103F8000CFACD0ACF1ACD0A4D0A46EA46DA48DA461
:103F90008EAC8EAC8FACAFACCFB4CFB410B531B566
:103FA00031B531B5F0B4AFACCFACF0AC11B510B5A4
:103FB00010B531B5E96AE972297B0973E96AC96A02
:103FC000E96A0A73AC83AC832B734B734B734B73EB
:103FD0008B7BCD8B8C832A732A732A7329736B7B1B
:103FE0008B7B2A730973E972E972E9722A7B2A7B57
:103FF000E97209732A7B09736B838B836B834A7B1A
:104000004A7B4A7B6B7B0D8CED8B4B7B4B7B4B7BDD
:104010006B7BED8B0D94CD8B0A730A7B297BE97248
:104020004A834A8309732A7309730973E872297BE7
:10403000297BE97229730973E96A4A7B4A7BC86A5A
:10404000876A8762A862A86AC872C87246624662B6
:10405000465A465AA86AC8726762675A67626762B8
:10406000465AC86AE96A465A475A675A475AC96A55
:104070006439843964394439233164396439843981
:10408000C541A5418439853985398539A541E64938
:10409000A54164396439843984398441844164395F
:1040A0004339433943396439844164414339634175
:1040B00063416441A441A5416441443943396439B1
:1040C0008439C541A5416439643943396439A5410E
:1040D000A541A541233943394339433964416441FA
:1040E00044396439433964398441A4418441844169
:1040F000844184416439A541A54164392339433958
:1041000044394339644184416439643984416439B0
:104110006441644164418439844163394439643978
:10412000844184398439843964398441275247521F
:104130004752064A064A885A685AA95AA85A265225
:10414000475268526852885A885AA862675A26525B
:104150002752E5492752475A055226524752875A55
:10416000475A475A475A47522752465226520652F2
:104170002652475A2652074A064AE649274A2652F5
:1041800026524752885A675A47524752064A0652A1
:1041900026522652475226522652E5494752264A6F
:1041A000264A675A885A885A6752685A475A265286
:1041B000675A6852885A064A885A675A465246626F
:1041C000055A465A885A685A885A8862475A265A5F
:1041D000255A665AA86A465A87622652475A675A2B
:1041E000C962885A875AA8620E8C0E8CD0A46E9C25
:1041F0002D94909CF1A4D1A411B54D9C6EA48F9CDC
:10420000F1A4B1A4D0A411B5AFA44D946F9C8F9C20
:10421000ED8BCFAC4D9C2D9C4E942E94ED8BD0A469
:10422000F0AC8F9C2D944E9CEC938EA4D0ACAFA49C
:104230002D9C0D8C6F9C2E946F9C8EA46E9C2E9446
:10424000909C0E942D94F0AC4E940D94ED8B6F9C3D
:104250008F9CAFA4AFACEC934E94AF9C6E948F9CAC
:1042600031ADF1AC8F9C8F9C4E9C6F9CF0ACD0A478
:1042700012A50D8C4E940D8CAEA4CFACAEAC8FA419
:104280008F9C6F9C6F9CF0ACAFACAFAC4D9C0C9412
:10429000CB936DA4CFAC4D9C6EA44E9C0D94D0AC32
:1042A000F0AC10B52F94F1ACF0AC10B5B0A411ADDA
:1042B000909C12AD72BDAEACF0B452B5B0A46F9C80
:1042C00052B552B532AD11AD4E9CAB830D9410B5C5
:1042D000AEAC8EA431B50D942E94F0AC11AD11ADF1
:1042E000F0AC6E9C0D948FA40FB530B5F0ACD0A49B
:1042F0000E940E8CF0AC10B510B532B5D0A44F941E
:10430000F0AC51B511B510AD31B54D9C4D9CF0AC34
:1043100010B58FAC31B531ADD0A411AD52B510B5DB
:1043200031B5F0AC8F9CF0AC51B511AD52B5F0ACDD
:1043300011AD10AD31B510B5F0B431B511AD6F9C04
:10434000B0A451BDEFB4F0ACCFACAEAC6DA4AEAC8C
:104350000FB5CFACF0B411B5D0AC10B530BD10B5C1
:10436000F0ACF1ACAFACF0B4D0AC31B511ADD0A481
:10437000F0AC8EA4CFACF1ACB0A4AFA4F1ACCFAC98
:10438000D0A4AFA46EA40D948FA4CFACAFAC8EA478
:10439000AFA4AFAC8FAC6EA4AFACF0ACF0ACAFAC34
:1043A000CFACF0ACEFACEFACD0ACF1ACF0ACAFA4B8
:1043B000F0B4CFB4CFB411B511AD72BD72BD10B5AC
:1043C000D0ACCFAC51BDF0B4F0B4EFB4AFAC8EA470
:1043D000CFACF0ACCFACCFACAFAC8EA4AFA4CFAC75
:1043E000AFA4CFACCFACB0A4F1ACB0A4D0A4AF9C80
:1043F000B0A4F0ACF0ACD0AC8FA48E9CAFA4AFA4B2
:10440000AFA4AFA44E9C4E9C6EA46EA4CFACEFB4F0
:10441000AEA42E9C2E9C2D9C4E9CAFAC0D944E9C1D
:104420002D9C6EA46E9C8EA48EA48EA48EA46EA4CD
:104430008EA48FA46E9C6EA48EA48EA44D9C6DA49D
:10444000AEAC6EA4AEAC8FA46DA46EA4B0A4D0A488
:10445000F1A4AFA44DA46DA46E9C6DA46F9C8F9C21
:104460006F9C6E9C4E9C8FA42D9C0C9C0D9C2D9C37
:104470006EA42D9C6F9C4E9C2E9C2D940D940D949F
:104480000D940D942D9C6E9C4D9C4D9C6E9C6E9C31
:104490006F9C4E9C2D9C4D9C4D9C8EA48EA4AFA4D5
:1044A000D0A4D0A4D0A4F1AC11AD32AD32ADD1A422
:1044B000B0A4D0A4F0ACCFACF0AC11ADD0A4AFA4FC
:1044C000EFB46CAC4BAC6CB48CAC8DACF0B431B51F
:1044D00031B531B511B58F9CCFAC10B551BD51BDC3
:1044E00071BD50BD51BD50BD50C551BD51BD50BD38
:1044F00010B510B530BD51C550BD51BD30BD10B562
:1045000031BD51BD51BD51BD72BD73BD93BD51BDD6
:1045100050BD30BD51BD4FC572BD73BD73BD72BDC1
:1045200072BD72BD0FB5ADB4EEBC30BD92C551BD0C
:1045300092BD71C550C551BD31B510B5EFB4EFB4E2
:1045400010B552BD72BD72BD71BD30BD30BD30BD44
:104550000FBD30BD30BD30B510B551BD93BDB3BD3D
:1045600072BD72BD72BD72BD93BD73BD93BD93BD6F
:1045700092C551BD72BD72BD72BD72BD30BDADB4CC
:10458000ADB4ADBCEEBC0EBD72C572C572C551BD39
:1045900072BD72BDEC936EA4CFACEFB4AEAC8DAC7B
:1045A000AFACAEACADB48EACAEAC8EAC4E9C6E9C33
:1045B000AFACAEAC8DACAEAC8EA44E9CAFACCFACC1
:1045C000AEAC8EA4AFA4D0AC11ADCFACCEB4AEB473
:1045D00010B510B5CFACD0ACD0A4D0ACF0ACF0AC32
:1045E0008EA46DA4CEB410B530B531B552BD51BD59
:1045F00030BD10B5D0B4F0B4F0B4EFB410B552BDC6
:1046000073BD73BD51BD30B5AEA48EA48EAC8EAC5F
:104610008EA48EA48EA48E9CD0ACF0ACD0ACD0ACCA
:10462000D0ACD0A4AFACAEACAEACAFACAFACAFAC7A
:1046300010B510B510B510B5EFB4AEAC4D9C4DA48F
:104640006DAC6DAC8EAC8EAC8EA48EA46EA46E9C44
:104650008441233922394341434983498449844968
:104660008349634163496349A449275A88626A833D
:104670008A8BE96A475AC54922392239634163491D
:1046800063416441644163418349634963418449AF
:10469000475AA8628C830D948C83E96AA8622339F7
:1046A00043416341634163418441A441A449834937
:1046B000644163416341634163418349A449834148
:1046C0008341A4498862E96ACC8BEC8B4A7B88627F
:1046D000265A8441A441C549C449C549E549E5492B
:1046E000C549C549A449A44964418862A86A8B8325
:1046F0000D94EC9309738862E55163416349634902
:104700008449A449C449C549C549C5498441433977
:1047100002310231E230023163414341634183415E
:104720006349634963416341265A497B0973676260
:10473000C54984410231E230023163414341634162
:1047400084418441834983496341434184412652E2
:104750004A734B7BC96A0552A449033164418441C1
:10476000A449A449A449C549C451C451C449A44950
:10477000A449A449A449A44984496341634102313D
:10478000A54967626A7B4A7BA862C5494341634188
:104790008441844984498449844984416341634113
:1047A0000231E2304339E551465A4A7B6A834A7BFB
:1047B000475AA44164418441844164416441434176
:1047C00043392331E228E22864410231023123399E
:1047D000C228A120E2284339434163416341634138
:1047E00063414341A86ACEB4CFB40C94C86A43393C
:1047F00002310239C2280231233943416341644105
:1048000064416441634143412339A86AD0ACF0ACB0
:104810004E9409736441023143398441A449A44947
:10482000C449C449C451C551C451C551C451C449F6
:10483000A449A4498449634143390231C5490D94CF
:1048400010B5CFAC0D9406524339634163416341C7
:10485000634163416341433923390231C228033143
:104860002339A4498B83AEAC6EA48FA4C96A64417A
:10487000644163416341434143392339E230A2201B
:10488000C220023163414339644184492339C2283B
:104890008118C2202331233943394339433923391D
:1048A0006B8330BDEFB44D9CAC83C549433963493C
:1048B000E230A120033123392339433943394339C5
:1048C0004339433943394A7BF0ACF1AC6F9CAC833C
:1048D000C54943390331634184418441A449A44912
:1048E000A449A449A449C549A449A449A44984495F
:1048F0006441634103316441C86AF0B40FB5EFB459
:104900008E9C8862233943394339434143414339BB
:10491000433903390331A220C2284341C449876285
:104920006EA4F0ACD0ACB0A42B73433943394339F7
:10493000233903390331E2288118A1200231434190
:104940006441A449E551A44963412239C220A12010
:10495000A120E2300231233923312339AC8B31B528
:1049600031B52E94AC83E649C449A4492339A12822
:10497000C228033103312331233923392339233129
:1049800023396B83F0ACF0AC4F94CD83265A844925
:10499000E22843394339644164418441844184417C
:1049A0008441844184418441844164414339433991
:1049B000E228C5516A8310B5EFBCAEAC4E9C88624C
:1049C0002339233923392339233923390331E32880
:1049D000C228A1200331A449666209738EA4CFAC1A
:1049E0008FA46F9C4B7B4339033103310331E228A1
:1049F000A2208120A120023143398349A449E549FD
:104A0000465AE551844943412339C228A1208118DF
:104A1000A220C228C228E228AC83D0A411AD2E94D3
:104A2000AC8306520552C45143410231A120A22059
:104A3000C228C228C228E228E228E228E3306B8399
:104A4000F0ACF0AC4E94CD83675AC451E228E22812
:104A500002310331233123392339233923394339AF
:104A6000233923392339233103310229E228465AD5
:104A70008A838EB46DAC2D9C0C94675AE228C228B0
:104A8000E228C228C228C228A220A1208120E23028
:104A90004341E55109736A836EA4AFAC6EA48FA441
:104AA0004B7B0331C228C228C22081206118A2207A
:104AB000033123414341C449A441255AA76A255AD9
:104AC000A451634923390231C22881186118811821
:104AD0008118A220AC83F1AC11AD4E94AD83275266
:104AE000465A055A63492239C22881188118A120E3
:104AF000A120A120A120A120C2206B83F0ACF0ACAA
:104B00004E9CCD8B8862055202318120A120A220CB
:104B1000C220C220C228C228C228C228C228C22855
:104B2000A220A120A220A2200231A762EC936DACAA
:104B30004DA40C9CAB8B475A81208120A120A12041
:104B40008120812061186118C22803396341465AC7
:104B5000CC8B0C948EA4CFB48EA4CFAC2B73E22854
:104B60008120811861184110A120E23002394341AF
:104B700084490552C549255AC86A465AE5518349B0
:104B8000233922390231A1208120A120A120C2286D
:104B9000ED8BF0ACF0B42E94CD8327526762255A8A
:104BA00084492339E230A120A220C228C228C22889
:104BB000C228C228E2288C83B0AC8EA40D94AC83AA
:104BC000886205520331A120C228C228C228C22807
:104BD000E228E228E228E228E228E228E228C228A5
:104BE000C228A22002316A8310B56EA46EA44E9C26
:104BF000CD8B885AA120A220C228C220A220A120A9
:104C000081208120E22803398449C86AB2CD10B5D9
:104C1000AFAC10B5EFB4CFAC8C7B0329A220A2209F
:104C200081206118E228023123394339C449465AA8
:104C3000E549465A09736662055A4341C228233939
:104C40002339C220C220A631083A09420E8CCFACCB
:104C5000CFACEC93AC832652876246626441E22873
:104C60000331E320C7392942294228422842084219
:104C70002842ED8BAFAC8EACEC936B83676206522F
:104C800003316531A639A639A639C641C641C641A8
:104C9000C641A639A639A639863965396531242930
:104CA00003290D9451BDB0A4D0A48F9C0E8CCA6270
:104CB000A639A739C741E739E839C7398639C2204B
:104CC000E230023184416A7B34DE50BDCFB430BD66
:104CD00051BDCFACED830842E739E739E320A1208D
:104CE00003312331E2280231E5518762C549465A32
:104CF00009736762255A4339C228033143390329AE
:104D00006A4A5374168D168D12A5F0ACCFB40C946C
:104D1000AC8B275AA86267628441C2282339AB5200
:104D20009484378D178D178D178D378D178DD19CE6
:104D3000D0AC10AD4E9C8B836762465AE741B58478
:104D4000378D37953795579557955795579557956B
:104D5000378D378D378D378D378D747CC6416EA476
:104D600051BDB0A4D0A4AFA40E94CE7B178D378DC7
:104D7000378D378D378D5795B4848A522339E22881
:104D8000A449EC8B54DE71C510B530BD10B5F0AC44
:104D9000B19C37953795F68CEC5245312339233940
:104DA000A220E22805524A7BC549475A2A7B876AD6
:104DB00026624339C22003316339A639947C168DAB
:104DC000178D168D12AD10B510B52D9CEC8B685A51
:104DD000A86A876A8449C2284431B48C378D378DDC
:104DE000378D378D378D378D3795D1A4F0ACF0AC3A
:104DF0004E94CD8B6762675ACB5A58955795579505
:104E00005795579557955795578D378D378D378DC2
:104E1000378D378D378D378DCB5AAFAC51BDD0AC78
:104E2000F0ACD0AC4E94EF7B378D378D378D378D0E
:104E3000579557955795D58CA541E228E5494D9C46
:104E400075DE51BDF0ACF0B4EFB4F0ACB19C579549
:104E5000579557955795CC5264394339C228033139
:104E6000465AEC8BA541465A2A7BA86A46626339AA
:104E7000C22002318441A639B584378D378D3695ED
:104E800032AD0FBD30B54D9CEC8B675AC86AA86A2D
:104E9000C549E2282331D48C5795379537953795F6
:104EA000379557955795D1A4F0ACF0AC4E9C0D8C2E
:104EB00088628762CB5A789577955795579558951C
:104EC000589557955795378D378D378D378D378D49
:104ED000378D578DEC5AD0AC72BD10B510ADF0AC1B
:104EE0004E9C0F84378D378D378D57955795579535
:104EF0005795F58CC541E23026528FA475DE10B56A
:104F00008FA4CFB4AFACCFAC909C36955795579546
:104F10005795CC5264414339C228233987626E9C2D
:104F2000A541675A4A7BA86A87628441C228023138
:104F3000A541A639B584378D5795579511B5CEB48F
:104F4000EFB42C9CEC93465AC86AA76AE551E22854
:104F50004439D48C579557955795579557955795EC
:104F60005795B09CF0B4F0AC6E9C0D94A862A7620B
:104F7000CB5A789D789D789D7895789558955895D9
:104F800057955795378D378D378D378D378D578D91
:104F90000C6310B552BDF0AC10B5F0AC4E9C0F8454
:104FA00057955795589557957795779D7795F58CA3
:104FB000C6410231675A10AD75E610B5AFACF0B41A
:104FC000CFACCFAC4F94168D379537955795AB52E4
:104FD00084414339C22864394A7BAFA4C549675A22
:104FE0004A7BC86A876AE551C2284339A549A63970
:104FF000B584379557953695F1ACCEACCFAC0C9CBB
:10500000AC8B465AC96AC86A055202316439D48CDD
:1050100057955795579557955795579557958F9CF1
:10502000F0ACD0AC6E9C0E94A862A862EC62789D45
:1050300078957895579558955895579557955795CC
:1050400057955795578D578D578D57952D6B31B572
:1050500052BDF0ACF0B4F1AC6F9C2F8457957795AE
:10506000779577957795779D7795F594C541233119
:10507000C86A10B575E6F0B48FA4F0B4F0ACAFAC6C
:1050800050943695579557955795AB4AA54164412D
:10509000E228A5410D94AFA4465A675A4B7BE872AB
:1050A000A76A666223398441C5498539B484579516
:1050B00057955695D1A48EA48FA4AB8B6B7B2652AB
:1050C000C86AC86A265A43398441B48457955795AB
:1050D00057955795579557955795D1A411B5F0AC5D
:1050E0006E9CED8BA862A8622C6B789D7795579586
:1050F000579557955795579558955895579557954E
:1051000057955795579557954D6B52BD92BDF1AC3C
:10511000F0ACD0A46F942F84579557957795779DD1
:10512000579557955795F58CA54184416B8331B5BB
:1051300075E6AFAC4E9C8EA4AEACAFA42F8C36956A
:10514000579557955795AB4AC549A5492339675A8D
:105150006E9CCFAC0652675A4A7B0973C86A876255
:10516000265AE551C5498539B484579557955695C2
:10517000909C2D9C4EA48B836B7B0652C86AC87290
:105180006762E551844173845795579557955795B4
:10519000579557955795D1A4F0ACF0AC6E9CCD8B3C
:1051A000A862E96A6D6B779557955795579557950E
:1051B000579557955795579557955795579557958F
:1051C00057955795AE7393C572BD11AD11ADF1AC46
:1051D0004F94308C57955795579557957795579588
:1051E0005795F58CA54106522D9C31B596E6AFA496
:1051F0006E9CCFACCFACAFA40E8C1695579557953F
:1052000057958A4AC549C549E5516A838FA4D0ACF0
:105210000652675A4B7BE972C86AA76A4662055212
:10522000E5496539B48C579557953695B0A48EA449
:105230008EA4CC8BAC830652E86AC86A676A0552B2
:10524000A5417284579557955795579557955795FA
:105250005795D1A4F0ACF0AC6F9CCC8BA862E96AF6
:105260008D6B779557955795789557955795579591
:1052700057955795579557955795579557955795CE
:10528000AE73D3CD72BD11B511ADF0AC4E940F8499
:105290005795779557955795579557955795F58CF9
:1052A000A54187626E9C30B595E68FA46E9CAFAC2D
:1052B000AFACAFA40E8C15955795579536956A4AA5
:1052C000E649E551265A2D9C8FA48FA4265A675A89
:1052D0004B7BA762C549265A6762265A0652653932
:1052E000B48C57955795569D12AD10B511B50D94C8
:1052F0002E94475AE96A6762065A265AA549527C93
:10530000579557955795579557955795579532AD4A
:1053100052B531B5B0A40E8CA962C96A8D73779568
:10532000579557955795579557955795579557951D
:10533000579557955795579557957795AE7BB3C524
:1053400031B5CFACCFACAEA40D94EE835795779525
:1053500077955795779557955795D58CA541E96AD7
:10536000CC8B4E9C95E6CFACAFA4F0ACD0ACAFA448
:105370004F941595579557953695494AE6510652DB
:10538000A7624E9C0A736B83265A67624A7BA862A7
:10539000643944394339E54906526439B48C579528
:1053A0005795569D11B5EFAC10B50D942E94675AD4
:1053B000E96A676244398441A549327C579557951B
:1053C00057955795579557955795D1A411B5D0A492
:1053D0006F9CCD83A962685A6D6B57955795579509
:1053E000579557955795579557955795579557955D
:1053F0005795579557957795AE7B32BDF0AC4DA438
:105400004D9C4DA4CC93EE83579577957795579502
:10541000779D57955795D48CC541475AC86AAFA414
:1054200095E6D0ACAFAC10AD10ADF0AC7094159566
:10543000579557953695494A06520652475A265A65
:105440000973CC8B0552475A4A7BA8628441433981
:10545000E230233164414431B48C57955795569DC1
:1054600011B5CFB4EFB42D94EC8B475AE96A475A83
:10547000643903316439117C3795579557955795A1
:10548000579557955795F1A4F0ACD0A46F9CCC8359
:10549000A962675A4D6B57955795579557955795EC
:1054A000579557955795579557955795579557959C
:1054B0005795779DCE7B52BDD0ACAEAC8EAC4DA493
:1054C000CB93CE83579D579D579D5795579557958D
:1054D0005795B48C4439E651297BAFA495E6D0ACFE
:1054E000AFA4F0ACF0AC32B54F94159557955795E5
:1054F00036954952C54944396762E87A297BAB8BB6
:105500000652465A4A7BA862643923390231033174
:1055100044314431B48456955695569D11ADF0B43E
:1055200011B52E94ED8B475AE96A475A64392331F5
:105530006439117C579557955795579557955795B9
:10554000569D11ADF0AC8FA46F9CCC83A96288628C
:105550004D6B57955795579557955795579557951F
:105560005795579557955795579557955795779DB3
:10557000CE7B51BDF0ACF0B4D0AC8EA40D94CD83F5
:105580005795579D579D579D579557955795B38C50
:105590004439675A0973AFA475E6AFA44E9CAFAC0B
:1055A000AFAC11B50E8C1595579557953695495258
:1055B000A5492331475AA76A0873CB8B2652675AED
:1055C0004A7BC86A64394439E230E32844314439BB
:1055D0009384369536953595F1ACF0ACF0AC0D94DE
:1055E0004E944752E96A675A443923316439F0735B
:1055F0005695579557955795579557955695B0A4E5
:105600008EA46EA46F9CCC83A862A8624D6B579544
:10561000579557955795579557955795579557952A
:1056200057955795579557955795779D0F8472BD08
:1056300031B5F0ACF0AC51B56F9CAD7B569D579D2C
:10564000579D579557955795579593844439C86AF0
:105650006A83AFA496E66EA44DA4CFB4EFB4AFAC0A
:10566000ED8BF594579556951695494AC549E551E0
:10567000E872A66A297BCC8B2752675A4A7BE9726B
:10568000065284410231E2284439443993843695E4
:105690003695359511ADF0ACF0AC0D8CED8B475ACD
:1056A000E96A8762844123396439D0733695369527
:1056B00036953695569557955695B0A48FA48EA4D9
:1056C0004E9C0D8CA962A8624D6B579557955795C6
:1056D000579557955795579557955795579557956A
:1056E000579557955795579DEE8372BD11B5F0AC00
:1056F000F0AC52B58F9CAD7B569557955795579505
:105700005795579556957384A5410973E972AFA4CF
:1057100076E68EA44DA4AEAC8EAC6EA4CD83F4948C
:10572000569556951695494AC6496762E87A466283
:10573000E8720D944752465A4A7B297B097BA76A37
:10574000E5512331443944397284927C717CF3945D
:1057500011ADF0AC11AD2D94ED8B675AE96AE97289
:10576000676264416439D0733695369536953695BF
:10577000369536955695B0A4AFA4AFA44E942E940A
:10578000A962E9726D6B579557955795579557953F
:1057900057955795579557955795579557955795A9
:1057A0005795779D508CD4CD11B511AD31B572B5EB
:1057B000B0A4AD7B569557955795569556955795E8
:1057C0005695728427522A732D9C51BD75E66EA49E
:1057D0008EA4F0B4CFACAFACED8B14955795569525
:1057E0001695494A265A6762097BAB8B8FA4F0ACA9
:1057F0004752465A4A7B297B097BE872C76A876A07
:10580000265A6439674A033AE239E4394D9CAEAC12
:10581000AFACEC93EC8B475AC86A0973C872876ABD
:10582000C549CF7336953695369536953695369566
:1058300036954E948EA4AFA42E944E94C9622A73CA
:10584000AE735795579557955795579557955795C3
:1058500056955795579557955795579D579D779DB1
:10586000F29C14D631B5F1AC11ADF0AC6F9CAD7BB0
:1058700056955695569556955695569556957284C5
:10588000E96A8FA4F0B451BD75DEF0ACF0AC52BD46
:1058900032B511B54F94159556953695EF73653120
:1058A0006B7B2D94AFACCFACF0ACF0B44852465A01
:1058B000297B097BE872E872C872A76A676284393B
:1058C000E22042216229A4314E9CCFACCFACEC93B4
:1058D000EC8B475AC86AE872A772876A265A4D6BE2
:1058E000F58C3695369536953695369536956E9473
:1058F000CFAC8EA42D944E94A8622A73AE7B56959D
:10590000569556955695569556955695569556953F
:1059100056955695569556955695569D32A5F4D55D
:1059200011B5F0ACF0ACD0AC6E9C8C7B5695569516
:10593000569536953695369536957284AC83AFACD0
:10594000CFAC31B575DE11ADF1AC72BD52B552B50B
:105950004F94EE73717C095B244202292E948EA42D
:10596000AFA4D0ACAFACAFAC475A475A2A7B087350
:10597000A76A866AA772876A6762844102216229E0
:105980000219E5394E9C31B531B54D9C4E9C475AB4
:10599000C86AC86A466A6662265A8431E952727CCD
:1059A000F58CB38431749284F48C8F9C10B5AFA4C1
:1059B0004E9C2E94885AC86A8D73569536953695A6
:1059C00036953695569556955695569556955695BF
:1059D0005695569556955695F2A472C5F0ACD0AC36
:1059E000F0ACEFAC4E9C6C7B369536953695369583
:1059F0003695369536957284CC8B8FA449830D9C51
:105A000075DE11AD11AD52BD52B511B52E94854A5A
:105A100023424342224222294E9C8EA46E9C0D9C1E
:105A2000C8726A832652475A2A730973087BE87240
:105A3000C872466246628439C218A1100219C4397C
:105A40006E9CAFACD0AC6EA46E9C675AE96AE972EA
:105A5000A772666A055A83312221E531A329A2295A
:105A60006229A229E539AFA4D0A4AFA42E944F9403
:105A7000E96AC96A8D7336953695369536953695A9
:105A800036953695369536953695369536953695BE
:105A90003695369512A572C5AFACCFB4AFAC8EAC0F
:105AA0002D9C4B7335953695D48C30744C5B263ACF
:105AB000A94A684A4A7B4A7B10BD31B575DED0AC35
:105AC000CFAC10B5AFAC8FA40D8C244AA231822983
:105AD000422102292D9CA76A297B50BD6EA4F0ACFF
