:020000040800F2
:10000000680400204501000867100008310D000851
:1000100065100008DD010008C9100008000000009C
:100020000000000000000000000000006B1000084D
:10003000DF01000800000000691000086D100008D2
:100040005F0100085F0100085F0100085F01000810
:100050005F0100085F0100085F0100085F01000800
:100060005F0100085F0100085F0100085F010008F0
:100070005F0100085F0100085F0100085F010008E0
:100080005F0100085F0100085F0100085F010008D0
:100090005F0100085F0100085F0100085F010008C0
:1000A0005F0100085F0100085F0100085F010008B0
:1000B0005F0100085F0100085F0100085F010008A0
:1000C0005F0100085F0100085F0100085F01000890
:1000D0005F0100085F0100085F0100085F01000880
:1000E0005F0100085F0100085F0100085F01000870
:1000F0005F0100085F0100085F0100085F01000860
:100100005F0100085F0100085F0100085F0100084F
:100110005F0100085F0100085F0100085F0100083F
:100120005F0100085F0100085F0100085F0100082F
:10013000DFF80CD000F040F800480047D913000861
:10014000680400200648804706480047FEE7FEE7AF
:10015000FEE7FEE7FEE7FEE7FEE7FEE7FEE7FEE777
:10016000C710000831010008D2B201E000F8012BED
:10017000491EFBD270470022F6E710B513460A4627
:1001800004461946FFF7F0FF204610BD30B50B4678
:10019000014600202022012409E021FA02F59D42B7
:1001A00005D303FA02F5491B04FA02F52844151E8B
:1001B000A2F10102F1DC30BD064C074D06E0E0681B
:1001C00040F0010394E8070098471034AC42F6D39E
:1001D000FFF7B2FF7415000894150008FEE770479A
:1001E00070B5044600F010F90546601C02D00448C2
:1001F0000078044400F008F9401BA042FAD370BD17
:10020000040000202DE9F84FDFF8C8910024A9F17F
:10021000040B23460F2709F1040AABF1040ED1E0C9
:100220000125A54006EA0502AA4276D1DFF8A8C159
:100230004E68A6EB0C0866452BD00DDC032E34D09F
:1002400005DC36B3012E19D0022E2FD11BE0112E62
:1002500016D0122E2AD119E0B8F5881F19D006DC65
:10026000B8F5803F15D0B8F5801F1FD111E0B8F563
:10027000001F0ED0B8F5041F18D10AE0CB6815E0B6
:10028000CB681B1D12E0CB6808330FE0CB680C3342
:100290000CE08B682BB1012B4FF0080303D04561B4
:1002A00004E0042302E0056100E00023FF2A01D8F6
:1002B000064601E000F104064FEA840501D9A5F1E4
:1002C0002005D6F8008007FA05FC28EA0C0803FA96
:1002D00005F548EA0508C6F800804D68ED0070D5C0
:1002E0003E4DAE6946F00106AE61AD6924F00306ED
:1002F00005F0010500953A4D06EB050CDCF80850B9
:10030000A607360F07FA06F825EA0805DFF8D480B5
:10031000404503D14FF0000825E052E0DFF8C880E7
:10032000404502D14FF001081DE0DFF8C080404594
:1003300002D14FF0020816E0DFF8B480404502D148
:100340004FF003080FE0DFF8AC80404502D14FF0DA
:10035000040808E0DFF8A080404502D14FF005080E
:1003600001E04FF0060808FA06F848EA0508CCF85C
:1003700008804D68D9F80060ED024D4601D516435E
:1003800000E096432E604D68DAF80060AD025546F5
:1003900001D5164300E096432E604D68DBF80060FF
:1003A000AD035D4601D5164300E096432E604D68CF
:1003B000DEF80060ED03754601D5164300E0964374
:1003C0002E60641C0A681646E2407FF429AFBDE83F
:1003D000F88F0000080401400000111000100240D6
:1003E0000000014000080140000C014000100140E5
:1003F0000014014000180140001C01400AB10161D5
:1004000070470904FBE7000001488068704700005E
:100410000400002070B5040025D094F83D000025AC
:1004200020B984F83C50204600F04EF9242084F88E
:100430003D002068016821F0010101602068016829
:1004400041F4004101602068016821F4004101602D
:1004500000F094FA4D4A6168914201D84C4900E09D
:100460004C49884201D2012070BD4B492368B0FB42
:10047000F1F15E6826F03F060E435E6063689342CA
:1004800006D94FF4967359434FF47A73B1FBF3F1E5
:100490002368491C1E6A26F03F06314319626168D1
:1004A000914210D84900401EB0FBF1F2521CC2F339
:1004B0000B02042A01D2042022E0B0FBF1F0401C20
:1004C000C0F30B001CE0A268F2B301EBC10303EB25
:1004D0000116431EB3FBF6F35B1C43F480431B057C
:1004E00049D092B301EBC10202EB0111401EB0FBF7
:1004F000F1F0401CC0F30B0040F4804040F4004099
:100500002168CA694CF6FF739A431043C861D4E965
:10051000071001432068026822F0C0021143016005
:10052000D4E9030101432068826848F2FF339A430B
:1005300011438160D4E9050108432168CA6822F0AB
:10054000FF021043C86001E00EE016E02068016879
:1005500041F0010101602564202084F83D002563FD
:1005600084F83E50002070BD01EB4106431EB3FBF2
:10057000F6F35B1CB3E70120C2E701EB4101401E2B
:10058000B0FBF1F0401CC0F30B00B7E7A086010000
:1005900080841E0000093D0040420F002DE9F84F05
:1005A0001F4690468A460446DDF82890FFF72CFF48
:1005B000054694F83D0020287FD1192301224049A7
:1005C0002046009500F046FC002876D194F83C00C7
:1005D000012872D0012084F83C0020680168C90716
:1005E00003D1016841F0010101602068016821F434
:1005F00000610160212084F83D00102084F83E0055
:1006000000262664C4F824806785608D20852D48E7
:10061000E0622B464A465146204600F0A1FB90B9C5
:10062000206841698069009036E02A4649462046A4
:1006300000F0B6FC50B1206C042804D12068016899
:1006400041F4007101600120BDE8F88F606A216803
:1006500000780861606A401C6062618D491E618596
:10066000218D491E89B2218522685369DB435B07CE
:100670000BD451B100781061606A401C6062608DDB
:10068000401E6085208D401E20852A464946204612
:1006900000F0B4FB0028CED1208D0028C5D154F83D
:1006A0003D0B016841F400710160202004F81E092F
:1006B000E67766770020C7E7FFE70220C4E700007F
:1006C000020010000000FFFF10B586B0002100916D
:1006D00001910291039100681549884225D1154C7A
:1006E000A06940F00800A061A069694600F0080018
:1006F0000490C020009012200190032003900E4827
:10070000FFF780FDE06940F40010E061E06900F46B
:1007100000100490206940F4001020616420FFF76D
:100720005FFD206920F40010206106B010BD0000BC
:100730000054004000100240000C01400248816853
:10074000027811448160704704000020074810B50A
:10075000016841F010010160032000F067F80020FB
:1007600000F006F800F024F8002010BD0020024040
:1007700070B50D4D04464FF47A712878B1FBF0F056
:100780000A490968B1FBF0F000F0BEFA48B9102C34
:1007900007D200222146501E00F028F800206C608D
:1007A00070BD012070BD000004000020100000207A
:1007B0000C4808B5816941F001018161816901F04E
:1007C00001010091C16941F08051C161C06900F02F
:1007D000805000900448416821F0E06141F00071D0
:1007E000416008BD0010024000000140F0B40E4B13
:1007F0001B680C46C3F30223C3F10705042D00D97F
:100800000425191D072901D2002300E0DB1E012663
:1008100006FA05F1491E214099409E40761E164079
:100820003143F0BC00F066BC0CED00E0064900F07E
:10083000070208684FF6FF03184040EA0220034A07
:1008400010430860704700000CED00E00000FA055E
:100850002DE9F0470F46050061D0434E306800F0A7
:100860000700B84209D2306820F0070038433060F2
:10087000306800F00700B84251D128683B4C81072E
:1008800012D5400703D5606840F4E06060602878C6
:10089000000703D5606840F4605060606068A96834
:1008A00020F0F000084360602878C00728D068680E
:1008B000012810D02168022810D0890700292EDADB
:1008C000616821F0030101436160FFF79DFD8046EF
:1008D00041F288390DE021688903EFE78901EDE7EE
:1008E000FFF792FDA0EB0801494502D90320BDE8BE
:1008F000F0876068696800F00C00B0EB810FEFD101
:10090000306800F00700B8420BD9306820F00700CB
:1009100038433060306800F00700B84201D0012051
:10092000E5E72878400705D56068E96820F4E060CD
:10093000084360602878000706D56068296920F4BC
:10094000605040EAC100606000F028F86168084A21
:10095000C1F30311515CC8400649086006480068AD
:10096000FFF706FF0020C2E700200240001002400F
:100970005A1500081000002008000020044805490E
:1009800000684968044AC1F30221515CC8407047BD
:1009900010000020001002406A1500080E4A51683D
:1009A0000E4801F00C03042B11D0082B0FD10C487A
:1009B000C1F38343C903C05C0AD55168084AC1F337
:1009C0004041921E515C054A5043B0FBF1F0704724
:1009D00004494843704700000010024000127A00AA
:1009E0004A15000800093D002DE9F84F040070D0B9
:1009F0002078C04DC00749D06868C0F38100012845
:100A000007D06868C0F38100022809D16868C00374
:100A100006D52868800339D560680028E7D035E01E
:100A20006068B0F5803F0BD010B1B0F5A02F11D0A9
:100A3000286820F480302860286820F4802002E0B4
:100A4000286840F480302860606890B1FFF7DCFCD3
:100A500006460AE0286840F480202860F0E700BFDE
:100A6000FFF7D2FC801B642873D828688003F7D571
:100A70000CE0FFF7C9FC064605E000BFFFF7C4FC29
:100A8000801B6428F0D828688003F7D420789A4E19
:100A900080074FF001094FF0000839D5686810F061
:100AA0000C0F07D06868C0F38100022809D168687C
:100AB000C00306D42868800714D52069012808D10E
:100AC00010E02069B0B1C6F80090FFF79DFC074622
:100AD00005E00AE1FFF798FCC01B0228C4D828688B
:100AE0008007F7D52868616920F0F80040EAC10066
:100AF00028600DE0C6F80080FFF786FC074604E09A
:100B0000FFF782FCC01B022823D828688007F7D48F
:100B1000207800072CD57948A169D9B1C0F8009098
:100B2000FFF772FC074604E0FFF76EFCC01B0228CB
:100B30000FD8686A8007F7D571484FF4FA510068FA
:100B4000B0FBF1F0009000BF0098411E0091FAD276
:100B50000EE080E0C0F80080FFF756FC074604E096
:100B6000FFF752FCC01B022875D8686A8007F7D4CB
:100B70002078400760D5E8690027C00008D4E869FC
:100B800040F08050E861E869012700F08050009053
:100B90005C480168C90513D40168834641F480713B
:100BA0000160FFF731FC824606E000BFFFF72CFC36
:100BB000A0EB0A0064284ED8DBF80000C005F5D58C
:100BC000E06801280AD008B1052813D0286A20F06F
:100BD00001002862286A20F0040002E0286A40F040
:100BE00001002862E06841F2883B98B1FFF70CFCF5
:100BF00082460BE0286A40F004002862EEE700BF5E
:100C0000FFF702FCA0EB0A0159455AD8286A800771
:100C1000F6D50CE0FFF7F8FB824605E0FFF7F4FBA2
:100C2000A0EB0A0159454CD8286A8007F6D41FB1B9
:100C3000E86920F08050E861E06988B36968C1F331
:100C40008101022944D00228C6F8608004D0FFF751
:100C5000DBFB044638E034E0FFF7D6FB074604E050
:100C6000FFF7D2FBC01B02282BD828688001F7D4DD
:100C7000206AB0F5803F05D16868A16820F4003093
:100C800008436860D4E908010843696821F47411D5
:100C900008436860C6F86090FFF7B6FB044606E0BC
:100CA00025E000BFFFF7B0FB001B022809D8286829
:100CB0008001F7D51BE000BFFFF7A6FB001B022851
:100CC00002D90320BDE8F88F28688001F4D40EE033
:100CD0000128F7D06868226A00F48031914204D17B
:100CE000616A00F47010884201D00120EAE7002018
:100CF000E8E7000000100240000042428004424247
:100D0000100000200070004010B5401EB0F1807F40
:100D100001D3012010BD4FF0E02460610F21601766
:100D200000F0E8F90020A06107202061002010BD3C
:100D3000FEE701684A69D24352050FD46FF480621E
:100D40004A61002140F8301F2022427381730269FA
:100D500042F00402026101730120704700207047D5
:100D6000F8B50446C06A1E460D461746082807D047
:100D7000012805D010F5803F02D0206B122804D145
:100D80002068016841F480710160134600224FF031
:100D900001112046009600F05DF840B1206800681F
:100DA000C00502D54FF4007020640320F8BD20690F
:100DB000B0F5804F0ED00620216800EAD51040F033
:100DC000F000086133463A460B49204600F08AF8A5
:100DD00078B902E005F0FE0000E0E8B221680861A1
:100DE000054933463A46891F204600F07BF8002823
:100DF000DCD00120F8BD00000800010070B51646E7
:100E00000D4604461EE02046FFF793FF08B101207F
:100E100070BD681C16D0FFF7F7FA801BA84200D8F7
:100E200085B920684069C04340070BD5002044F8CD
:100E3000300F20216173A073216941F020012161ED
:100E40002073E4E720684069C0434007DBD40020FA
:100E500070BD00002DE9F047984617460D46044640
:100E6000C1F30746DDF820902AE000BFB8F1FF3F4C
:100E700026D0FFF7C9FAA0EB0901414502D8B8F125
:100E8000000F1DD12068012E16D0806925EA0000D0
:100E90000004000C12D00020B84211D1002044F808
:100EA000300F20216173A073216941F0200121617D
:100EB00020730120BDE8F0874069E7E70120EBE7F8
:100EC0002068012E0AD0806925EA00000004000C89
:100ED00006D00020B842C9D00020EBE74069F3E714
:100EE0000120F7E72DE9F047984616460D460446DF
:100EF0004FF000094FF0200AC1F3074723E02068B4
:100F00004069C043400515D42068016841F4007170
:100F1000016021686FF480604861C4F8309084F803
:100F20003DA084F83E90216C41F00401216484F8D6
:100F30003C9021E0701C06D0FFF766FAA0EB080099
:100F4000B04203D816B1012F1FD021E02068012F35
:100F500015D0806925EA00000004000C18D000BFFD
:100F600044F8309F84F80DA084F80E90216941F078
:100F70002001216184F80C900120BDE8F0874069D0
:100F800025EA00000004000CEAD12068406901E075
:100F90002068806925EA00000004000CAFD1ECE76E
:100FA00070B516460D4604461EE02046FFF7C1FE0A
:100FB00008B1012070BD681C16D0FFF725FA801B10
:100FC000A84200D885B920684069C04300060BD507
:100FD000002044F8300F20216173A073216941F093
:100FE000200121612073E4E720684069C0430006C6
:100FF000DBD4002070BD000030B585B00024174858
:101000000094019402940394816941F0100181617C
:10101000816901F010010491816941F00801816149
:10102000816901F008010491816941F00401816145
:1010300080690B4D00F004000122049011462846FF
:10104000FFF7DCF90320012103900091CDE90114A1
:1010500069462846FFF7D6F805B030BD00100240BB
:10106000000C0140FEE7FEE770477047FFF766BBE4
:1010700030B58FB028216846FFF77DF814210AA803
:10108000FFF779F80121080400240491CDE900104C
:10109000CDE908040294022507956846FFF7A4FCF1
:1010A00008B172B6FEE70F200A90CDE90B540D94FB
:1010B00000210AA80E94FFF7CBFB002801D072B6DE
:1010C000FEE70FB030BD7047FEE700000FB4084BDD
:1010D00010B504A902AA039800F02CF8044602A94E
:1010E000002000F0D1F8204610BC5DF814FB000091
:1010F000891200080907090E002804DB00F1E0202E
:1011000080F80014704700F00F0000F1E02080F834
:10111000141D704702E008C8121F08C1002AFAD146
:1011200070477047002001E001C1121F002AFBD167
:10113000704700002DE9FF4F89B09B46044600250B
:1011400006E025280BD05A460B999047641C6D1C6D
:1011500020780028F5D10DB02846BDE8F08F002793
:10116000B8460122474900E0074314F8013F203BFD
:1011700002FA03F00842F7D120782E2819D114F88A
:10118000010F47F004072A280ED06FF02F022078B5
:10119000A0F1300109290CD808EB880102EB4101CC
:1011A00000EB0108641CF2E70A98641C50F8048BF9
:1011B0000A9020780028CED0642808D0692806D06C
:1011C00075281ED05A460B9990476D1C58E00A9915
:1011D0004FF00A0901C90A91002802DA40422D2184
:1011E00002E0390504D52B218DF82010012103E000
:1011F000F90704D02021F7E78A4608AE0DE0002168
:10120000FAE70A994FF00A0901C90A91F7E7494636
:10121000FEF7BCFF303106F8011D0028F7D1ADEB19
:10122000060000F12009780701D44FF00108C845F5
:1012300002DDA8EB090000E000208046002706E060
:1012400008A85A46C05D0B9990476D1C7F1C5745F6
:10125000F6DB04E030205A460B9990476D1CB8F13C
:101260000001A8F10108F5DC05E016F8010B5A466B
:101270000B9990476D1CB9F10001A9F10109F4DC4B
:10128000641C65E7092801000A68531C0B60107094
:1012900070470000024900B101200870704700004B
:1012A0000000002010B5012000F033F8BDE8104028
:1012B0000220FEF795BF10B53220FEF791FF002106
:1012C000032000F057F80520FEF78AFF00210320D5
:1012D00000F050F80120FEF783FF0021032000F00A
:1012E00049F80120FEF77CFF0021022000F042F8BF
:1012F000282000F00EF80C2000F00BF8062000F07B
:1013000008F8012000F005F8BDE810400220FEF7C3
:1013100067BF70B50446000904F00F05002100F016
:1013200029F80021284600F025F8012C01D0022CD4
:1013300004D1BDE870400220FEF752BF70BD10B569
:10134000020900F00F040121104600F013F82046B6
:10135000BDE81040012100F00DB810B1012806D001
:1013600000200844C0B240F08000FFF7D2BF402008
:10137000F7E700001CB541EA00101049642401237E
:10138000097801AA40EAC10040F004008DF8040089
:101390004E210B480094FFF701F90120FEF720FFD2
:1013A0009DF80400012320F004008DF8040001AA38
:1013B0004E2103480094FFF7F1F81CBD0000002007
:1013C0001400002010B5044602E0641CFFF7B7FFCC
:1013D00020780028F9D110BD8AB0FFF7B7F9FFF7E0
:1013E00047FEFFF709FE4F484D494FF48042016028
:1013F0004D49416000218160C0E903124161816172
:10140000C1610162FFF706F808B172B6FEE7FFF7A7
:1014100052FF0120FFF73EFF44A7322415260A257C
:10142000FFF740FF00210846FFF797FF3846FFF718
:10143000C9FF02210120FFF790FF40A0FFF7C2FF84
:1014400005210120FFF789FF3CA0FFF7BBFF4FF408
:101450007A7722463AA16846FFF738FE324638A12D
:1014600003A8FFF733FE2A4635A106A8FFF72EFE94
:101470000A2C01DA072104E0A4F10A00322807D27D
:1014800006210120FFF769FF6846FFF79BFF0BE08D
:101490003C2C09D106210120FFF75FFF29A0FFF7AF
:1014A00091FF0024761C76B20A2E01DA042104E0B2
:1014B000A6F10A00322807D203210120FFF74DFFD1
:1014C00003A8FFF77FFF0BE03C2E09D10321012089
:1014D000FFF743FF1BA0FFF775FF00266D1C6DB2E1
:1014E0000A2D01DA012104E0A5F10A000E2807D235
:1014F00000210120FFF731FF06A8FFF763FF09E095
:10150000182D07D100210120FFF727FF0DA0FFF7BD
:1015100059FF0025641C64B23846FEF761FE98E767
:101520000054004014000020A086010057656C6341
:101530006F6D652044656E6E697321003A0000008E
:101540002564000030300000010202030405060794
:1015500008090A0B0C0D0E0F10100000000000000F
:101560000000010203040607080900000000010250
:10157000030400009415000800000020140000007F
:1015800014110008A81500081400002054040000DD
:1015900024110008010000000100000010000000FC
:0815A000000000000024F4002B
:0400000508000131BD
:00000001FF
