:020000040800F2
:1000000008050020450100085B1200086B1100087C
:1000100059120008D50100082D1500080000000045
:100020000000000000000000000000009513000820
:10003000D7010008000000005D12000897130008B7
:100040005F0100085F0100085F0100085F01000810
:100050005F0100085F0100085F0100085F01000800
:100060005F0100085F0100085F0100085F010008F0
:100070005F0100085F0100085F0100085F010008E0
:100080005F0100085F0100085F0100085F010008D0
:100090005F0100085F0100085F0100085F010008C0
:1000A0005F0100085F0100085F0100085F010008B0
:1000B0005F0100085F0100085F0100085F010008A0
:1000C0005F0100085F0100085F0100085F01000890
:1000D0005F0100085F0100085F0100085F01000880
:1000E0005F0100085F0100085F0100085F01000870
:1000F0005F0100085F0100085F0100085F01000860
:100100005F0100085F0100085F0100085F0100084F
:100110005F0100085F0100085F0100085F0100083F
:100120005F0100085F0100085F0100085F0100082F
:10013000DFF80CD000F03CF8004800476D150008CF
:10014000080500200648804706480047FEE7FEE70E
:10015000FEE7FEE7FEE7FEE7FEE7FEE7FEE7FEE777
:10016000F91300083101000840EA01039B0703D09E
:1001700009E008C9121F08C0042AFAD203E011F8E6
:10018000013B00F8013B521EF9D27047D2B201E0A8
:1001900000F8012B491EFBD270470022F6E710B58C
:1001A00013460A4604461946FFF7F0FF204610BDE5
:1001B000064C074D06E0E06840F0010394E80700B4
:1001C00098471034AC42F6D3FFF7B6FF7C16000810
:1001D0009C160008FEE770472DE9F84FDFF8C8913C
:1001E0000024A9F1040B23460F2709F1040AABF1FF
:1001F000040ED1E00125A54006EA0502AA4276D107
:10020000DFF8A8C14E68A6EB0C0866452BD00DDCC4
:10021000032E34D005DC36B3012E19D0022E2FD197
:100220001BE0112E16D0122E2AD119E0B8F5881F26
:1002300019D006DCB8F5803F15D0B8F5801F1FD166
:1002400011E0B8F5001F0ED0B8F5041F18D10AE070
:10025000CB6815E0CB681B1D12E0CB6808330FE0BC
:10026000CB680C330CE08B682BB1012B4FF00803EB
:1002700003D0456104E0042302E0056100E00023AF
:10028000FF2A01D8064601E000F104064FEA840582
:1002900001D9A5F12005D6F8008007FA05FC28EA67
:1002A0000C0803FA05F548EA0508C6F800804D6811
:1002B000ED0070D53E4DAE6946F00106AE61AD6908
:1002C00024F0030605F0010500953A4D06EB050CF8
:1002D000DCF80850A607360F07FA06F825EA0805E5
:1002E000DFF8D480404503D14FF0000825E052E00C
:1002F000DFF8C880404502D14FF001081DE0DFF86B
:10030000C080404502D14FF0020816E0DFF8B4800B
:10031000404502D14FF003080FE0DFF8AC804045C4
:1003200002D14FF0040808E0DFF8A080404502D178
:100330004FF0050801E04FF0060808FA06F848EA11
:100340000508CCF808804D68D9F80060ED024D46EC
:1003500001D5164300E096432E604D68DAF8006040
:10036000AD02554601D5164300E096432E604D6818
:10037000DBF80060AD035D4601D5164300E096430F
:100380002E604D68DEF80060ED03754601D516431A
:1003900000E096432E60641C0A681646E2407FF433
:1003A00029AFBDE8F88F00000804014000001110DB
:1003B000001002400000014000080140000C014014
:1003C000001001400014014000180140001C0140D1
:1003D0000AB1016170470904FBE700000148806829
:1003E0007047000000000020024881680278114434
:1003F0008160704700000020074810B5016841F097
:1004000010010160032000F067F8002000F006F8FA
:1004100000F024F8002010BD0020024070B50D4D02
:1004200004464FF47A712878B1FBF0F00A49096864
:10043000B1FBF0F000F0CDFD48B9102C07D200223E
:100440002146501E00F028F800206C6070BD01208D
:1004500070BD0000000000200C0000200C4808B512
:10046000816941F001018161816901F0010100911F
:10047000C16941F08051C161C06900F080500090B5
:100480000448416821F0E06141F00071416008BD1D
:100490000010024000000140F0B40E4B1B680C46F7
:1004A000C3F30223C3F10705042D00D90425191D48
:1004B000072901D2002300E0DB1E012606FA05F120
:1004C000491E214099409E40761E16403143F0BCA3
:1004D00001F02DB80CED00E0064900F007020868B5
:1004E0004FF6FF03184040EA0220034A1043086019
:1004F000704700000CED00E00000FA052DE9F04720
:100500000F46050061D0434E306800F00700B84246
:1005100009D2306820F0070038433060306800F0BE
:100520000700B84251D128683B4C810712D54007DB
:1005300003D5606840F4E06060602878000703D568
:10054000606840F4605060606068A96820F0F00066
:10055000084360602878C00728D06868012810D058
:100560002168022810D0890700292EDA616821F05D
:10057000030101436160FFF731FF804641F2883992
:100580000DE021688903EFE78901EDE7FFF726FF1A
:10059000A0EB0801494502D90320BDE8F087606857
:1005A000696800F00C00B0EB810FEFD1306800F00B
:1005B0000700B8420BD9306820F00700384330609C
:1005C000306800F00700B84201D00120E5E7287844
:1005D000400705D56068E96820F4E0600843606082
:1005E0002878000706D56068296920F4605040EA41
:1005F000C100606000F038F86168084AC1F3031177
:10060000515CC8400649086006480068FFF706FFCD
:100610000020C2E7002002400010024061160008DE
:100620000C000020040000200448054900684968C7
:10063000044AC1F30221515CC84070470C000020FD
:100640000010024071160008044805490068496816
:10065000044AC1F3C221515CC84070470C0000201D
:1006600000100240711600080E4A51680E4801F051
:100670000C03042B11D0082B0FD10C48C1F383437A
:10068000C903C05C0AD55168084AC1F34041921EB3
:10069000515C054A5043B0FBF1F0704704494843B0
:1006A000704700000010024000127A005116000846
:1006B00000093D002DE9F84F040070D02078C04DAE
:1006C000C00749D06868C0F38100012807D0686876
:1006D000C0F38100022809D16868C00306D52868E4
:1006E000800339D560680028E7D035E06068B0F550
:1006F000803F0BD010B1B0F5A02F11D0286820F4A6
:1007000080302860286820F4802002E0286840F4C7
:1007100080302860606890B1FFF760FE06460AE00E
:10072000286840F480202860F0E700BFFFF756FEFD
:10073000801B642873D828688003F7D50CE0FFF786
:100740004DFE064605E000BFFFF748FE801B64280B
:10075000F0D828688003F7D420789A4E80074FF0AD
:1007600001094FF0000839D5686810F00C0F07D068
:100770006868C0F38100022809D16868C00306D404
:100780002868800714D52069012808D110E0206965
:10079000B0B1C6F80090FFF721FE074605E00AE178
:1007A000FFF71CFEC01B0228C4D828688007F7D5B5
:1007B0002868616920F0F80040EAC10028600DE077
:1007C000C6F80080FFF70AFE074604E0FFF706FEC2
:1007D000C01B022823D828688007F7D42078000798
:1007E0002CD57948A169D9B1C0F80090FFF7F6FD82
:1007F000074604E0FFF7F2FDC01B02280FD8686A25
:100800008007F7D571484FF4FA510068B0FBF1F05A
:10081000009000BF0098411E0091FAD20EE080E0E7
:10082000C0F80080FFF7DAFD074604E0FFF7D6FDC9
:10083000C01B022875D8686A8007F7D42078400763
:1008400060D5E8690027C00008D4E86940F080500E
:10085000E861E869012700F0805000905C48016879
:10086000C90513D40168834641F480710160FFF724
:10087000B5FD824606E000BFFFF7B0FDA0EB0A0021
:1008800064284ED8DBF80000C005F5D5E0680128E3
:100890000AD008B1052813D0286A20F00100286288
:1008A000286A20F0040002E0286A40F00100286273
:1008B000E06841F2883B98B1FFF790FD82460BE07B
:1008C000286A40F004002862EEE700BFFFF786FDCB
:1008D000A0EB0A0159455AD8286A8007F6D50CE0E2
:1008E000FFF77CFD824605E0FFF778FDA0EB0A01EB
:1008F00059454CD8286A8007F6D41FB1E86920F022
:100900008050E861E06988B36968C1F38101022918
:1009100044D00228C6F8608004D0FFF75FFD04468B
:1009200038E034E0FFF75AFD074604E0FFF756FDD4
:10093000C01B02282BD828688001F7D4206AB0F5A4
:10094000803F05D16868A16820F4003008436860E2
:10095000D4E908010843696821F474110843686008
:10096000C6F86090FFF73AFD044606E025E000BFB8
:10097000FFF734FD001B022809D828688001F7D54D
:100980001BE000BFFFF72AFD001B022802D903204D
:10099000BDE8F88F28688001F4D40EE00128F7D074
:1009A0006868226A00F48031914204D1616A00F4DF
:1009B0007010884201D00120EAE70020E8E700003B
:1009C0000010024000004242800442420C0000201D
:1009D0000070004070B5040009D0606A002540B185
:1009E00025616561A56294F8510040B10CE00120D9
:1009F00070BD6068B0F5827FF4D0E561F2E784F8FD
:100A00005050204600F040F8022084F85100206841
:100A1000016821F040010160A088218900F4827002
:100A200001F404410843A18901F400610843217CD9
:100A300001F002010843217D01F001010843218BEF
:100A400001F400710843217F01F03801084394F854
:100A5000201001F080010843218D01F4005108436A
:100A600021680860A069042101EA104021684860FB
:100A70002068C16921F40061C1616565012084F8C5
:100A80005100002070BD000000B585B0002100912C
:100A90000191029103911D4A01681D48914214D1B0
:100AA000816941F480518161816901F4805104912F
:100AB000816941F0040181618069694600F00400A8
:100AC0000490A020009013481BE0134A91421AD1D1
:100AD000C16941F48041C161C16901F4804104915F
:100AE000816941F0080181618069694600F0080070
:100AF00004904FF4204000900220019003200390C6
:100B00000648FFF769FB05B000BD0000003001405A
:100B1000001002400008014000380040000C014075
:100B20002DE9F84F044690F85100984616460F46B6
:100B30000025012801D0022598E060684FF0040BE1
:100B4000B0F5827F01D1A068F8B194F85000012877
:100B500026D04FF0010984F85090FFF73FFC824601
:100B6000002F7FD0002E7DD084F851B0002060652A
:100B7000A763A687E6872063A086E086206460647A
:100B8000A068B0F5004F0DD016E084F851B01346C0
:100B90000A462046CDF8008000F024F9BDE8F88F21
:100BA0000220FBE72068016821F040010160206815
:100BB000016821F48041016020680168490603D47E
:100BC000016841F040010160E068D8B13BE0206875
:100BD0008168C90709D0007BA16B0870A06B401C1D
:100BE000A063E08F401EE0870CE0FFF7F7FBA0EB6F
:100BF0000A01414503D3B8F1FF3F03D006E0B8F145
:100C0000000F03D0E08F0028E1D11FE003252BE087
:100C100020688168C90709D0C068A16B0880A06BF3
:100C2000801CA063E08F401EE0870CE0FFF7D6FB3E
:100C3000A0EB0A01414503D3B8F1FF3F03D0E5E73C
:100C4000B8F1000FE2D0E08F0028E1D152464146D2
:100C5000204600F004FB08B120206065606D00E0D4
:100C600000E008B1012501E084F85190002084F8EB
:100C70005000284692E72DE9F84F044690F85000BE
:100C80000026984615468A4601280CD0012784F88C
:100C90005070FFF7A3FB814694F85100B34601283A
:100CA00004D002269AE00220BDE8F88FBAF1000FC6
:100CB0006FD0002D6DD0032084F85100C4F854B0DB
:100CC000C4F830A0A586E586C4F838B0A4F83CB0D6
:100CD000A4F83EB0C4F844B0C4F840B0A068B0F581
:100CE000004F09D12068016821F0400101602068AF
:100CF000016841F48041016020680168490603D41D
:100D0000016841F040010160E068B0F5006F606883
:100D100003D058B3012D29D049E008B1012D1FD1CE
:100D2000206B21680088C86006E020688168890718
:100D300009D5216B0988C160206B801C2063E08E7F
:100D4000401EE0860CE0FFF749FBA0EB090141459E
:100D500003D3B8F1FF3F03D006E0B8F1000F03D092
:100D6000E08E0028E1D125E0032635E0206B2168E4
:100D70000078087306E02068816889070AD5216B2E
:100D800009780173206B401C2063E08E401EE086D2
:100D90000DE01FE0FFF722FBA0EB0901414503D363
:100DA000B8F1FF3F03D0DFE7B8F1000FDCD0E08EF1
:100DB0000028E0D14A464146204600F07EFA08B1BC
:100DC00020206065A06818B92068C168806800901C
:100DD000606D08B1012601E084F8517084F850B0CC
:100DE000304661E72DE9FF4F81B0044690F850008E
:100DF00000260E9F1D4693464FF0010901280FD093
:100E00004FF0010A84F850A0FFF7E8FA804694F802
:100E10005100616801280DD0B1F5827F08D103E04F
:100E2000022005B0BDE8F08FA16809B9042801D0FF
:100E30000226C9E00298002865D0BBF1000FFBD064
:100E4000002DF9D094F85100042802D0052084F830
:100E5000510000206065C4F838B0E587A587029985
:100E60002163E586A58620646064206801684906E0
:100E700003D4016841F040010160E068B0F5006F03
:100E8000606803D0F0B3012D47D081E008B1012D97
:100E90003CD1206B21680088C860206B801C2063D7
:100EA000E08E401EE08631E02068816889070FD51A
:100EB000E18E69B1B9F1010F0AD1216B0988C160D6
:100EC000206B801C2063E08E401EE0864FF00009FE
:100ED00020688168C9070CD0E18F51B1C068A16B4F
:100EE0000880A06B801CA063E08F401EE0874FF05D
:100EF0000109FFF773FAA0EB0800B84206D3781C8B
:100F000004D001E009E05BE003265BE0E08E00280E
:100F1000CAD1E08F0028C7D140E0206B216800785B
:100F20000873206B401C2063E08E401EE0862FE09B
:100F30002068816889070FD5E18E69B1B9F1010F89
:100F40000AD1216B09780173206B401C2063E08E6D
:100F5000401EE0864FF0000920688168C9070CD068
:100F6000E18F51B1C068A16B0870A06B401CA063F9
:100F7000E08F401EE0874FF00109FFF72FFAA0EB4A
:100F80000800B84202D3781C02D0BAE7002FB8D0CC
:100F9000E08E0028CCD1E08F0028C9D142463946E6
:100FA000204600F08AF918B10126202060650BE088
:100FB000A06818B92068C16880680090606D08B1A9
:100FC000012601E084F851A0002084F8500030464A
:100FD00027E710B5401EB0F1807F01D3012010BD7E
:100FE0004FF0E02460610F21601700F0A0FA0020AC
:100FF000A06107202061002010BD70B5040004D05E
:1010000094F84100002510B106E0012070BD84F87D
:101010004050204600F024F8242084F84100206845
:10102000C16821F40051C160204600F0E7F9206852
:10103000016921F4904101612068416921F02A0190
:1010400041612068C16841F40051C160656420209D
:1010500084F8410084F842006563002070BD000000
:1010600030B585B000240094019402940394006884
:101070001449884224D11448816941F48041816136
:10108000816901F480410491816941F00401816129
:1010900080690E4D00F0040004904FF40070009041
:1010A000022001900320039069462846FFF794F838
:1010B0002815CDE90004694628460294FFF78CF80C
:1010C00005B030BD0038014000100240000801406A
:1010D0002DE9F843044690F841001F4616460D4698
:1010E000202802D00220BDE8F8837DB176B100202F
:1010F0006064212084F84100FFF770F9A6848046DF
:10110000E684A068B0F5805F02D003E00120EAE742
:10111000206910B12E4600250EE000260CE080214B
:10112000204600F0C7F9A0B9AEB116F8010B21684E
:101130004860E08C401EE084E08C43464FF00002A3
:1011400000970028EBD14FF04001204600F0B2F9A3
:1011500030B10320C7E735F8020BC0F30800E6E71B
:10116000202084F841000020BDE7FEE730B585B0BF
:10117000002417480094019402940394816941F07B
:1011800010018161816901F010010491816941F0D0
:1011900004018161816901F004010491816941F0D8
:1011A0000801816180690B4D00F008000122049064
:1011B00011462846FFF70CF9032001210390009106
:1011C000CDE9011469462846FFF706F805B030BDA1
:1011D00000100240000C01400E4810B50C4901609F
:1011E00000214FF48062C0E90112C1605210016118
:1011F000C0E905120822C0E90721416281620A2183
:10120000C162FFF7E7FB002801D072B6FEE710BD10
:1012100000300140100000200E4810B50C4901605C
:101220004FF48271416000218160C1604FF400720F
:101230000161C0E90512C1610162416281620A2156
:10124000C162FFF7C7FB002801D072B6FEE710BDF0
:101250000038004068000020FEE7FEE77047F8B560
:10126000044640684FF48273984217D1A0684FF447
:101270008065B0F5004F01D0A8420FD12068066804
:1012800026F0400606606068984207D1A068A84230
:1012900004D100920B460022012103E000920B468C
:1012A00000228021204600F019F8002804D0606D4B
:1012B00040F0200060650320F8BD38B50B46009271
:1012C00004460022802100F009F8002804D0606D57
:1012D00040F020006065032038BD00002DE9F84390
:1012E0001E46914688460446089DFFF777F8401B46
:1012F000351AFFF773F8074625480068C0F3CB306E
:10130000684338E0701C37D0FFF768F8C01BA8426C
:1013100003D215B1009860B32CE02068416821F039
:10132000E00141606068B0F5827F0BD1A068B0F544
:10133000004F02D0B0F5806F04D12068016821F021
:1013400040010160A06AB0F5005F09D12068016822
:1013500021F4005101602068016841F400510160EE
:10136000012084F85100002084F850000320BDE8DB
:10137000F8830025401E00902068816838EA01004B
:1013800004D000214945BDD10020F0E70121F9E753
:101390000C0000207047FFF727B830B58FB0282128
:1013A0006846FEF7FAFE14210AA8FEF7F6FE0121B0
:1013B0000804CDE900100024029402250491CDE92F
:1013C00007504FF4E01009906846FFF773F908B131
:1013D00072B6FEE70F20CDE90A054FF4E060CDE9D3
:1013E0000C4002210AA80E94FFF788F8002801D0CB
:1013F00072B6FEE70FB030BD7047000070B504460E
:1014000000680169E26821F44051114301612169DA
:10141000A0680843616908432168CA6841F20C6307
:101420009A430243CA6020684169A26921F440716D
:10143000114341611E492068884202D1FFF704F937
:1014400001E0FFF7F1F800EBC00101EB001260686A
:1014500064218000B2FBF0F3B3FBF1F36FF01806E8
:101460007343B2FBF0F5B2FBF0F605EB83053223D4
:1014700003EB0515B5FBF1F5B6FBF1F605F0F0054C
:1014800005EB0615B2FBF0F6B2FBF0F0B0FBF1F0A5
:101490006FF01802504306EB800003EB0010B0FB26
:1014A000F1F0216800F00F002844886070BD000052
:1014B000003801402DE9F041984617460E46044693
:1014C000069D27E0681C25D02DB1FEF787FFA0EB15
:1014D0000800A8421ED920680C3050E8001F21F4F3
:1014E000D07140E80012002AF5D12068143050E88D
:1014F000001F21F0010140E80012002AF5D1202050
:1015000084F8410084F84200002084F84000032061
:10151000BDE8F0812068006836EA000004D00020B1
:10152000B842CFD00020F3E70120F9E7FEE7090732
:10153000090E002804DB00F1E02080F80014704759
:1015400000F00F0000F1E02080F8141D704702E069
:1015500008C8121F08C1002AFAD17047704700203E
:1015600001E001C1121F002AFBD170479CB0342258
:1015700020490EA8FEF7F8FD1E491C22343107A8A9
:10158000FEF7F2FD1C216846FEF707FEFEF734FF6A
:10159000FFF703FFFFF7EAFDFFF71EFE17481649A6
:1015A0000C2201604FF4E131416000218160C16093
:1015B000C0E904128161C161FFF71FFD08B172B675
:1015C000FEE7FFF729FE41F288340C4823461B2230
:1015D00007A95838FFF74FFB084823461B226946E6
:1015E000B038FFF79DFA23461B2269460348FFF7F0
:1015F0006FFDEAE70016000800380140C000002037
:101600004E6F77207472616E736D697474696E6762
:10161000206D657373616765206261636B20746F11
:10162000204E55434C454F2D3134340A0000000004
:1016300000000000656C6C6F20576F726C640A00CC
:101640000000000000000000000000000000000199
:101650000202030405060708090A0B0C0D0E0F1001
:10166000100000000000000000010203040607084B
:101670000900000000010203040000009C1600089D
:1016800000000020100000004E150008AC160008F5
:1016900010000020F80400005E15000801000000A2
:0C16A00010000000000000000024F40016
:0400000508000131BD
:00000001FF
