:020000040800F2
:100000007004002045010008B70B0008B30B00087E
:10001000B50B0008B10100084D0E000800000000FB
:10002000000000000000000000000000DB0B0008E2
:10003000B301000800000000D90B0008DD0B000828
:100040005F0100085F0100085F0100085F01000810
:100050005F0100085F0100085F0100085F01000800
:100060005F0100085F0100085F0100085F010008F0
:100070005F0100085F0100085F0100085F010008E0
:100080005F0100085F0100085F0100085F010008D0
:100090005F0100085F0100085F0100085F010008C0
:1000A0005F0100085F0100085F0100085F010008B0
:1000B0005F0100085F0100085F0100085F010008A0
:1000C0005F0100085F0100085F0100085F01000890
:1000D0005F0100085F0100085F0100085F01000880
:1000E0005F0100085F0100085F0100085F01000870
:1000F0005F0100085F0100085F0100085F01000860
:100100005F0100085F0100085F0100085F0100084F
:100110005F0100085F0100085F0100085F0100083F
:100120005F0100085F0100085F0100085F0100082F
:10013000DFF80CD000F02AF8004800476D0E0008E8
:10014000700400200648804706480047FEE7FEE7A7
:10015000FEE7FEE7FEE7FEE7FEE7FEE7FEE7FEE777
:10016000310C000831010008D2B201E000F8012B87
:10017000491EFBD270470022F6E710B513460A4627
:1001800004461946FFF7F0FF204610BD064C074D08
:1001900006E0E06840F0010394E807009847103457
:1001A000AC42F6D3FFF7C8FFF80E0008180F00089E
:1001B000FEE7704770B5044600F002F90546601C82
:1001C00002D004480078044400F0FAF8401BA04232
:1001D000FAD370BD1C0000202DE9F84FDFF8B8A15C
:1001E00000220AF1040B144601274FF00F090BF10E
:1001F000040E00BF0B6807FA04F52B40AB4274D124
:10020000DFF898C14E68A6EB0C0866452BD00DDCD4
:10021000032E34D005DC36B3012E19D0022E2FD197
:100220001BE0112E16D0122E2AD119E0B8F5881F26
:1002300019D006DCB8F5803F15D0B8F5801F1FD166
:1002400011E0B8F5001F0ED0B8F5041F18D10AE070
:10025000CA6815E0CA68121D12E0CA6808320FE0C9
:10026000CA680C320CE08A682AB1012A4FF00802F1
:1002700003D0456104E0042202E0056100E00022B1
:10028000FF2B01D8064601E000F104064FEA840581
:1002900001D9A5F12005D6F800C009FA05F82CEA25
:1002A000080C02FA05F54CEA050CC6F800C04D68CA
:1002B000ED006AD53A4DAE6946F00106AE61AD6912
:1002C00024F0030605F001050095364D06EB050CFC
:1002D000DCF80850A6074FEA167809FA08F6B54385
:1002E000314EB04202D100261AE04EE02F4EB0420D
:1002F00001D1012614E02E4EB04201D102260FE0BA
:100300002C4EB04201D103260AE02B4EB04201D15F
:10031000042605E0294EB04201D1052600E006265C
:1003200006FA08F62E43CCF808604D68DAF800604B
:10033000ED03554601D51E4300E09E432E604D68F7
:10034000AD0305D5DBF800601E43CBF8006004E088
:10035000DBF800509D43CBF800504D68DEF800609C
:10036000ED02754601D51E4300E09E432E604D68A8
:10037000AD0205D5084D0C352E681E432E6004E0F5
:10038000054E0C3635689D433560641C102CFFF417
:1003900031AFBDE8F88F00000004014000001110EB
:1003A000001002400000014000080140000C014024
:1003B000001001400014014000180140001C0140E1
:1003C00001488068704700001C00002002488168D6
:1003D00002781144816070471C000020074810B566
:1003E000016841F010010160032000F067F800206F
:1003F00000F006F800F024F8002010BD00200240B4
:1004000070B50D4D04464FF47A712878B1FBF0F0C9
:100410000A490968B1FBF0F000F0F0FA48B9102C75
:1004200007D200222146501E00F028F800206C6000
:1004300070BD012070BD00001C00002028000020BD
:100440000C4808B5816941F001018161816901F0C1
:1004500001010091C16941F08051C161C06900F0A2
:10046000805000900448416821F0E06141F0007143
:10047000416008BD0010024000000140F0B40E4B86
:100480001B680C46C3F30223C3F10705042D00D9F2
:100490000425191D072901D2002300E0DB1E0126D7
:1004A00006FA05F1491E214099409E40761E1640ED
:1004B0003143F0BC00F080BB0CED00E0064900F0D9
:1004C000070208684FF6FF03184040EA0220034A7B
:1004D00010430860704700000CED00E00000FA05D2
:1004E0002DE9F047DFF8548105460E46D8F80000A4
:1004F00000F00700B0420CD2D8F8001021F007013C
:100500003143C8F80010D8F8000000F00700B042EE
:100510006FD128684A4C810712D5400703D560681F
:1005200040F4E06060602878000703D5606840F41C
:10053000605060606068A96820F0F0000843606067
:100540002878C00744D06868012816D0216802289E
:1005500016D0890700294CDA616821F003010143B4
:100560006160FFF72DFF6968074641F28830012975
:100570000ED00229814618D026E021688903E9E7D8
:100580008901E7E7FFF71CFFC11B494501D918E0C6
:1005900081466068C0F381000128F3D118E000BFF4
:1005A000FFF70EFFC11B49450BD86068C0F38100FF
:1005B0000228F5D10CE000BFFFF702FFC11B49453F
:1005C00002D90320BDE8F087606810F00C0FF3D16A
:1005D000D8F80010404601F00701B1420BD901687C
:1005E00021F0070131430160006800F00700B042CC
:1005F00001D00120E6E72878400705D56068E96862
:1006000020F4E060084360602878000706D5606841
:10061000296920F4605040EAC100606000F036F8BB
:100620006168084AC1F30311515CC840064908607B
:100630000020FFF7E5FE0020C4E700000020024094
:1006400000100240E00E0008280000200448054980
:1006500000684968044AC1F30221515CC8407047F0
:100660002800002000100240F00E00080448054950
:1006700000684968044AC1F3C221515CC840704710
:100680002800002000100240F00E000812A185B0E2
:100690000FC98DE80F0014A0144A00680490516837
:1006A000134801F00C03042B10D0082B0ED1C1F31A
:1006B0008343C9031DF803000AD5516804AAC1F396
:1006C0004041515C0A4A5043B0FBF1F005B070471D
:1006D00008494843FAE70000020304050607080931
:1006E0000A0B0C0D0E0F101001020000001002404A
:1006F00000127A0000093D002DE9F84F0446007809
:10070000B94DC00748D06868C0F38100012807D000
:100710006868C0F38100022809D16868C00306D563
:100720002868800338D5606800286FD034E060689E
:10073000B0F5803F0BD010B1B0F5A02F11D02868D4
:1007400020F480302860286820F4802002E02868A7
:1007500040F480302860606888B1FFF731FE0646BB
:1007600009E0286840F480202860F0E7FFF728FEC1
:10077000801B642875D828688003F7D50CE0FFF744
:100780001FFE064605E000BFFFF71AFE801B642827
:10079000F0D828688003F7D42078944E80074FF073
:1007A00001094FF000083BD5686810F00C0F07D026
:1007B0006868C0F38100022809D16868C00306D4C4
:1007C0002868800714D5206901281FD110E020690E
:1007D000B0B1C6F80090FFF7F3FD074605E000BF93
:1007E000FFF7EEFDC01B0228C4D828688007F7D5A4
:1007F0002868616920F0F80040EAC10028600FE035
:10080000C6F80080FFF7DCFD074606E0E9E000BF20
:10081000FFF7D6FDC01B022823D828688007F7D42D
:10082000207800072CD57248A169D9B1C0F8009092
:10083000FFF7C6FD074604E0FFF7C2FDC01B022814
:100840000FD8686A8007F7D56A484FF4FA510068F4
:10085000B0FBF1F0009000BF0098411E0091FAD269
:100860000EE080E0C0F80080FFF7AAFD074604E034
:10087000FFF7A6FDC01B022875D8686A8007F7D469
:100880002078400760D5E8690027C00008D4E869EF
:1008900040F08050E861E869012700F08050009046
:1008A00055480168C90513D40168834641F4807135
:1008B0000160FFF785FD824606E000BFFFF780FD7F
:1008C000A0EB0A0064284ED8DBF80000C005F5D57F
:1008D000E06801280AD008B1052813D0286A20F062
:1008E00001002862286A20F0040002E0286A40F033
:1008F00001002862E06841F2883B98B1FFF760FD93
:1009000082460BE0286A40F004002862EEE700BF50
:10091000FFF756FDA0EB0A0159455AD8286A80070F
:10092000F6D50CE0FFF74CFD824605E0FFF748FDE9
:10093000A0EB0A0159454CD8286A8007F6D41FB1AC
:10094000E86920F08050E861E06988B36968C1F324
:100950008101022945D00228C6F8608004D0FFF743
:100960002FFD044638E034E0FFF72AFD074604E097
:10097000FFF726FDC01B02282BD828688001F7D47A
:10098000206AB0F5803F05D16868A16820F4003086
:1009900008436860D4E908010843696821F47411C8
:1009A00008436860C6F86090FFF70AFD044606E059
:1009B00015E000BFFFF704FD001B022809D82868D6
:1009C0008001F7D50BE000BFFFF7FAFC001B0228FF
:1009D00002D90320BDE8F88F28688001F4D40020F4
:1009E000F8E70120F6E70000001002400000424254
:1009F00080044242280000200070004010B5401ED4
:100A0000B0F1807F01D3012010BD4FF0E024606180
:100A10000F21601700F0D0F80020A06107202061AE
:100A2000002010BD70B5040004D094F839000025F2
:100A300010B106E0012070BD84F83850204600F067
:100A400023F8242084F839002068C16821F400517B
:100A5000C160204600F010F92068016921F490413E
:100A600001612068416921F02A0141612068C16863
:100A700041F40051C160E563202084F8390084F816
:100A80003A00002070BD000030B585B0002400940D
:100A900001940294039400681449884224D11448B4
:100AA000816941F480418161816901F4804104914F
:100AB000816941F00401816180690E4D00F00400FC
:100AC00004904FF4007000900220019003200390E6
:100AD00069462846FFF780FB2815CDE900046946E2
:100AE00028460294FFF778FB05B030BD003801407E
:100AF00000100240000801402DE9F843044690F838
:100B000039001F4616460D46202850D1A5B19EB18A
:100B100094F8380001284AD0012084F838004FF0BA
:100B20000008C4F83C80212084F83900FFF748FC15
:100B3000A6848146E68426E00120BDE8F883E08CA7
:100B4000401EE084A0684B46B0F5805F4FF0000285
:100B50004FF080012046009703D000F045F9E8B936
:100B60000DE000F041F9C8B928882168C0F30800F9
:100B70004860206908B16D1C05E0AD1C03E02168E8
:100B800015F8010B4860E08C0028D8D14B460022B4
:100B900040212046009700F027F908B10320CCE758
:100BA000202084F8390084F838800020C5E702202E
:100BB000C3E7FEE7FEE770470907090E002806DADB
:100BC00000F00F0000F1E02080F8141D704700F1E4
:100BD000E02080F80014704770477047FFF7F6BBBD
:100BE00030B58FB028216846FFF7C5FA14210AA84E
:100BF000FFF7C1FA01210804CDE900100024029496
:100C000002250491CDE907504FF4E01009906846A1
:100C1000FFF772FD0F20CDE90A056802CDE90C400F
:100C200002210AA80E94FFF75BFC0FB030BD000054
:100C30000D48016841F00101016041680B4A114013
:100C4000416001680A4A11400160016821F4802175
:100C50000160416821F4FE0141604FF41F01816091
:100C60000449C00308607047001002400000FFF80C
:100C7000FFFFF6FE08ED00E02DE9F04104460068B4
:100C80000169E26821F44051114301612169A068C2
:100C90000843616908432168CA6841F20C639A43BA
:100CA0000243CA6020684169A26921F4407111437E
:100CB00041614C4920686425322688423CD1FFF7C7
:100CC000D5FC00EBC00101EB001061688900B0FBAE
:100CD000F1F7FFF7CBFC00EBC00101EB00106168FE
:100CE000B0468900B0FBF1F0B0FBF5F06FF01801F1
:100CF000484307EB800106EB0110B0FBF5F000F074
:100D0000F006FFF7B3FC00EBC00101EB00106168D7
:100D10008900B0FBF1F0B0FBF5F006EB0016FFF731
:100D2000A5FC00EBC00101EB001061688900B0FB7D
:100D3000F1F7FFF79BFC3BE0FFF788FC00EBC001FD
:100D400001EB001061688900B0FBF1F7FFF77EFC52
:100D500000EBC00101EB00106168B0468900B0FBF8
:100D6000F1F0B0FBF5F06FF01801484307EB80019C
:100D700006EB0110B0FBF5F000F0F006FFF766FCA3
:100D800000EBC00101EB001061688900B0FBF1F0DD
:100D9000B0FBF5F006EB0016FFF758FC00EBC001C6
:100DA00001EB001061688900B0FBF1F7FFF74EFC22
:100DB00000EBC00101EB001061688900B0FBF1F0AD
:100DC000B0FBF5F06FF01801484307EB800108EB2A
:100DD0000110B0FBF5F0216800F00F00304488608E
:100DE000BDE8F081003801402DE9F04198461746F2
:100DF0000E460446069D1DE0681C1BD02DB1FFF772
:100E0000DFFAA0EB0800A84214D92068C16821F4D9
:100E1000D071C1602068416921F001014161202049
:100E200084F8390084F83A00002084F83800032060
:100E3000BDE8F0812068006836EA000004D0002098
:100E4000B842D9D00020F3E70120F9E7FEE702E03D
:100E500008C8121F08C1002AFAD170477047002045
:100E600001E001C1121F002AFBD1704708B5FFF74E
:100E7000B5FAFFF7B5FE1648816941F010018161AE
:100E8000816901F010010091816941F004018161E3
:100E90008069104900F0040000900F480C220160A6
:100EA0004FF4E131416000218160C160C0E904126A
:100EB0008161C161FFF7B6FD4FF47A740A231B22EA
:100EC00006490548FFF718FE2046FFF773F9F5E7D6
:100ED00000100240003801402C00002000000020DB
:100EE00000000000000000000102030406070809DA
:100EF0000000000001020304180F00080000002099
:100F00002C0000004E0E0008440F00082C000020AA
:100F1000440400005E0E000848656C6C6F20576F3B
:100F2000726C640A00000000000000000000000075
:100F300000000000010000001000000000000000A0
:040F400000A24A04BD
:0400000508000131BD
:00000001FF
