:020000040800F2
:10000000D8040020450100088F110008771000086F
:100010008D110008B101000825150008000000003E
:10002000000000000000000000000000CD140008E7
:10003000B30100080000000091110008CF1400086F
:100040005F0100085F0100085F0100085F01000810
:100050005F0100085F0100085F0100085F01000800
:100060005F0100085F0100085F0100085F010008F0
:100070005F0100085F0100085F0100085F010008E0
:100080005F0100085F0100085F0100085F010008D0
:100090005F0100085F0100085F0100085F010008C0
:1000A0005F0100085F0100085F0100085F010008B0
:1000B0005F0100085F0100085F0100085F010008A0
:1000C0005F0100085F0100085F010008951100084A
:1000D000A11100085F0100085F0100085F0100082E
:1000E0005F0100085F0100085F0100085F01000870
:1000F0005F0100085F0100085F0100085F01000860
:100100005F0100085F0100085F0100085F0100084F
:100110005F0100085F0100085F0100085F0100083F
:100120005F0100085F0100085F0100085F0100082F
:10013000DFF80CD000F02AF80048004765150008E9
:10014000D80400200648804706480047FEE7FEE73F
:10015000FEE7FEE7FEE7FEE7FEE7FEE7FEE7FEE777
:100160002315000831010008D2B201E000F8012B8C
:10017000491EFBD270470022F6E710B513460A4627
:1001800004461946FFF7F0FF204610BD064C074D08
:1001900006E0E06840F0010394E807009847103457
:1001A000AC42F6D3FFF7C8FFE015000800160008C0
:1001B000FEE770472DE9F05F90F821100024022936
:1001C00003D004218163012485E001680A6822F0DC
:1001D0000E020A6001680A6822F001020A603F4EBE
:1001E0003E4FB215DFF8F4C0DFF8F090DFF8ECA076
:1001F000DFF8E8B0DFF8E4E00168783F13011502AA
:10020000ACF1640CA9F15009AAF13C0AABF1280B3E
:10021000AEF1140E4FF48018B14227D9B9420ED076
:10022000614512D049451DD0514518D0594518D0C7
:10023000714501D1424615E0294EB14201D101225A
:1002400010E0274E1436B14201D110220AE0244EAC
:100250002836B14206D0224A3C32914201D11A4698
:1002600000E02A461E49091F0A602BE0B94213D05C
:10027000614517D0494522D051451DD059451DD063
:10028000714501D142461AE0B14202D14FF080726D
:1002900015E0134EB14201D1012210E0104E143688
:1002A000B14201D110220AE00D4E2836B14206D0EB
:1002B0000B4A3C32914201D11A4600E02A460749D6
:1002C00080394A60012180F82110002180F8201037
:1002D000416B01B188472046BDE8F09F8000024095
:1002E0000804024070B5044600F018F90546601C89
:1002F00002D004480078044400F010F9401BA042EA
:10030000FAD370BD0C0000202DE9F84FDFF8C8913A
:100310000024A9F1040B23460F2709F1040AABF1CD
:10032000040ED1E00125A54006EA0502AA4276D1D5
:10033000DFF8A8C14E68A6EB0C0866452BD00DDC93
:10034000032E34D005DC36B3012E19D0022E2FD166
:100350001BE0112E16D0122E2AD119E0B8F5881FF5
:1003600019D006DCB8F5803F15D0B8F5801F1FD135
:1003700011E0B8F5001F0ED0B8F5041F18D10AE03F
:10038000CB6815E0CB681B1D12E0CB6808330FE08B
:10039000CB680C330CE08B682BB1012B4FF00803BA
:1003A00003D0456104E0042302E0056100E000237E
:1003B000FF2A01D8064601E000F104064FEA840551
:1003C00001D9A5F12005D6F8008007FA05FC28EA36
:1003D0000C0803FA05F548EA0508C6F800804D68E0
:1003E000ED0070D53E4DAE6946F00106AE61AD69D7
:1003F00024F0030605F0010500953A4D06EB050CC7
:10040000DCF80850A607360F07FA06F825EA0805B3
:10041000DFF8D480404503D14FF0000825E052E0DA
:10042000DFF8C880404502D14FF001081DE0DFF839
:10043000C080404502D14FF0020816E0DFF8B480DA
:10044000404502D14FF003080FE0DFF8AC80404593
:1004500002D14FF0040808E0DFF8A080404502D147
:100460004FF0050801E04FF0060808FA06F848EAE0
:100470000508CCF808804D68D9F80060ED024D46BB
:1004800001D5164300E096432E604D68DAF800600F
:10049000AD02554601D5164300E096432E604D68E7
:1004A000DBF80060AD035D4601D5164300E09643DE
:1004B0002E604D68DEF80060ED03754601D51643E9
:1004C00000E096432E60641C0A681646E2407FF402
:1004D00029AFBDE8F88F00000804014000001110AA
:1004E000001002400000014000080140000C0140E3
:1004F000001001400014014000180140001C0140A0
:10050000C26821EA02030A4043EA024101617047DE
:100510000AB1016170470904FBE7000001488068E7
:10052000704700000C0000200248816802781144E6
:10053000816070470C000020074810B5016841F049
:1005400010010160032000F075F8002000F006F8AB
:1005500000F024F8002010BD0020024070B50D4DC1
:1005600004464FF47A712878B1FBF0F00A49096823
:10057000B1FBF0F000F06BFD48B9102C07D200225F
:100580002146501E00F036F800206C6070BD01203E
:1005900070BD00000C000020180000200C4808B5B9
:1005A000816941F001018161816901F001010091DE
:1005B000C16941F08051C161C06900F08050009074
:1005C0000448416821F0E06141F00071416008BDDC
:1005D0000010024000000140002809DB00F01F026B
:1005E000012191404009800000F1E020C0F8001195
:1005F00070470000F0B40E4B1B680C46C3F3022397
:10060000C3F10705042D00D90425191D072901D2BE
:10061000002300E0DB1E012606FA05F1491E2140F9
:1006200099409E40761E16403143F0BC00F07BBFDF
:100630000CED00E0064900F0070208684FF6FF03E2
:10064000184040EA0220034A104308607047000047
:100650000CED00E00000FA052DE9F0470F4605001B
:1006600061D0434E306800F00700B84209D23068CC
:1006700020F0070038433060306800F00700B842CF
:1006800051D128683B4C810712D5400703D56068DB
:1006900040F4E06060602878000703D5606840F4AB
:1006A000605060606068A96820F0F00008436060F6
:1006B0002878C00728D06868012810D0216802284F
:1006C00010D0890700292EDA616821F00301014367
:1006D0006160FFF723FF804641F288390DE0216811
:1006E0008903EFE78901EDE7FFF718FFA0EB0801A9
:1006F000494502D90320BDE8F0876068696800F0C9
:100700000C00B0EB810FEFD1306800F00700B84269
:100710000BD9306820F0070038433060306800F0B3
:100720000700B84201D00120E5E72878400705D549
:100730006068E96820F4E06008436060287800079A
:1007400006D56068296920F4605040EAC100606005
:1007500000F018F86168084AC1F30311515CC84001
:100760000649086006480068FFF7F8FE0020C2E767
:100770000020024000100240CE15000818000020A2
:10078000100000200E4A51680E4801F00C03042BA3
:1007900011D0082B0FD10C48C1F38343C903C05CAF
:1007A0000AD55168084AC1F34041921E515C054A7E
:1007B0005043B0FBF1F070470449484370470000D4
:1007C0000010024000127A00BE15000800093D002A
:1007D0002DE9F84F040070D02078C04DC00749D0F3
:1007E0006868C0F38100012807D06868C0F3810001
:1007F000022809D16868C00306D52868800339D566
:1008000060680028E7D035E06068B0F5803F0BD025
:1008100010B1B0F5A02F11D0286820F480302860E6
:10082000286820F4802002E0286840F480302860A6
:10083000606890B1FFF772FE06460AE0286840F44F
:1008400080202860F0E700BFFFF768FE801B642867
:1008500073D828688003F7D50CE0FFF75FFE0646E3
:1008600005E000BFFFF75AFE801B6428F0D8286817
:100870008003F7D420789A4E80074FF001094FF09B
:10088000000839D5686810F00C0F07D06868C0F30D
:100890008100022809D16868C00306D4286880074F
:1008A00014D52069012808D110E02069B0B1C6F83C
:1008B0000090FFF733FE074605E00AE1FFF72EFE42
:1008C000C01B0228C4D828688007F7D5286861694A
:1008D00020F0F80040EAC10028600DE0C6F8008072
:1008E000FFF71CFE074604E0FFF718FEC01B0228B6
:1008F00023D828688007F7D4207800072CD57948BA
:10090000A169D9B1C0F80090FFF708FE074604E0DE
:10091000FFF704FEC01B02280FD8686A8007F7D5CE
:1009200071484FF4FA510068B0FBF1F0009000BF3D
:100930000098411E0091FAD20EE080E0C0F80080DD
:10094000FFF7ECFD074604E0FFF7E8FDC01B0228B7
:1009500075D8686A8007F7D42078400760D5E869C1
:100960000027C00008D4E86940F08050E861E869D9
:10097000012700F0805000905C480168C90513D43D
:100980000168834641F480710160FFF7C7FD82462C
:1009900006E000BFFFF7C2FDA0EB0A0064284ED8B6
:1009A000DBF80000C005F5D5E06801280AD008B1E1
:1009B000052813D0286A20F001002862286A20F058
:1009C000040002E0286A40F001002862E06841F279
:1009D000883B98B1FFF7A2FD82460BE0286A40F001
:1009E00004002862EEE700BFFFF798FDA0EB0A01C4
:1009F00059455AD8286A8007F6D50CE0FFF78EFDD6
:100A0000824605E0FFF78AFDA0EB0A0159454CD864
:100A1000286A8007F6D41FB1E86920F08050E861A9
:100A2000E06988B36968C1F38101022944D00228D2
:100A3000C6F8608004D0FFF771FD044638E034E06A
:100A4000FFF76CFD074604E0FFF768FDC01B0228B6
:100A50002BD828688001F7D4206AB0F5803F05D1F3
:100A60006868A16820F4003008436860D4E9080190
:100A70000843696821F4741108436860C6F86090FF
:100A8000FFF74CFD044606E025E000BFFFF746FDFA
:100A9000001B022809D828688001F7D51BE000BF99
:100AA000FFF73CFD001B022802D90320BDE8F88FA8
:100AB00028688001F4D40EE00128F7D06868226A23
:100AC00000F48031914204D1616A00F470108842D0
:100AD00001D00120EAE70020E8E700000010024012
:100AE0000000424280044242180000200070004092
:100AF000704790F85100704738B504460068426866
:100B00008168C9434B0606D5CB0704D1D3435B06A6
:100B100001D4216C05E08B0708D4D3431B0605D410
:100B2000616C01B02046BDE8304008478B0601D516
:100B30004B0646D4D3439B0643D44B060AD494F8C1
:100B40005130032B3ED0636D43F004036365C368EB
:100B500083680093890609D4616D41F001016165E4
:100B600081680091016821F040010160606D0028FA
:100B700027D02068416821F0E0014160012084F81D
:100B80005100900722D02068416821F003014160A4
:100B9000104DE06C40B14563E06CFFF70BFB18B102
:100BA000606D40F040006065A06C002809D045638E
:100BB000A06CFFF7FFFA002803D0606D40F0400002
:100BC000606538BDC1688068009038BD2046FFF779
:100BD0008FFF38BD4913000870B5040009D0606A62
:100BE000002540B125616561A56294F8510040B1CE
:100BF0000CE0012070BD6068B0F5827FF4D0E56143
:100C0000F2E784F85050204600F040F8022084F8C3
:100C100051002068016821F040010160A08821890D
:100C200000F4827001F404410843A18901F40061D9
:100C30000843217C01F002010843217D01F00101FC
:100C40000843218B01F400710843217F01F0380132
:100C5000084394F8201001F080010843218D01F42D
:100C60000051084321680860A069042101EA10408E
:100C7000216848602068C16921F40061C16165652F
:100C8000012084F85100002070BD000070B586B0CE
:100C9000002400940194029403942E4A01682E4883
:100CA00002250326914227D1816941F48051816157
:100CB000816901F480510491816941F004018161ED
:100CC0008069694600F004000490A020CDE9000589
:100CD000224D03962846FFF717FB4020CDE900047C
:100CE000694628460294FFF70FFB00221146232095
:100CF000FFF780FC232029E0194A914228D1C169DD
:100D000041F48041C161C16901F48041049181696C
:100D100041F0080181618069124C00F008000490E4
:100D20004FF43040009069462046FFF7EDFA4FF44B
:100D30008040CDE90005694603962046FFF7E4FAB6
:100D4000002211462420FFF755FC2420FFF744FC25
:100D500006B070BD003001400010024000080140A4
:100D600000380040000C0140F0B490F85150134698
:100D700000242246012D01D0022444E08568042687
:100D80001DB94768B7F5827F16D090F85070012FD3
:100D900018D0012780F85070B9B1B3B180F8516014
:100DA000426581638387C38702638286C286426409
:100DB000C16861B116490BE080F85160F0BC0A4689
:100DC00000F0F2B80220F0BC704701241BE011498A
:100DD0000164B5F5004F09D101680B6823F04003A9
:100DE0000B6001680B6823F480430B6001684B685B
:100DF00043F060034B6001680B685B0603D40B682B
:100E000043F040030B6080F850202046DBE70000F1
:100E1000D5130008F513000800680549884205D17C
:100E200004490A2201F16400FFF79EBF70470000E9
:100E3000003800401C0000202DE9F84F044690F8CF
:100E400050000026984615468A4601280CD00127F6
:100E500084F85070FFF762FB814694F85100B34666
:100E6000012804D002269AE00220BDE8F88FBAF1EA
:100E7000000F6FD0002D6DD0032084F85100C4F80E
:100E800054B0C4F830A0A586E586C4F838B0A4F8FC
:100E90003CB0A4F83EB0C4F844B0C4F840B0A06878
:100EA000B0F5004F09D12068016821F040010160D0
:100EB0002068016841F480410160206801684906AA
:100EC00003D4016841F040010160E068B0F5006FB3
:100ED000606803D058B3012D29D049E008B1012D35
:100EE0001FD1206B21680088C86006E020688168F7
:100EF000890709D5216B0988C160206B801C20639C
:100F0000E08E401EE0860CE0FFF708FBA0EB090135
:100F1000414503D3B8F1FF3F03D006E0B8F1000F1D
:100F200003D0E08E0028E1D125E0032635E0206BD8
:100F300021680078087306E02068816889070AD56F
:100F4000216B09780173206B401C2063E08E401EEA
:100F5000E0860DE01FE0FFF7E1FAA0EB0901414553
:100F600003D3B8F1FF3F03D0DFE7B8F1000FDCD0C7
:100F7000E08E0028E0D14A464146204600F01AFAA9
:100F800008B120206065A06818B92068C168806831
:100F90000090606D08B1012601E084F8517084F87A
:100FA00050B0304661E70000F0B590F85050002492
:100FB000012D0CD0012580F8505090F8515000269A
:100FC0004768012D0BD0B7F5827F06D101E00220E2
:100FD000F0BD87680FB9042D01D0022429E0A9B122
:100FE000A2B19BB190F85150042D02D0052580F894
:100FF0005150466501638386C38682638387C387B6
:10100000C16829B10D4901640D4904E0012410E0D3
:101010000C4901640C49416401684A6842F0E002ED
:101020004A6001680A68520603D40A6842F0400226
:101030000A6080F850602046F0BD0000AD11000845
:101040000D120008DD1100083D120008704710B5B0
:10105000401EB0F1807F01D3012010BD4FF0E0248D
:1010600060610F21601700F05EFA0020A061072088
:101070002061002010BDFEE72DE9F04186B000247C
:101080001F480094019402940394816941F0040183
:101090008161816901F004010491816941F01001CD
:1010A0008161816901F010010491816941F00801B9
:1010B00081618069134F00F0080004900022102124
:1010C0003846FFF725FADFF840800022012140462C
:1010D000FFF71EFA102001250226CDE90005CDE913
:1010E000024669463846FFF70FF903960095CDE9A9
:1010F000015469464046FFF707F906B0BDE8F081A4
:101100000010024000100140000C01400F4810B5D3
:101110000D4901604FF48271416000218160C1601E
:101120004FF400720161C0E905123822C0E90721BD
:10113000416281620A21C162FFF74EFD002801D0A1
:1011400072B6FEE710BD000000300140280000200C
:101150000D4810B50B490160002141608160C160FC
:10116000016138224161C0E9061201624162816277
:101170000A21C162FFF730FD002801D072B6FEE7F8
:1011800010BD00000038004080000020FEE7FEE7B0
:10119000704700000148FFF7AFBC000028000020A6
:1011A0000148FFF7A9BC0000800000200168C96861
:1011B000826B1180816B891C8163C18F491EC1873D
:1011C000C18F002909D101684A6822F040024A60B3
:1011D000C18E002901D100F049B870470168097B30
:1011E000826B1170816B491C8163C18F491EC1875D
:1011F000C18F002909D101684A6822F060024A6063
:10120000C18E002901D100F031B87047016B02682E
:101210000988D160016B891C0163C18E491EC1869A
:10122000C18E002909D101684A6822F080024A6013
:10123000C18F002901D100F019B87047016B026815
:1012400009781173016B491C0163C18E491EC18667
:10125000C18E002909D101684A6822F080024A60E3
:10126000C18F002901D100F001B8704738B504469C
:10127000214845F6C0510068B0FBF1F064214843B5
:101280000090FFF74BF902462068416821F02001E9
:101290004160009888B1401E0090206880688007F7
:1012A000F7D56421204600F085F818B1606D40F054
:1012B00020006065A06828B108E0606D40F0200063
:1012C0006065EEE72068C16880680090616D01206C
:1012D00029B184F851002046FFF70AFC38BD94F884
:1012E000511084F851000429204602D0FFF7AEFEC9
:1012F00038BDFFF791FD38BD1800002038B5044611
:101300000068416821F060014160FFF707F902467B
:101310006421204600F020F818B1606D40F02000F4
:101320006065A06818B92068C168806800900120D5
:1013300084F85100606D0028204602D0FFF7D8FBEA
:1013400038BDFFF769FD38BD10B5406A0021C1877F
:10135000C186FFF7CDFB10BDF8B5044640684FF4D9
:101360008273984217D1A0684FF48065B0F5004FA2
:1013700001D0A8420FD12068066826F0400606601A
:101380006068984207D1A068A84204D100920B4639
:101390000022012103E000920B460022802120461A
:1013A00000F038F8002804D0606D40F0200060653F
:1013B0000320F8BD38B50B46009204460022802178
:1013C00000F028F8002804D0606D40F0200060652F
:1013D000032038BD0168C968826B1180816B891C4C
:1013E0008163C18F491EC187C18F002901D1FFF7D9
:1013F00085BF70470168097B826B1170816B491C46
:101400008163C18F491EC187C18F002901D1FFF7B8
:1014100075BF70472DE9F8431E469146884604463D
:10142000089DFFF77BF8401B351AFFF777F8074652
:1014300025480068C0F3CB30684338E0701C37D0D3
:10144000FFF76CF8C01BA84203D215B1009860B337
:101450002CE02068416821F0E00141606068B0F54F
:10146000827F0BD1A068B0F5004F02D0B0F5806F3D
:1014700004D12068016821F040010160A06AB0F544
:10148000005F09D12068016821F4005101602068E3
:10149000016841F400510160012084F851000020EE
:1014A00084F850000320BDE8F8830025401E00901A
:1014B0002068816838EA010004D000214945BDD187
:1014C0000020F0E70121F9E7180000207047FFF73E
:1014D0002BB810B590B028216846FEF74CFE1421B9
:1014E0000AA8FEF748FE0220009001200490102078
:1014F0000024059007946846FFF76AF908B172B6B0
:10150000FEE70F20CDE90A040C940D9400210AA8EF
:101510000E94FFF7A1F8002801D072B6FEE710B0D4
:1015200010BD7047FEE70907090E002804DB00F133
:10153000E02080F80014704700F00F0000F1E02078
:1015400080F8141D704702E008C8121F08C1002A65
:10155000FAD170477047002001E001C1121F002A34
:10156000FBD17047FEF7E8FFFFF7B3FFFFF784FDFD
:10157000FFF7CCFDFFF7ECFD0D490A2201F16400F5
:10158000FFF7F2FB0B4C01212046FEF7B9FF642068
:10159000FEF7A8FE064864230A2207490C30FFF72D
:1015A0004BFC03480C30FFF7A4FA0128F9D1EAE715
:1015B0001C000020000C014000000020010202037A
:1015C0000405060708090A0B0C0D0E0F1010000089
:1015D00000000000000001020304060708090000E3
:1015E00000160008000000201C000000461500083E
:1015F0001C1600081C000020BC0400005615000842
:101600000102030405060708090A000001000000A2
:0C16100010000000000000000024F400A6
:0400000508000131BD
:00000001FF
